{
  "contractName": "OpenMarket",
  "abi": [
    {
      "inputs": [
        {
          "internalType": "string",
          "name": "_initBaseURI",
          "type": "string"
        },
        {
          "internalType": "string",
          "name": "tokenName",
          "type": "string"
        },
        {
          "internalType": "string",
          "name": "tokenSymbol",
          "type": "string"
        }
      ],
      "stateMutability": "nonpayable",
      "type": "constructor"
    },
    {
      "anonymous": false,
      "inputs": [
        {
          "indexed": true,
          "internalType": "address",
          "name": "owner",
          "type": "address"
        },
        {
          "indexed": true,
          "internalType": "address",
          "name": "approved",
          "type": "address"
        },
        {
          "indexed": true,
          "internalType": "uint256",
          "name": "tokenId",
          "type": "uint256"
        }
      ],
      "name": "Approval",
      "type": "event"
    },
    {
      "anonymous": false,
      "inputs": [
        {
          "indexed": true,
          "internalType": "address",
          "name": "owner",
          "type": "address"
        },
        {
          "indexed": true,
          "internalType": "address",
          "name": "operator",
          "type": "address"
        },
        {
          "indexed": false,
          "internalType": "bool",
          "name": "approved",
          "type": "bool"
        }
      ],
      "name": "ApprovalForAll",
      "type": "event"
    },
    {
      "anonymous": false,
      "inputs": [
        {
          "indexed": true,
          "internalType": "address",
          "name": "previousOwner",
          "type": "address"
        },
        {
          "indexed": true,
          "internalType": "address",
          "name": "newOwner",
          "type": "address"
        }
      ],
      "name": "OwnershipTransferred",
      "type": "event"
    },
    {
      "anonymous": false,
      "inputs": [
        {
          "indexed": true,
          "internalType": "address",
          "name": "from",
          "type": "address"
        },
        {
          "indexed": true,
          "internalType": "address",
          "name": "to",
          "type": "address"
        },
        {
          "indexed": true,
          "internalType": "uint256",
          "name": "tokenId",
          "type": "uint256"
        }
      ],
      "name": "Transfer",
      "type": "event"
    },
    {
      "inputs": [
        {
          "internalType": "address",
          "name": "to",
          "type": "address"
        },
        {
          "internalType": "uint256",
          "name": "tokenId",
          "type": "uint256"
        }
      ],
      "name": "approve",
      "outputs": [],
      "stateMutability": "nonpayable",
      "type": "function"
    },
    {
      "inputs": [
        {
          "internalType": "address",
          "name": "owner",
          "type": "address"
        }
      ],
      "name": "balanceOf",
      "outputs": [
        {
          "internalType": "uint256",
          "name": "",
          "type": "uint256"
        }
      ],
      "stateMutability": "view",
      "type": "function",
      "constant": true
    },
    {
      "inputs": [
        {
          "internalType": "uint256",
          "name": "tokenId",
          "type": "uint256"
        }
      ],
      "name": "getApproved",
      "outputs": [
        {
          "internalType": "address",
          "name": "",
          "type": "address"
        }
      ],
      "stateMutability": "view",
      "type": "function",
      "constant": true
    },
    {
      "inputs": [
        {
          "internalType": "address",
          "name": "owner",
          "type": "address"
        },
        {
          "internalType": "address",
          "name": "operator",
          "type": "address"
        }
      ],
      "name": "isApprovedForAll",
      "outputs": [
        {
          "internalType": "bool",
          "name": "",
          "type": "bool"
        }
      ],
      "stateMutability": "view",
      "type": "function",
      "constant": true
    },
    {
      "inputs": [],
      "name": "name",
      "outputs": [
        {
          "internalType": "string",
          "name": "",
          "type": "string"
        }
      ],
      "stateMutability": "view",
      "type": "function",
      "constant": true
    },
    {
      "inputs": [],
      "name": "owner",
      "outputs": [
        {
          "internalType": "address",
          "name": "",
          "type": "address"
        }
      ],
      "stateMutability": "view",
      "type": "function",
      "constant": true
    },
    {
      "inputs": [
        {
          "internalType": "uint256",
          "name": "tokenId",
          "type": "uint256"
        }
      ],
      "name": "ownerOf",
      "outputs": [
        {
          "internalType": "address",
          "name": "",
          "type": "address"
        }
      ],
      "stateMutability": "view",
      "type": "function",
      "constant": true
    },
    {
      "inputs": [],
      "name": "renounceOwnership",
      "outputs": [],
      "stateMutability": "nonpayable",
      "type": "function"
    },
    {
      "inputs": [
        {
          "internalType": "address",
          "name": "from",
          "type": "address"
        },
        {
          "internalType": "address",
          "name": "to",
          "type": "address"
        },
        {
          "internalType": "uint256",
          "name": "tokenId",
          "type": "uint256"
        }
      ],
      "name": "safeTransferFrom",
      "outputs": [],
      "stateMutability": "nonpayable",
      "type": "function"
    },
    {
      "inputs": [
        {
          "internalType": "address",
          "name": "from",
          "type": "address"
        },
        {
          "internalType": "address",
          "name": "to",
          "type": "address"
        },
        {
          "internalType": "uint256",
          "name": "tokenId",
          "type": "uint256"
        },
        {
          "internalType": "bytes",
          "name": "_data",
          "type": "bytes"
        }
      ],
      "name": "safeTransferFrom",
      "outputs": [],
      "stateMutability": "nonpayable",
      "type": "function"
    },
    {
      "inputs": [
        {
          "internalType": "address",
          "name": "operator",
          "type": "address"
        },
        {
          "internalType": "bool",
          "name": "approved",
          "type": "bool"
        }
      ],
      "name": "setApprovalForAll",
      "outputs": [],
      "stateMutability": "nonpayable",
      "type": "function"
    },
    {
      "inputs": [
        {
          "internalType": "bytes4",
          "name": "interfaceId",
          "type": "bytes4"
        }
      ],
      "name": "supportsInterface",
      "outputs": [
        {
          "internalType": "bool",
          "name": "",
          "type": "bool"
        }
      ],
      "stateMutability": "view",
      "type": "function",
      "constant": true
    },
    {
      "inputs": [],
      "name": "symbol",
      "outputs": [
        {
          "internalType": "string",
          "name": "",
          "type": "string"
        }
      ],
      "stateMutability": "view",
      "type": "function",
      "constant": true
    },
    {
      "inputs": [
        {
          "internalType": "uint256",
          "name": "tokenId",
          "type": "uint256"
        }
      ],
      "name": "tokenURI",
      "outputs": [
        {
          "internalType": "string",
          "name": "",
          "type": "string"
        }
      ],
      "stateMutability": "view",
      "type": "function",
      "constant": true
    },
    {
      "inputs": [
        {
          "internalType": "address",
          "name": "from",
          "type": "address"
        },
        {
          "internalType": "address",
          "name": "to",
          "type": "address"
        },
        {
          "internalType": "uint256",
          "name": "tokenId",
          "type": "uint256"
        }
      ],
      "name": "transferFrom",
      "outputs": [],
      "stateMutability": "nonpayable",
      "type": "function"
    },
    {
      "inputs": [
        {
          "internalType": "address",
          "name": "newOwner",
          "type": "address"
        }
      ],
      "name": "transferOwnership",
      "outputs": [],
      "stateMutability": "nonpayable",
      "type": "function"
    },
    {
      "inputs": [
        {
          "internalType": "string",
          "name": "_tokenURI",
          "type": "string"
        },
        {
          "internalType": "string",
          "name": "_setBaseURI",
          "type": "string"
        }
      ],
      "name": "mint",
      "outputs": [
        {
          "internalType": "uint256",
          "name": "",
          "type": "uint256"
        }
      ],
      "stateMutability": "nonpayable",
      "type": "function"
    },
    {
      "inputs": [
        {
          "internalType": "uint256",
          "name": "tokenId",
          "type": "uint256"
        },
        {
          "internalType": "uint256",
          "name": "price",
          "type": "uint256"
        }
      ],
      "name": "setTokenForSale",
      "outputs": [],
      "stateMutability": "nonpayable",
      "type": "function"
    },
    {
      "inputs": [
        {
          "internalType": "uint256",
          "name": "tokenId",
          "type": "uint256"
        },
        {
          "internalType": "uint256",
          "name": "price",
          "type": "uint256"
        }
      ],
      "name": "changeTokenPrice",
      "outputs": [],
      "stateMutability": "nonpayable",
      "type": "function"
    },
    {
      "inputs": [
        {
          "internalType": "uint256",
          "name": "tokenId",
          "type": "uint256"
        }
      ],
      "name": "buyNFT",
      "outputs": [],
      "stateMutability": "nonpayable",
      "type": "function"
    },
    {
      "inputs": [
        {
          "internalType": "uint256",
          "name": "tokenId",
          "type": "uint256"
        }
      ],
      "name": "removeTokenFromSale",
      "outputs": [],
      "stateMutability": "nonpayable",
      "type": "function"
    },
    {
      "inputs": [
        {
          "internalType": "uint256",
          "name": "tokenId",
          "type": "uint256"
        }
      ],
      "name": "isTokenForSale",
      "outputs": [
        {
          "internalType": "bool",
          "name": "",
          "type": "bool"
        }
      ],
      "stateMutability": "view",
      "type": "function",
      "constant": true
    },
    {
      "inputs": [
        {
          "internalType": "uint256",
          "name": "tokenId",
          "type": "uint256"
        }
      ],
      "name": "getTokenPrice",
      "outputs": [
        {
          "internalType": "uint256",
          "name": "",
          "type": "uint256"
        }
      ],
      "stateMutability": "view",
      "type": "function",
      "constant": true
    }
  ],
  "bytecode": "0x60806040526040518060400160405280600581526020017f2e6a736f6e000000000000000000000000000000000000000000000000000000815250600990805190602001906200005192919062000295565b503480156200005f57600080fd5b5060405162004367380380620043678339818101604052810190620000859190620004e2565b8181620000a76200009b620000f560201b60201c565b620000fd60201b60201c565b8160019080519060200190620000bf92919062000295565b508060029080519060200190620000d892919062000295565b505050620000ec83620001c160201b60201c565b50505062000683565b600033905090565b60008060009054906101000a900473ffffffffffffffffffffffffffffffffffffffff169050816000806101000a81548173ffffffffffffffffffffffffffffffffffffffff021916908373ffffffffffffffffffffffffffffffffffffffff1602179055508173ffffffffffffffffffffffffffffffffffffffff168173ffffffffffffffffffffffffffffffffffffffff167f8be0079c531659141344cd1fd0a4f28419497f9722a3daafe3b4186f6b6457e060405160405180910390a35050565b620001d1620000f560201b60201c565b73ffffffffffffffffffffffffffffffffffffffff16620001f76200026c60201b60201c565b73ffffffffffffffffffffffffffffffffffffffff161462000250576040517f08c379a00000000000000000000000000000000000000000000000000000000081526004016200024790620005fc565b60405180910390fd5b80600890805190602001906200026892919062000295565b5050565b60008060009054906101000a900473ffffffffffffffffffffffffffffffffffffffff16905090565b828054620002a3906200064d565b90600052602060002090601f016020900481019282620002c7576000855562000313565b82601f10620002e257805160ff191683800117855562000313565b8280016001018555821562000313579182015b8281111562000312578251825591602001919060010190620002f5565b5b50905062000322919062000326565b5090565b5b808211156200034157600081600090555060010162000327565b5090565b6000604051905090565b600080fd5b600080fd5b600080fd5b600080fd5b6000601f19601f8301169050919050565b7f4e487b7100000000000000000000000000000000000000000000000000000000600052604160045260246000fd5b620003ae8262000363565b810181811067ffffffffffffffff82111715620003d057620003cf62000374565b5b80604052505050565b6000620003e562000345565b9050620003f38282620003a3565b919050565b600067ffffffffffffffff82111562000416576200041562000374565b5b620004218262000363565b9050602081019050919050565b60005b838110156200044e57808201518184015260208101905062000431565b838111156200045e576000848401525b50505050565b60006200047b6200047584620003f8565b620003d9565b9050828152602081018484840111156200049a57620004996200035e565b5b620004a78482856200042e565b509392505050565b600082601f830112620004c757620004c662000359565b5b8151620004d984826020860162000464565b91505092915050565b600080600060608486031215620004fe57620004fd6200034f565b5b600084015167ffffffffffffffff8111156200051f576200051e62000354565b5b6200052d86828701620004af565b935050602084015167ffffffffffffffff81111562000551576200055062000354565b5b6200055f86828701620004af565b925050604084015167ffffffffffffffff81111562000583576200058262000354565b5b6200059186828701620004af565b9150509250925092565b600082825260208201905092915050565b7f4f776e61626c653a2063616c6c6572206973206e6f7420746865206f776e6572600082015250565b6000620005e46020836200059b565b9150620005f182620005ac565b602082019050919050565b600060208201905081810360008301526200061781620005d5565b9050919050565b7f4e487b7100000000000000000000000000000000000000000000000000000000600052602260045260246000fd5b600060028204905060018216806200066657607f821691505b602082108114156200067d576200067c6200061e565b5b50919050565b613cd480620006936000396000f3fe608060405234801561001057600080fd5b506004361061014d5760003560e01c8063715018a6116100c3578063c457fb371161007c578063c457fb371461039a578063c87b56dd146103ca578063cb233ce2146103fa578063e8cdea1114610416578063e985e9c514610432578063f2fde38b146104625761014d565b8063715018a6146102ec5780638aa0fdad146102f65780638da5cb5b1461032657806395d89b4114610344578063a22cb46514610362578063b88d4fde1461037e5761014d565b806342842e0e1161011557806342842e0e146102085780634fed1c941461022457806351ed82881461025457806362e8e8ac146102705780636352211e1461028c57806370a08231146102bc5761014d565b806301ffc9a71461015257806306fdde0314610182578063081812fc146101a0578063095ea7b3146101d057806323b872dd146101ec575b600080fd5b61016c60048036038101906101679190612432565b61047e565b604051610179919061247a565b60405180910390f35b61018a610560565b604051610197919061252e565b60405180910390f35b6101ba60048036038101906101b59190612586565b6105f2565b6040516101c791906125f4565b60405180910390f35b6101ea60048036038101906101e5919061263b565b610677565b005b6102066004803603810190610201919061267b565b61078f565b005b610222600480360381019061021d919061267b565b6107ef565b005b61023e60048036038101906102399190612586565b61080f565b60405161024b919061247a565b60405180910390f35b61026e60048036038101906102699190612586565b610839565b005b61028a600480360381019061028591906126ce565b610a37565b005b6102a660048036038101906102a19190612586565b610b78565b6040516102b391906125f4565b60405180910390f35b6102d660048036038101906102d1919061270e565b610c2a565b6040516102e3919061274a565b60405180910390f35b6102f4610ce2565b005b610310600480360381019061030b919061289a565b610d6a565b60405161031d919061274a565b60405180910390f35b61032e610e00565b60405161033b91906125f4565b60405180910390f35b61034c610e29565b604051610359919061252e565b60405180910390f35b61037c6004803603810190610377919061293e565b610ebb565b005b61039860048036038101906103939190612a1f565b610ed1565b005b6103b460048036038101906103af9190612586565b610f33565b6040516103c1919061274a565b60405180910390f35b6103e460048036038101906103df9190612586565b610f50565b6040516103f1919061252e565b60405180910390f35b610414600480360381019061040f91906126ce565b6110a2565b005b610430600480360381019061042b9190612586565b6111af565b005b61044c60048036038101906104479190612aa2565b611303565b604051610459919061247a565b60405180910390f35b61047c6004803603810190610477919061270e565b611397565b005b60007f80ac58cd000000000000000000000000000000000000000000000000000000007bffffffffffffffffffffffffffffffffffffffffffffffffffffffff1916827bffffffffffffffffffffffffffffffffffffffffffffffffffffffff1916148061054957507f5b5e139f000000000000000000000000000000000000000000000000000000007bffffffffffffffffffffffffffffffffffffffffffffffffffffffff1916827bffffffffffffffffffffffffffffffffffffffffffffffffffffffff1916145b8061055957506105588261148f565b5b9050919050565b60606001805461056f90612b11565b80601f016020809104026020016040519081016040528092919081815260200182805461059b90612b11565b80156105e85780601f106105bd576101008083540402835291602001916105e8565b820191906000526020600020905b8154815290600101906020018083116105cb57829003601f168201915b5050505050905090565b60006105fd826114f9565b61063c576040517f08c379a000000000000000000000000000000000000000000000000000000000815260040161063390612bb5565b60405180910390fd5b6005600083815260200190815260200160002060009054906101000a900473ffffffffffffffffffffffffffffffffffffffff169050919050565b600061068282610b78565b90508073ffffffffffffffffffffffffffffffffffffffff168373ffffffffffffffffffffffffffffffffffffffff1614156106f3576040517f08c379a00000000000000000000000000000000000000000000000000000000081526004016106ea90612c47565b60405180910390fd5b8073ffffffffffffffffffffffffffffffffffffffff16610712611565565b73ffffffffffffffffffffffffffffffffffffffff16148061074157506107408161073b611565565b611303565b5b610780576040517f08c379a000000000000000000000000000000000000000000000000000000000815260040161077790612cd9565b60405180910390fd5b61078a838361156d565b505050565b6107a061079a611565565b82611626565b6107df576040517f08c379a00000000000000000000000000000000000000000000000000000000081526004016107d690612d6b565b60405180910390fd5b6107ea838383611704565b505050565b61080a83838360405180602001604052806000815250610ed1565b505050565b6000600a600083815260200190815260200160002060009054906101000a900460ff169050919050565b600a600082815260200190815260200160002060009054906101000a900460ff16610899576040517f08c379a000000000000000000000000000000000000000000000000000000000815260040161089090612dd7565b60405180910390fd5b60006108a482610b78565b9050600073ffffffffffffffffffffffffffffffffffffffff166108c6611565565b73ffffffffffffffffffffffffffffffffffffffff16141561091d576040517f08c379a000000000000000000000000000000000000000000000000000000000815260040161091490612e43565b60405180910390fd5b8073ffffffffffffffffffffffffffffffffffffffff1661093c611565565b73ffffffffffffffffffffffffffffffffffffffff161415610993576040517f08c379a000000000000000000000000000000000000000000000000000000000815260040161098a90612eaf565b60405180910390fd5b6109a58161099f611565565b84611704565b6000600a600084815260200190815260200160002060006101000a81548160ff021916908315150217905550816109da611565565b73ffffffffffffffffffffffffffffffffffffffff168273ffffffffffffffffffffffffffffffffffffffff167fddf252ad1be2c89b69c2b068fc378daa952ba7f163c4a11628f55a4df523b3ef60405160405180910390a45050565b610a40826114f9565b610a7f576040517f08c379a0000000000000000000000000000000000000000000000000000000008152600401610a7690612f1b565b60405180910390fd5b600a600083815260200190815260200160002060009054906101000a900460ff16610adf576040517f08c379a0000000000000000000000000000000000000000000000000000000008152600401610ad690612fad565b60405180910390fd5b610ae7611565565b73ffffffffffffffffffffffffffffffffffffffff16610b0683610b78565b73ffffffffffffffffffffffffffffffffffffffff1614610b5c576040517f08c379a0000000000000000000000000000000000000000000000000000000008152600401610b5390613019565b60405180910390fd5b80600b6000848152602001908152602001600020819055505050565b6000806003600084815260200190815260200160002060009054906101000a900473ffffffffffffffffffffffffffffffffffffffff169050600073ffffffffffffffffffffffffffffffffffffffff168173ffffffffffffffffffffffffffffffffffffffff161415610c21576040517f08c379a0000000000000000000000000000000000000000000000000000000008152600401610c18906130ab565b60405180910390fd5b80915050919050565b60008073ffffffffffffffffffffffffffffffffffffffff168273ffffffffffffffffffffffffffffffffffffffff161415610c9b576040517f08c379a0000000000000000000000000000000000000000000000000000000008152600401610c929061313d565b60405180910390fd5b600460008373ffffffffffffffffffffffffffffffffffffffff1673ffffffffffffffffffffffffffffffffffffffff168152602001908152602001600020549050919050565b610cea611565565b73ffffffffffffffffffffffffffffffffffffffff16610d08610e00565b73ffffffffffffffffffffffffffffffffffffffff1614610d5e576040517f08c379a0000000000000000000000000000000000000000000000000000000008152600401610d55906131a9565b60405180910390fd5b610d686000611960565b565b6000610d76600c611a24565b6000610d82600c611a3a565b9050600e819080600181540180825580915050600190039060005260206000200160009091909190915055610db73382611a48565b6000600a600083815260200190815260200160002060006101000a81548160ff021916908315150217905550610dec83611c16565b610df68185611cac565b8091505092915050565b60008060009054906101000a900473ffffffffffffffffffffffffffffffffffffffff16905090565b606060028054610e3890612b11565b80601f0160208091040260200160405190810160405280929190818152602001828054610e6490612b11565b8015610eb15780601f10610e8657610100808354040283529160200191610eb1565b820191906000526020600020905b815481529060010190602001808311610e9457829003601f168201915b5050505050905090565b610ecd610ec6611565565b8383611d20565b5050565b610ee2610edc611565565b83611626565b610f21576040517f08c379a0000000000000000000000000000000000000000000000000000000008152600401610f1890612d6b565b60405180910390fd5b610f2d84848484611e8d565b50505050565b6000600b6000838152602001908152602001600020549050919050565b6060610f5b826114f9565b610f9a576040517f08c379a0000000000000000000000000000000000000000000000000000000008152600401610f919061323b565b60405180910390fd5b6000600760008481526020019081526020016000208054610fba90612b11565b80601f0160208091040260200160405190810160405280929190818152602001828054610fe690612b11565b80156110335780601f1061100857610100808354040283529160200191611033565b820191906000526020600020905b81548152906001019060200180831161101657829003601f168201915b505050505090506000611044611ee9565b905060008151141561105a57819250505061109d565b60008251111561108f578082604051602001611077929190613297565b6040516020818303038152906040529250505061109d565b61109884611f7b565b925050505b919050565b6110ab826114f9565b6110ea576040517f08c379a00000000000000000000000000000000000000000000000000000000081526004016110e190612f1b565b60405180910390fd5b6110f2611565565b73ffffffffffffffffffffffffffffffffffffffff1661111183610b78565b73ffffffffffffffffffffffffffffffffffffffff1614611167576040517f08c379a000000000000000000000000000000000000000000000000000000000815260040161115e9061332d565b60405180910390fd5b6001600a600084815260200190815260200160002060006101000a81548160ff02191690831515021790555080600b6000848152602001908152602001600020819055505050565b6111b8816114f9565b6111f7576040517f08c379a00000000000000000000000000000000000000000000000000000000081526004016111ee90613399565b60405180910390fd5b600a600082815260200190815260200160002060009054906101000a900460ff16611257576040517f08c379a000000000000000000000000000000000000000000000000000000000815260040161124e9061342b565b60405180910390fd5b61125f611565565b73ffffffffffffffffffffffffffffffffffffffff1661127e82610b78565b73ffffffffffffffffffffffffffffffffffffffff16146112d4576040517f08c379a00000000000000000000000000000000000000000000000000000000081526004016112cb90613497565b60405180910390fd5b6000600a600083815260200190815260200160002060006101000a81548160ff02191690831515021790555050565b6000600660008473ffffffffffffffffffffffffffffffffffffffff1673ffffffffffffffffffffffffffffffffffffffff16815260200190815260200160002060008373ffffffffffffffffffffffffffffffffffffffff1673ffffffffffffffffffffffffffffffffffffffff16815260200190815260200160002060009054906101000a900460ff16905092915050565b61139f611565565b73ffffffffffffffffffffffffffffffffffffffff166113bd610e00565b73ffffffffffffffffffffffffffffffffffffffff1614611413576040517f08c379a000000000000000000000000000000000000000000000000000000000815260040161140a906131a9565b60405180910390fd5b600073ffffffffffffffffffffffffffffffffffffffff168173ffffffffffffffffffffffffffffffffffffffff161415611483576040517f08c379a000000000000000000000000000000000000000000000000000000000815260040161147a90613529565b60405180910390fd5b61148c81611960565b50565b60007f01ffc9a7000000000000000000000000000000000000000000000000000000007bffffffffffffffffffffffffffffffffffffffffffffffffffffffff1916827bffffffffffffffffffffffffffffffffffffffffffffffffffffffff1916149050919050565b60008073ffffffffffffffffffffffffffffffffffffffff166003600084815260200190815260200160002060009054906101000a900473ffffffffffffffffffffffffffffffffffffffff1673ffffffffffffffffffffffffffffffffffffffff1614159050919050565b600033905090565b816005600083815260200190815260200160002060006101000a81548173ffffffffffffffffffffffffffffffffffffffff021916908373ffffffffffffffffffffffffffffffffffffffff160217905550808273ffffffffffffffffffffffffffffffffffffffff166115e083610b78565b73ffffffffffffffffffffffffffffffffffffffff167f8c5be1e5ebec7d5bd14f71427d1e84f3dd0314c0f7b2291e5b200ac8c7c3b92560405160405180910390a45050565b6000611631826114f9565b611670576040517f08c379a0000000000000000000000000000000000000000000000000000000008152600401611667906135bb565b60405180910390fd5b600061167b83610b78565b90508073ffffffffffffffffffffffffffffffffffffffff168473ffffffffffffffffffffffffffffffffffffffff1614806116ea57508373ffffffffffffffffffffffffffffffffffffffff166116d2846105f2565b73ffffffffffffffffffffffffffffffffffffffff16145b806116fb57506116fa8185611303565b5b91505092915050565b8273ffffffffffffffffffffffffffffffffffffffff1661172482610b78565b73ffffffffffffffffffffffffffffffffffffffff161461177a576040517f08c379a00000000000000000000000000000000000000000000000000000000081526004016117719061364d565b60405180910390fd5b600073ffffffffffffffffffffffffffffffffffffffff168273ffffffffffffffffffffffffffffffffffffffff1614156117ea576040517f08c379a00000000000000000000000000000000000000000000000000000000081526004016117e1906136df565b60405180910390fd5b6117f5838383612022565b61180060008261156d565b6001600460008573ffffffffffffffffffffffffffffffffffffffff1673ffffffffffffffffffffffffffffffffffffffff1681526020019081526020016000206000828254611850919061372e565b925050819055506001600460008473ffffffffffffffffffffffffffffffffffffffff1673ffffffffffffffffffffffffffffffffffffffff16815260200190815260200160002060008282546118a79190613762565b92505081905550816003600083815260200190815260200160002060006101000a81548173ffffffffffffffffffffffffffffffffffffffff021916908373ffffffffffffffffffffffffffffffffffffffff160217905550808273ffffffffffffffffffffffffffffffffffffffff168473ffffffffffffffffffffffffffffffffffffffff167fddf252ad1be2c89b69c2b068fc378daa952ba7f163c4a11628f55a4df523b3ef60405160405180910390a4505050565b60008060009054906101000a900473ffffffffffffffffffffffffffffffffffffffff169050816000806101000a81548173ffffffffffffffffffffffffffffffffffffffff021916908373ffffffffffffffffffffffffffffffffffffffff1602179055508173ffffffffffffffffffffffffffffffffffffffff168173ffffffffffffffffffffffffffffffffffffffff167f8be0079c531659141344cd1fd0a4f28419497f9722a3daafe3b4186f6b6457e060405160405180910390a35050565b6001816000016000828254019250508190555050565b600081600001549050919050565b600073ffffffffffffffffffffffffffffffffffffffff168273ffffffffffffffffffffffffffffffffffffffff161415611ab8576040517f08c379a0000000000000000000000000000000000000000000000000000000008152600401611aaf90613804565b60405180910390fd5b611ac1816114f9565b15611b01576040517f08c379a0000000000000000000000000000000000000000000000000000000008152600401611af890613870565b60405180910390fd5b611b0d60008383612022565b6001600460008473ffffffffffffffffffffffffffffffffffffffff1673ffffffffffffffffffffffffffffffffffffffff1681526020019081526020016000206000828254611b5d9190613762565b92505081905550816003600083815260200190815260200160002060006101000a81548173ffffffffffffffffffffffffffffffffffffffff021916908373ffffffffffffffffffffffffffffffffffffffff160217905550808273ffffffffffffffffffffffffffffffffffffffff16600073ffffffffffffffffffffffffffffffffffffffff167fddf252ad1be2c89b69c2b068fc378daa952ba7f163c4a11628f55a4df523b3ef60405160405180910390a45050565b611c1e611565565b73ffffffffffffffffffffffffffffffffffffffff16611c3c610e00565b73ffffffffffffffffffffffffffffffffffffffff1614611c92576040517f08c379a0000000000000000000000000000000000000000000000000000000008152600401611c89906131a9565b60405180910390fd5b8060089080519060200190611ca8929190612323565b5050565b611cb5826114f9565b611cf4576040517f08c379a0000000000000000000000000000000000000000000000000000000008152600401611ceb90613902565b60405180910390fd5b80600760008481526020019081526020016000209080519060200190611d1b929190612323565b505050565b8173ffffffffffffffffffffffffffffffffffffffff168373ffffffffffffffffffffffffffffffffffffffff161415611d8f576040517f08c379a0000000000000000000000000000000000000000000000000000000008152600401611d869061396e565b60405180910390fd5b80600660008573ffffffffffffffffffffffffffffffffffffffff1673ffffffffffffffffffffffffffffffffffffffff16815260200190815260200160002060008473ffffffffffffffffffffffffffffffffffffffff1673ffffffffffffffffffffffffffffffffffffffff16815260200190815260200160002060006101000a81548160ff0219169083151502179055508173ffffffffffffffffffffffffffffffffffffffff168373ffffffffffffffffffffffffffffffffffffffff167f17307eab39ab6107e8899845ad3d59bd9653f200f220920489ca2b5937696c3183604051611e80919061247a565b60405180910390a3505050565b611e98848484611704565b611ea484848484612027565b611ee3576040517f08c379a0000000000000000000000000000000000000000000000000000000008152600401611eda90613a00565b60405180910390fd5b50505050565b606060088054611ef890612b11565b80601f0160208091040260200160405190810160405280929190818152602001828054611f2490612b11565b8015611f715780601f10611f4657610100808354040283529160200191611f71565b820191906000526020600020905b815481529060010190602001808311611f5457829003601f168201915b5050505050905090565b6060611f86826114f9565b611fc5576040517f08c379a0000000000000000000000000000000000000000000000000000000008152600401611fbc90613a92565b60405180910390fd5b6000611fcf611ee9565b90506000815111611fef576040518060200160405280600081525061201a565b80611ff9846121af565b60405160200161200a929190613297565b6040516020818303038152906040525b915050919050565b505050565b60006120488473ffffffffffffffffffffffffffffffffffffffff16612310565b156121a2578373ffffffffffffffffffffffffffffffffffffffff1663150b7a02612071611565565b8786866040518563ffffffff1660e01b81526004016120939493929190613b07565b6020604051808303816000875af19250505080156120cf57506040513d601f19601f820116820180604052508101906120cc9190613b68565b60015b612152573d80600081146120ff576040519150601f19603f3d011682016040523d82523d6000602084013e612104565b606091505b5060008151141561214a576040517f08c379a000000000000000000000000000000000000000000000000000000000815260040161214190613a00565b60405180910390fd5b805181602001fd5b63150b7a0260e01b7bffffffffffffffffffffffffffffffffffffffffffffffffffffffff1916817bffffffffffffffffffffffffffffffffffffffffffffffffffffffff1916149150506121a7565b600190505b949350505050565b606060008214156121f7576040518060400160405280600181526020017f3000000000000000000000000000000000000000000000000000000000000000815250905061230b565b600082905060005b6000821461222957808061221290613b95565b915050600a826122229190613c0d565b91506121ff565b60008167ffffffffffffffff8111156122455761224461276f565b5b6040519080825280601f01601f1916602001820160405280156122775781602001600182028036833780820191505090505b5090505b6000851461230457600182612290919061372e565b9150600a8561229f9190613c3e565b60306122ab9190613762565b60f81b8183815181106122c1576122c0613c6f565b5b60200101907effffffffffffffffffffffffffffffffffffffffffffffffffffffffffffff1916908160001a905350600a856122fd9190613c0d565b945061227b565b8093505050505b919050565b600080823b905060008111915050919050565b82805461232f90612b11565b90600052602060002090601f0160209004810192826123515760008555612398565b82601f1061236a57805160ff1916838001178555612398565b82800160010185558215612398579182015b8281111561239757825182559160200191906001019061237c565b5b5090506123a591906123a9565b5090565b5b808211156123c25760008160009055506001016123aa565b5090565b6000604051905090565b600080fd5b600080fd5b60007fffffffff0000000000000000000000000000000000000000000000000000000082169050919050565b61240f816123da565b811461241a57600080fd5b50565b60008135905061242c81612406565b92915050565b600060208284031215612448576124476123d0565b5b60006124568482850161241d565b91505092915050565b60008115159050919050565b6124748161245f565b82525050565b600060208201905061248f600083018461246b565b92915050565b600081519050919050565b600082825260208201905092915050565b60005b838110156124cf5780820151818401526020810190506124b4565b838111156124de576000848401525b50505050565b6000601f19601f8301169050919050565b600061250082612495565b61250a81856124a0565b935061251a8185602086016124b1565b612523816124e4565b840191505092915050565b6000602082019050818103600083015261254881846124f5565b905092915050565b6000819050919050565b61256381612550565b811461256e57600080fd5b50565b6000813590506125808161255a565b92915050565b60006020828403121561259c5761259b6123d0565b5b60006125aa84828501612571565b91505092915050565b600073ffffffffffffffffffffffffffffffffffffffff82169050919050565b60006125de826125b3565b9050919050565b6125ee816125d3565b82525050565b600060208201905061260960008301846125e5565b92915050565b612618816125d3565b811461262357600080fd5b50565b6000813590506126358161260f565b92915050565b60008060408385031215612652576126516123d0565b5b600061266085828601612626565b925050602061267185828601612571565b9150509250929050565b600080600060608486031215612694576126936123d0565b5b60006126a286828701612626565b93505060206126b386828701612626565b92505060406126c486828701612571565b9150509250925092565b600080604083850312156126e5576126e46123d0565b5b60006126f385828601612571565b925050602061270485828601612571565b9150509250929050565b600060208284031215612724576127236123d0565b5b600061273284828501612626565b91505092915050565b61274481612550565b82525050565b600060208201905061275f600083018461273b565b92915050565b600080fd5b600080fd5b7f4e487b7100000000000000000000000000000000000000000000000000000000600052604160045260246000fd5b6127a7826124e4565b810181811067ffffffffffffffff821117156127c6576127c561276f565b5b80604052505050565b60006127d96123c6565b90506127e5828261279e565b919050565b600067ffffffffffffffff8211156128055761280461276f565b5b61280e826124e4565b9050602081019050919050565b82818337600083830152505050565b600061283d612838846127ea565b6127cf565b9050828152602081018484840111156128595761285861276a565b5b61286484828561281b565b509392505050565b600082601f83011261288157612880612765565b5b813561289184826020860161282a565b91505092915050565b600080604083850312156128b1576128b06123d0565b5b600083013567ffffffffffffffff8111156128cf576128ce6123d5565b5b6128db8582860161286c565b925050602083013567ffffffffffffffff8111156128fc576128fb6123d5565b5b6129088582860161286c565b9150509250929050565b61291b8161245f565b811461292657600080fd5b50565b60008135905061293881612912565b92915050565b60008060408385031215612955576129546123d0565b5b600061296385828601612626565b925050602061297485828601612929565b9150509250929050565b600067ffffffffffffffff8211156129995761299861276f565b5b6129a2826124e4565b9050602081019050919050565b60006129c26129bd8461297e565b6127cf565b9050828152602081018484840111156129de576129dd61276a565b5b6129e984828561281b565b509392505050565b600082601f830112612a0657612a05612765565b5b8135612a168482602086016129af565b91505092915050565b60008060008060808587031215612a3957612a386123d0565b5b6000612a4787828801612626565b9450506020612a5887828801612626565b9350506040612a6987828801612571565b925050606085013567ffffffffffffffff811115612a8a57612a896123d5565b5b612a96878288016129f1565b91505092959194509250565b60008060408385031215612ab957612ab86123d0565b5b6000612ac785828601612626565b9250506020612ad885828601612626565b9150509250929050565b7f4e487b7100000000000000000000000000000000000000000000000000000000600052602260045260246000fd5b60006002820490506001821680612b2957607f821691505b60208210811415612b3d57612b3c612ae2565b5b50919050565b7f4552433732313a20617070726f76656420717565727920666f72206e6f6e657860008201527f697374656e7420746f6b656e0000000000000000000000000000000000000000602082015250565b6000612b9f602c836124a0565b9150612baa82612b43565b604082019050919050565b60006020820190508181036000830152612bce81612b92565b9050919050565b7f4552433732313a20617070726f76616c20746f2063757272656e74206f776e6560008201527f7200000000000000000000000000000000000000000000000000000000000000602082015250565b6000612c316021836124a0565b9150612c3c82612bd5565b604082019050919050565b60006020820190508181036000830152612c6081612c24565b9050919050565b7f4552433732313a20617070726f76652063616c6c6572206973206e6f74206f7760008201527f6e6572206e6f7220617070726f76656420666f7220616c6c0000000000000000602082015250565b6000612cc36038836124a0565b9150612cce82612c67565b604082019050919050565b60006020820190508181036000830152612cf281612cb6565b9050919050565b7f4552433732313a207472616e736665722063616c6c6572206973206e6f74206f60008201527f776e6572206e6f7220617070726f766564000000000000000000000000000000602082015250565b6000612d556031836124a0565b9150612d6082612cf9565b604082019050919050565b60006020820190508181036000830152612d8481612d48565b9050919050565b7f546f6b656e2069732063757272656e746c79206e6f7420666f722073616c6521600082015250565b6000612dc16020836124a0565b9150612dcc82612d8b565b602082019050919050565b60006020820190508181036000830152612df081612db4565b9050919050565b7f427579657220616464726573732063616e6e6f74206265207a65726f00000000600082015250565b6000612e2d601c836124a0565b9150612e3882612df7565b602082019050919050565b60006020820190508181036000830152612e5c81612e20565b9050919050565b7f43616e6e6f7420627579206f776e6564204e4654000000000000000000000000600082015250565b6000612e996014836124a0565b9150612ea482612e63565b602082019050919050565b60006020820190508181036000830152612ec881612e8c565b9050919050565b7f546f6b656e20646f6573206e6f74206578697374210000000000000000000000600082015250565b6000612f056015836124a0565b9150612f1082612ecf565b602082019050919050565b60006020820190508181036000830152612f3481612ef8565b9050919050565b7f546f6b656e206973206e6f7420666f722073616c652c2073657420697420736160008201527f6c65206669727374210000000000000000000000000000000000000000000000602082015250565b6000612f976029836124a0565b9150612fa282612f3b565b604082019050919050565b60006020820190508181036000830152612fc681612f8a565b9050919050565b7f4f6e6c79206f776e65722063616e20736574207468652076616c756521000000600082015250565b6000613003601d836124a0565b915061300e82612fcd565b602082019050919050565b6000602082019050818103600083015261303281612ff6565b9050919050565b7f4552433732313a206f776e657220717565727920666f72206e6f6e657869737460008201527f656e7420746f6b656e0000000000000000000000000000000000000000000000602082015250565b60006130956029836124a0565b91506130a082613039565b604082019050919050565b600060208201905081810360008301526130c481613088565b9050919050565b7f4552433732313a2062616c616e636520717565727920666f7220746865207a6560008201527f726f206164647265737300000000000000000000000000000000000000000000602082015250565b6000613127602a836124a0565b9150613132826130cb565b604082019050919050565b600060208201905081810360008301526131568161311a565b9050919050565b7f4f776e61626c653a2063616c6c6572206973206e6f7420746865206f776e6572600082015250565b60006131936020836124a0565b915061319e8261315d565b602082019050919050565b600060208201905081810360008301526131c281613186565b9050919050565b7f45524337323155524953746f726167653a2055524920717565727920666f722060008201527f6e6f6e6578697374656e7420746f6b656e000000000000000000000000000000602082015250565b60006132256031836124a0565b9150613230826131c9565b604082019050919050565b6000602082019050818103600083015261325481613218565b9050919050565b600081905092915050565b600061327182612495565b61327b818561325b565b935061328b8185602086016124b1565b80840191505092915050565b60006132a38285613266565b91506132af8284613266565b91508190509392505050565b7f4f6e6c79206f776e65722063616e20736574206120746f6b656e20666f72207360008201527f616c652100000000000000000000000000000000000000000000000000000000602082015250565b60006133176024836124a0565b9150613322826132bb565b604082019050919050565b600060208201905081810360008301526133468161330a565b9050919050565b7f546f6b656e20646f6573206e6f74206578697374000000000000000000000000600082015250565b60006133836014836124a0565b915061338e8261334d565b602082019050919050565b600060208201905081810360008301526133b281613376565b9050919050565b7f546f6b656e20697320616c72656164792073657420746f206e6f7420666f722060008201527f73616c6500000000000000000000000000000000000000000000000000000000602082015250565b60006134156024836124a0565b9150613420826133b9565b604082019050919050565b6000602082019050818103600083015261344481613408565b9050919050565b7f4f6e6c7920746f6b656e206f776e65722063616e207365742076616c75650000600082015250565b6000613481601e836124a0565b915061348c8261344b565b602082019050919050565b600060208201905081810360008301526134b081613474565b9050919050565b7f4f776e61626c653a206e6577206f776e657220697320746865207a65726f206160008201527f6464726573730000000000000000000000000000000000000000000000000000602082015250565b60006135136026836124a0565b915061351e826134b7565b604082019050919050565b6000602082019050818103600083015261354281613506565b9050919050565b7f4552433732313a206f70657261746f7220717565727920666f72206e6f6e657860008201527f697374656e7420746f6b656e0000000000000000000000000000000000000000602082015250565b60006135a5602c836124a0565b91506135b082613549565b604082019050919050565b600060208201905081810360008301526135d481613598565b9050919050565b7f4552433732313a207472616e73666572206f6620746f6b656e2074686174206960008201527f73206e6f74206f776e0000000000000000000000000000000000000000000000602082015250565b60006136376029836124a0565b9150613642826135db565b604082019050919050565b600060208201905081810360008301526136668161362a565b9050919050565b7f4552433732313a207472616e7366657220746f20746865207a65726f2061646460008201527f7265737300000000000000000000000000000000000000000000000000000000602082015250565b60006136c96024836124a0565b91506136d48261366d565b604082019050919050565b600060208201905081810360008301526136f8816136bc565b9050919050565b7f4e487b7100000000000000000000000000000000000000000000000000000000600052601160045260246000fd5b600061373982612550565b915061374483612550565b925082821015613757576137566136ff565b5b828203905092915050565b600061376d82612550565b915061377883612550565b9250827fffffffffffffffffffffffffffffffffffffffffffffffffffffffffffffffff038211156137ad576137ac6136ff565b5b828201905092915050565b7f4552433732313a206d696e7420746f20746865207a65726f2061646472657373600082015250565b60006137ee6020836124a0565b91506137f9826137b8565b602082019050919050565b6000602082019050818103600083015261381d816137e1565b9050919050565b7f4552433732313a20746f6b656e20616c7265616479206d696e74656400000000600082015250565b600061385a601c836124a0565b915061386582613824565b602082019050919050565b600060208201905081810360008301526138898161384d565b9050919050565b7f45524337323155524953746f726167653a2055524920736574206f66206e6f6e60008201527f6578697374656e7420746f6b656e000000000000000000000000000000000000602082015250565b60006138ec602e836124a0565b91506138f782613890565b604082019050919050565b6000602082019050818103600083015261391b816138df565b9050919050565b7f4552433732313a20617070726f766520746f2063616c6c657200000000000000600082015250565b60006139586019836124a0565b915061396382613922565b602082019050919050565b600060208201905081810360008301526139878161394b565b9050919050565b7f4552433732313a207472616e7366657220746f206e6f6e20455243373231526560008201527f63656976657220696d706c656d656e7465720000000000000000000000000000602082015250565b60006139ea6032836124a0565b91506139f58261398e565b604082019050919050565b60006020820190508181036000830152613a19816139dd565b9050919050565b7f4552433732314d657461646174613a2055524920717565727920666f72206e6f60008201527f6e6578697374656e7420746f6b656e0000000000000000000000000000000000602082015250565b6000613a7c602f836124a0565b9150613a8782613a20565b604082019050919050565b60006020820190508181036000830152613aab81613a6f565b9050919050565b600081519050919050565b600082825260208201905092915050565b6000613ad982613ab2565b613ae38185613abd565b9350613af38185602086016124b1565b613afc816124e4565b840191505092915050565b6000608082019050613b1c60008301876125e5565b613b2960208301866125e5565b613b36604083018561273b565b8181036060830152613b488184613ace565b905095945050505050565b600081519050613b6281612406565b92915050565b600060208284031215613b7e57613b7d6123d0565b5b6000613b8c84828501613b53565b91505092915050565b6000613ba082612550565b91507fffffffffffffffffffffffffffffffffffffffffffffffffffffffffffffffff821415613bd357613bd26136ff565b5b600182019050919050565b7f4e487b7100000000000000000000000000000000000000000000000000000000600052601260045260246000fd5b6000613c1882612550565b9150613c2383612550565b925082613c3357613c32613bde565b5b828204905092915050565b6000613c4982612550565b9150613c5483612550565b925082613c6457613c63613bde565b5b828206905092915050565b7f4e487b7100000000000000000000000000000000000000000000000000000000600052603260045260246000fdfea26469706673582212208ef5b2ceeb2958cfafef799c8043c8d461fc1c8d945c8ad005fb94d9b9b624fb64736f6c634300080b0033",
  "immutableReferences": {},
  "source": "// SPDX-License-Identifier: MIT\npragma solidity ^0.8.0;\n\nimport \"@openzeppelin/contracts/utils/Counters.sol\";\nimport \"@openzeppelin/contracts/access/Ownable.sol\";\nimport \"@openzeppelin/contracts/token/ERC721/extensions/ERC721URIStorage.sol\";\n\ncontract OpenMarket is Ownable, ERC721URIStorage {\n    using Counters for Counters.Counter;\n    using Strings for uint256;\n\n    string private baseURI;\n    string private baseExtension = \".json\";\n\n    mapping(uint256 => bool) private _tokenForSale;\n    mapping(uint256 => uint256) private _tokenPrice;\n\n    Counters.Counter private _tokenIds;\n    mapping(string => bool) private _tokenExists;\n    uint256[] private totalTokens;\n\n    constructor(\n        string memory _initBaseURI,\n        string memory tokenName,\n        string memory tokenSymbol\n    ) ERC721(tokenName, tokenSymbol) {\n        setBaseURI(_initBaseURI);\n    }\n\n    function mint(string memory _tokenURI, string memory _setBaseURI)\n        public\n        returns (uint256)\n    {\n        _tokenIds.increment();\n        uint256 newItemId = _tokenIds.current();\n        totalTokens.push(newItemId);\n        _mint(msg.sender, newItemId);\n        _tokenForSale[newItemId] = false;\n        setBaseURI(_setBaseURI);\n        _setTokenURI(newItemId, _tokenURI);\n        return newItemId;\n    }\n\n    // function mintInBatch(uint256 noOfTokens) public {\n    //     for (uint256 i = 0; i < noOfTokens; i++) {\n    //         mint();\n    //     }\n    // }\n\n    function setBaseURI(string memory _newBaseURI) internal onlyOwner {\n        baseURI = _newBaseURI;\n    }\n\n    function _baseURI() internal view virtual override returns (string memory) {\n        return baseURI;\n    }\n\n    function setTokenForSale(uint256 tokenId, uint256 price) public {\n        require(_exists(tokenId), \"Token does not exist!\");\n        require(\n            ownerOf(tokenId) == _msgSender(),\n            \"Only owner can set a token for sale!\"\n        );\n        _tokenForSale[tokenId] = true;\n        _tokenPrice[tokenId] = price;\n    }\n\n    function changeTokenPrice(uint256 tokenId, uint256 price) public {\n        require(_exists(tokenId), \"Token does not exist!\");\n        require(\n            _tokenForSale[tokenId],\n            \"Token is not for sale, set it sale first!\"\n        );\n        require(\n            ownerOf(tokenId) == _msgSender(),\n            \"Only owner can set the value!\"\n        );\n        _tokenPrice[tokenId] = price;\n    }\n\n    function buyNFT(uint256 tokenId) public {\n        require(_tokenForSale[tokenId], \"Token is currently not for sale!\");\n        address owner = ownerOf(tokenId);\n        require(_msgSender() != address(0), \"Buyer address cannot be zero\");\n        require(_msgSender() != owner, \"Cannot buy owned NFT\");\n        _transfer(owner, _msgSender(), tokenId);\n        _tokenForSale[tokenId] = false;\n        emit Transfer(owner, _msgSender(), tokenId);\n    }\n\n    function removeTokenFromSale(uint256 tokenId) public {\n        require(_exists(tokenId), \"Token does not exist\");\n        require(_tokenForSale[tokenId], \"Token is already set to not for sale\");\n        require(\n            ownerOf(tokenId) == _msgSender(),\n            \"Only token owner can set value\"\n        );\n        _tokenForSale[tokenId] = false;\n    }\n\n    function isTokenForSale(uint256 tokenId) public view returns (bool) {\n        return _tokenForSale[tokenId];\n    }\n\n    function getTokenPrice(uint256 tokenId) public view returns (uint256) {\n        return _tokenPrice[tokenId];\n    }\n}\n",
  "sourcePath": "/home/sachin.sharma1/Kelltontech/Project/NFT-MARKETPLACE/src/contracts/OpenMarket.sol",
  "compiler": {
    "name": "solc",
    "version": "0.8.11+commit.d7f03943.Emscripten.clang"
  },
  "schemaVersion": "3.4.4",
  "updatedAt": "2022-01-03T09:38:32.307Z",
  "networkType": "ethereum",
  "devdoc": {
    "kind": "dev",
    "methods": {
      "approve(address,uint256)": {
        "details": "See {IERC721-approve}."
      },
      "balanceOf(address)": {
        "details": "See {IERC721-balanceOf}."
      },
      "getApproved(uint256)": {
        "details": "See {IERC721-getApproved}."
      },
      "isApprovedForAll(address,address)": {
        "details": "See {IERC721-isApprovedForAll}."
      },
      "name()": {
        "details": "See {IERC721Metadata-name}."
      },
      "owner()": {
        "details": "Returns the address of the current owner."
      },
      "ownerOf(uint256)": {
        "details": "See {IERC721-ownerOf}."
      },
      "renounceOwnership()": {
        "details": "Leaves the contract without owner. It will not be possible to call `onlyOwner` functions anymore. Can only be called by the current owner. NOTE: Renouncing ownership will leave the contract without an owner, thereby removing any functionality that is only available to the owner."
      },
      "safeTransferFrom(address,address,uint256)": {
        "details": "See {IERC721-safeTransferFrom}."
      },
      "safeTransferFrom(address,address,uint256,bytes)": {
        "details": "See {IERC721-safeTransferFrom}."
      },
      "setApprovalForAll(address,bool)": {
        "details": "See {IERC721-setApprovalForAll}."
      },
      "supportsInterface(bytes4)": {
        "details": "See {IERC165-supportsInterface}."
      },
      "symbol()": {
        "details": "See {IERC721Metadata-symbol}."
      },
      "tokenURI(uint256)": {
        "details": "See {IERC721Metadata-tokenURI}."
      },
      "transferFrom(address,address,uint256)": {
        "details": "See {IERC721-transferFrom}."
      },
      "transferOwnership(address)": {
        "details": "Transfers ownership of the contract to a new account (`newOwner`). Can only be called by the current owner."
      }
    },
    "version": 1
  },
  "userdoc": {
    "kind": "user",
    "methods": {},
    "version": 1
  }
}