{
  "contractName": "OpenMarket",
  "abi": [
    {
      "inputs": [],
      "stateMutability": "nonpayable",
      "type": "constructor"
    },
    {
      "anonymous": false,
      "inputs": [
        {
          "indexed": true,
          "internalType": "address",
          "name": "owner",
          "type": "address"
        },
        {
          "indexed": true,
          "internalType": "address",
          "name": "approved",
          "type": "address"
        },
        {
          "indexed": true,
          "internalType": "uint256",
          "name": "tokenId",
          "type": "uint256"
        }
      ],
      "name": "Approval",
      "type": "event"
    },
    {
      "anonymous": false,
      "inputs": [
        {
          "indexed": true,
          "internalType": "address",
          "name": "owner",
          "type": "address"
        },
        {
          "indexed": true,
          "internalType": "address",
          "name": "operator",
          "type": "address"
        },
        {
          "indexed": false,
          "internalType": "bool",
          "name": "approved",
          "type": "bool"
        }
      ],
      "name": "ApprovalForAll",
      "type": "event"
    },
    {
      "anonymous": false,
      "inputs": [
        {
          "indexed": true,
          "internalType": "address",
          "name": "from",
          "type": "address"
        },
        {
          "indexed": true,
          "internalType": "address",
          "name": "to",
          "type": "address"
        },
        {
          "indexed": true,
          "internalType": "uint256",
          "name": "tokenId",
          "type": "uint256"
        }
      ],
      "name": "Transfer",
      "type": "event"
    },
    {
      "inputs": [
        {
          "internalType": "address",
          "name": "to",
          "type": "address"
        },
        {
          "internalType": "uint256",
          "name": "tokenId",
          "type": "uint256"
        }
      ],
      "name": "approve",
      "outputs": [],
      "stateMutability": "nonpayable",
      "type": "function"
    },
    {
      "inputs": [
        {
          "internalType": "address",
          "name": "owner",
          "type": "address"
        }
      ],
      "name": "balanceOf",
      "outputs": [
        {
          "internalType": "uint256",
          "name": "",
          "type": "uint256"
        }
      ],
      "stateMutability": "view",
      "type": "function",
      "constant": true
    },
    {
      "inputs": [
        {
          "internalType": "uint256",
          "name": "tokenId",
          "type": "uint256"
        }
      ],
      "name": "getApproved",
      "outputs": [
        {
          "internalType": "address",
          "name": "",
          "type": "address"
        }
      ],
      "stateMutability": "view",
      "type": "function",
      "constant": true
    },
    {
      "inputs": [
        {
          "internalType": "address",
          "name": "owner",
          "type": "address"
        },
        {
          "internalType": "address",
          "name": "operator",
          "type": "address"
        }
      ],
      "name": "isApprovedForAll",
      "outputs": [
        {
          "internalType": "bool",
          "name": "",
          "type": "bool"
        }
      ],
      "stateMutability": "view",
      "type": "function",
      "constant": true
    },
    {
      "inputs": [
        {
          "internalType": "uint256",
          "name": "",
          "type": "uint256"
        }
      ],
      "name": "kryptoBird",
      "outputs": [
        {
          "internalType": "string",
          "name": "",
          "type": "string"
        }
      ],
      "stateMutability": "view",
      "type": "function",
      "constant": true
    },
    {
      "inputs": [],
      "name": "name",
      "outputs": [
        {
          "internalType": "string",
          "name": "",
          "type": "string"
        }
      ],
      "stateMutability": "view",
      "type": "function",
      "constant": true
    },
    {
      "inputs": [
        {
          "internalType": "uint256",
          "name": "tokenId",
          "type": "uint256"
        }
      ],
      "name": "ownerOf",
      "outputs": [
        {
          "internalType": "address",
          "name": "",
          "type": "address"
        }
      ],
      "stateMutability": "view",
      "type": "function",
      "constant": true
    },
    {
      "inputs": [
        {
          "internalType": "address",
          "name": "from",
          "type": "address"
        },
        {
          "internalType": "address",
          "name": "to",
          "type": "address"
        },
        {
          "internalType": "uint256",
          "name": "tokenId",
          "type": "uint256"
        }
      ],
      "name": "safeTransferFrom",
      "outputs": [],
      "stateMutability": "nonpayable",
      "type": "function"
    },
    {
      "inputs": [
        {
          "internalType": "address",
          "name": "from",
          "type": "address"
        },
        {
          "internalType": "address",
          "name": "to",
          "type": "address"
        },
        {
          "internalType": "uint256",
          "name": "tokenId",
          "type": "uint256"
        },
        {
          "internalType": "bytes",
          "name": "_data",
          "type": "bytes"
        }
      ],
      "name": "safeTransferFrom",
      "outputs": [],
      "stateMutability": "nonpayable",
      "type": "function"
    },
    {
      "inputs": [
        {
          "internalType": "address",
          "name": "operator",
          "type": "address"
        },
        {
          "internalType": "bool",
          "name": "approved",
          "type": "bool"
        }
      ],
      "name": "setApprovalForAll",
      "outputs": [],
      "stateMutability": "nonpayable",
      "type": "function"
    },
    {
      "inputs": [
        {
          "internalType": "bytes4",
          "name": "interfaceId",
          "type": "bytes4"
        }
      ],
      "name": "supportsInterface",
      "outputs": [
        {
          "internalType": "bool",
          "name": "",
          "type": "bool"
        }
      ],
      "stateMutability": "view",
      "type": "function",
      "constant": true
    },
    {
      "inputs": [],
      "name": "symbol",
      "outputs": [
        {
          "internalType": "string",
          "name": "",
          "type": "string"
        }
      ],
      "stateMutability": "view",
      "type": "function",
      "constant": true
    },
    {
      "inputs": [
        {
          "internalType": "uint256",
          "name": "tokenId",
          "type": "uint256"
        }
      ],
      "name": "tokenURI",
      "outputs": [
        {
          "internalType": "string",
          "name": "",
          "type": "string"
        }
      ],
      "stateMutability": "view",
      "type": "function",
      "constant": true
    },
    {
      "inputs": [
        {
          "internalType": "address",
          "name": "from",
          "type": "address"
        },
        {
          "internalType": "address",
          "name": "to",
          "type": "address"
        },
        {
          "internalType": "uint256",
          "name": "tokenId",
          "type": "uint256"
        }
      ],
      "name": "transferFrom",
      "outputs": [],
      "stateMutability": "nonpayable",
      "type": "function"
    },
    {
      "inputs": [
        {
          "internalType": "string",
          "name": "_kryptoBird",
          "type": "string"
        }
      ],
      "name": "mint",
      "outputs": [],
      "stateMutability": "nonpayable",
      "type": "function"
    }
  ],
  "bytecode": "0x60806040523480156200001157600080fd5b506040518060400160405280600a81526020017f6b727970746f42697264000000000000000000000000000000000000000000008152506040518060400160405280600281526020017f4b4e000000000000000000000000000000000000000000000000000000000000815250816000908051906020019062000096929190620000b8565b508060019080519060200190620000af929190620000b8565b505050620001cd565b828054620000c69062000197565b90600052602060002090601f016020900481019282620000ea576000855562000136565b82601f106200010557805160ff191683800117855562000136565b8280016001018555821562000136579182015b828111156200013557825182559160200191906001019062000118565b5b50905062000145919062000149565b5090565b5b80821115620001645760008160009055506001016200014a565b5090565b7f4e487b7100000000000000000000000000000000000000000000000000000000600052602260045260246000fd5b60006002820490506001821680620001b057607f821691505b60208210811415620001c757620001c662000168565b5b50919050565b612a9680620001dd6000396000f3fe608060405234801561001057600080fd5b50600436106100f55760003560e01c80636352211e11610097578063b88d4fde11610066578063b88d4fde14610296578063c87b56dd146102b2578063d85d3d27146102e2578063e985e9c5146102fe576100f5565b80636352211e146101fc57806370a082311461022c57806395d89b411461025c578063a22cb4651461027a576100f5565b8063081812fc116100d3578063081812fc14610178578063095ea7b3146101a857806323b872dd146101c457806342842e0e146101e0576100f5565b806301ffc9a7146100fa578063057e4ee61461012a57806306fdde031461015a575b600080fd5b610114600480360381019061010f91906118ac565b61032e565b60405161012191906118f4565b60405180910390f35b610144600480360381019061013f9190611945565b610410565b6040516101519190611a0b565b60405180910390f35b6101626104bc565b60405161016f9190611a0b565b60405180910390f35b610192600480360381019061018d9190611945565b61054e565b60405161019f9190611a6e565b60405180910390f35b6101c260048036038101906101bd9190611ab5565b6105d3565b005b6101de60048036038101906101d99190611af5565b6106eb565b005b6101fa60048036038101906101f59190611af5565b61074b565b005b61021660048036038101906102119190611945565b61076b565b6040516102239190611a6e565b60405180910390f35b61024660048036038101906102419190611b48565b61081d565b6040516102539190611b84565b60405180910390f35b6102646108d5565b6040516102719190611a0b565b60405180910390f35b610294600480360381019061028f9190611bcb565b610967565b005b6102b060048036038101906102ab9190611d40565b61097d565b005b6102cc60048036038101906102c79190611945565b6109df565b6040516102d99190611a0b565b60405180910390f35b6102fc60048036038101906102f79190611e64565b610a86565b005b61031860048036038101906103139190611ead565b610b89565b60405161032591906118f4565b60405180910390f35b60007f80ac58cd000000000000000000000000000000000000000000000000000000007bffffffffffffffffffffffffffffffffffffffffffffffffffffffff1916827bffffffffffffffffffffffffffffffffffffffffffffffffffffffff191614806103f957507f5b5e139f000000000000000000000000000000000000000000000000000000007bffffffffffffffffffffffffffffffffffffffffffffffffffffffff1916827bffffffffffffffffffffffffffffffffffffffffffffffffffffffff1916145b80610409575061040882610c1d565b5b9050919050565b6006818154811061042057600080fd5b90600052602060002001600091509050805461043b90611f1c565b80601f016020809104026020016040519081016040528092919081815260200182805461046790611f1c565b80156104b45780601f10610489576101008083540402835291602001916104b4565b820191906000526020600020905b81548152906001019060200180831161049757829003601f168201915b505050505081565b6060600080546104cb90611f1c565b80601f01602080910402602001604051908101604052809291908181526020018280546104f790611f1c565b80156105445780601f1061051957610100808354040283529160200191610544565b820191906000526020600020905b81548152906001019060200180831161052757829003601f168201915b5050505050905090565b600061055982610c87565b610598576040517f08c379a000000000000000000000000000000000000000000000000000000000815260040161058f90611fc0565b60405180910390fd5b6004600083815260200190815260200160002060009054906101000a900473ffffffffffffffffffffffffffffffffffffffff169050919050565b60006105de8261076b565b90508073ffffffffffffffffffffffffffffffffffffffff168373ffffffffffffffffffffffffffffffffffffffff16141561064f576040517f08c379a000000000000000000000000000000000000000000000000000000000815260040161064690612052565b60405180910390fd5b8073ffffffffffffffffffffffffffffffffffffffff1661066e610cf3565b73ffffffffffffffffffffffffffffffffffffffff16148061069d575061069c81610697610cf3565b610b89565b5b6106dc576040517f08c379a00000000000000000000000000000000000000000000000000000000081526004016106d3906120e4565b60405180910390fd5b6106e68383610cfb565b505050565b6106fc6106f6610cf3565b82610db4565b61073b576040517f08c379a000000000000000000000000000000000000000000000000000000000815260040161073290612176565b60405180910390fd5b610746838383610e92565b505050565b6107668383836040518060200160405280600081525061097d565b505050565b6000806002600084815260200190815260200160002060009054906101000a900473ffffffffffffffffffffffffffffffffffffffff169050600073ffffffffffffffffffffffffffffffffffffffff168173ffffffffffffffffffffffffffffffffffffffff161415610814576040517f08c379a000000000000000000000000000000000000000000000000000000000815260040161080b90612208565b60405180910390fd5b80915050919050565b60008073ffffffffffffffffffffffffffffffffffffffff168273ffffffffffffffffffffffffffffffffffffffff16141561088e576040517f08c379a00000000000000000000000000000000000000000000000000000000081526004016108859061229a565b60405180910390fd5b600360008373ffffffffffffffffffffffffffffffffffffffff1673ffffffffffffffffffffffffffffffffffffffff168152602001908152602001600020549050919050565b6060600180546108e490611f1c565b80601f016020809104026020016040519081016040528092919081815260200182805461091090611f1c565b801561095d5780601f106109325761010080835404028352916020019161095d565b820191906000526020600020905b81548152906001019060200180831161094057829003601f168201915b5050505050905090565b610979610972610cf3565b83836110ee565b5050565b61098e610988610cf3565b83610db4565b6109cd576040517f08c379a00000000000000000000000000000000000000000000000000000000081526004016109c490612176565b60405180910390fd5b6109d98484848461125b565b50505050565b60606109ea82610c87565b610a29576040517f08c379a0000000000000000000000000000000000000000000000000000000008152600401610a209061232c565b60405180910390fd5b6000610a336112b7565b90506000815111610a535760405180602001604052806000815250610a7e565b80610a5d846112ce565b604051602001610a6e929190612388565b6040516020818303038152906040525b915050919050565b600781604051610a9691906123ac565b908152602001604051809103902060009054906101000a900460ff1615610af2576040517f08c379a0000000000000000000000000000000000000000000000000000000008152600401610ae99061240f565b60405180910390fd5b600681908060018154018082558091505060019003906000526020600020016000909190919091509080519060200190610b2d92919061179d565b5060006001600680549050610b42919061245e565b9050610b4e338261142f565b6001600783604051610b6091906123ac565b908152602001604051809103902060006101000a81548160ff0219169083151502179055505050565b6000600560008473ffffffffffffffffffffffffffffffffffffffff1673ffffffffffffffffffffffffffffffffffffffff16815260200190815260200160002060008373ffffffffffffffffffffffffffffffffffffffff1673ffffffffffffffffffffffffffffffffffffffff16815260200190815260200160002060009054906101000a900460ff16905092915050565b60007f01ffc9a7000000000000000000000000000000000000000000000000000000007bffffffffffffffffffffffffffffffffffffffffffffffffffffffff1916827bffffffffffffffffffffffffffffffffffffffffffffffffffffffff1916149050919050565b60008073ffffffffffffffffffffffffffffffffffffffff166002600084815260200190815260200160002060009054906101000a900473ffffffffffffffffffffffffffffffffffffffff1673ffffffffffffffffffffffffffffffffffffffff1614159050919050565b600033905090565b816004600083815260200190815260200160002060006101000a81548173ffffffffffffffffffffffffffffffffffffffff021916908373ffffffffffffffffffffffffffffffffffffffff160217905550808273ffffffffffffffffffffffffffffffffffffffff16610d6e8361076b565b73ffffffffffffffffffffffffffffffffffffffff167f8c5be1e5ebec7d5bd14f71427d1e84f3dd0314c0f7b2291e5b200ac8c7c3b92560405160405180910390a45050565b6000610dbf82610c87565b610dfe576040517f08c379a0000000000000000000000000000000000000000000000000000000008152600401610df590612504565b60405180910390fd5b6000610e098361076b565b90508073ffffffffffffffffffffffffffffffffffffffff168473ffffffffffffffffffffffffffffffffffffffff161480610e7857508373ffffffffffffffffffffffffffffffffffffffff16610e608461054e565b73ffffffffffffffffffffffffffffffffffffffff16145b80610e895750610e888185610b89565b5b91505092915050565b8273ffffffffffffffffffffffffffffffffffffffff16610eb28261076b565b73ffffffffffffffffffffffffffffffffffffffff1614610f08576040517f08c379a0000000000000000000000000000000000000000000000000000000008152600401610eff90612596565b60405180910390fd5b600073ffffffffffffffffffffffffffffffffffffffff168273ffffffffffffffffffffffffffffffffffffffff161415610f78576040517f08c379a0000000000000000000000000000000000000000000000000000000008152600401610f6f90612628565b60405180910390fd5b610f838383836115fd565b610f8e600082610cfb565b6001600360008573ffffffffffffffffffffffffffffffffffffffff1673ffffffffffffffffffffffffffffffffffffffff1681526020019081526020016000206000828254610fde919061245e565b925050819055506001600360008473ffffffffffffffffffffffffffffffffffffffff1673ffffffffffffffffffffffffffffffffffffffff16815260200190815260200160002060008282546110359190612648565b92505081905550816002600083815260200190815260200160002060006101000a81548173ffffffffffffffffffffffffffffffffffffffff021916908373ffffffffffffffffffffffffffffffffffffffff160217905550808273ffffffffffffffffffffffffffffffffffffffff168473ffffffffffffffffffffffffffffffffffffffff167fddf252ad1be2c89b69c2b068fc378daa952ba7f163c4a11628f55a4df523b3ef60405160405180910390a4505050565b8173ffffffffffffffffffffffffffffffffffffffff168373ffffffffffffffffffffffffffffffffffffffff16141561115d576040517f08c379a0000000000000000000000000000000000000000000000000000000008152600401611154906126ea565b60405180910390fd5b80600560008573ffffffffffffffffffffffffffffffffffffffff1673ffffffffffffffffffffffffffffffffffffffff16815260200190815260200160002060008473ffffffffffffffffffffffffffffffffffffffff1673ffffffffffffffffffffffffffffffffffffffff16815260200190815260200160002060006101000a81548160ff0219169083151502179055508173ffffffffffffffffffffffffffffffffffffffff168373ffffffffffffffffffffffffffffffffffffffff167f17307eab39ab6107e8899845ad3d59bd9653f200f220920489ca2b5937696c318360405161124e91906118f4565b60405180910390a3505050565b611266848484610e92565b61127284848484611602565b6112b1576040517f08c379a00000000000000000000000000000000000000000000000000000000081526004016112a89061277c565b60405180910390fd5b50505050565b606060405180602001604052806000815250905090565b60606000821415611316576040518060400160405280600181526020017f3000000000000000000000000000000000000000000000000000000000000000815250905061142a565b600082905060005b600082146113485780806113319061279c565b915050600a826113419190612814565b915061131e565b60008167ffffffffffffffff81111561136457611363611c15565b5b6040519080825280601f01601f1916602001820160405280156113965781602001600182028036833780820191505090505b5090505b60008514611423576001826113af919061245e565b9150600a856113be9190612845565b60306113ca9190612648565b60f81b8183815181106113e0576113df612876565b5b60200101907effffffffffffffffffffffffffffffffffffffffffffffffffffffffffffff1916908160001a905350600a8561141c9190612814565b945061139a565b8093505050505b919050565b600073ffffffffffffffffffffffffffffffffffffffff168273ffffffffffffffffffffffffffffffffffffffff16141561149f576040517f08c379a0000000000000000000000000000000000000000000000000000000008152600401611496906128f1565b60405180910390fd5b6114a881610c87565b156114e8576040517f08c379a00000000000000000000000000000000000000000000000000000000081526004016114df9061295d565b60405180910390fd5b6114f4600083836115fd565b6001600360008473ffffffffffffffffffffffffffffffffffffffff1673ffffffffffffffffffffffffffffffffffffffff16815260200190815260200160002060008282546115449190612648565b92505081905550816002600083815260200190815260200160002060006101000a81548173ffffffffffffffffffffffffffffffffffffffff021916908373ffffffffffffffffffffffffffffffffffffffff160217905550808273ffffffffffffffffffffffffffffffffffffffff16600073ffffffffffffffffffffffffffffffffffffffff167fddf252ad1be2c89b69c2b068fc378daa952ba7f163c4a11628f55a4df523b3ef60405160405180910390a45050565b505050565b60006116238473ffffffffffffffffffffffffffffffffffffffff1661178a565b1561177d578373ffffffffffffffffffffffffffffffffffffffff1663150b7a0261164c610cf3565b8786866040518563ffffffff1660e01b815260040161166e94939291906129d2565b6020604051808303816000875af19250505080156116aa57506040513d601f19601f820116820180604052508101906116a79190612a33565b60015b61172d573d80600081146116da576040519150601f19603f3d011682016040523d82523d6000602084013e6116df565b606091505b50600081511415611725576040517f08c379a000000000000000000000000000000000000000000000000000000000815260040161171c9061277c565b60405180910390fd5b805181602001fd5b63150b7a0260e01b7bffffffffffffffffffffffffffffffffffffffffffffffffffffffff1916817bffffffffffffffffffffffffffffffffffffffffffffffffffffffff191614915050611782565b600190505b949350505050565b600080823b905060008111915050919050565b8280546117a990611f1c565b90600052602060002090601f0160209004810192826117cb5760008555611812565b82601f106117e457805160ff1916838001178555611812565b82800160010185558215611812579182015b828111156118115782518255916020019190600101906117f6565b5b50905061181f9190611823565b5090565b5b8082111561183c576000816000905550600101611824565b5090565b6000604051905090565b600080fd5b600080fd5b60007fffffffff0000000000000000000000000000000000000000000000000000000082169050919050565b61188981611854565b811461189457600080fd5b50565b6000813590506118a681611880565b92915050565b6000602082840312156118c2576118c161184a565b5b60006118d084828501611897565b91505092915050565b60008115159050919050565b6118ee816118d9565b82525050565b600060208201905061190960008301846118e5565b92915050565b6000819050919050565b6119228161190f565b811461192d57600080fd5b50565b60008135905061193f81611919565b92915050565b60006020828403121561195b5761195a61184a565b5b600061196984828501611930565b91505092915050565b600081519050919050565b600082825260208201905092915050565b60005b838110156119ac578082015181840152602081019050611991565b838111156119bb576000848401525b50505050565b6000601f19601f8301169050919050565b60006119dd82611972565b6119e7818561197d565b93506119f781856020860161198e565b611a00816119c1565b840191505092915050565b60006020820190508181036000830152611a2581846119d2565b905092915050565b600073ffffffffffffffffffffffffffffffffffffffff82169050919050565b6000611a5882611a2d565b9050919050565b611a6881611a4d565b82525050565b6000602082019050611a836000830184611a5f565b92915050565b611a9281611a4d565b8114611a9d57600080fd5b50565b600081359050611aaf81611a89565b92915050565b60008060408385031215611acc57611acb61184a565b5b6000611ada85828601611aa0565b9250506020611aeb85828601611930565b9150509250929050565b600080600060608486031215611b0e57611b0d61184a565b5b6000611b1c86828701611aa0565b9350506020611b2d86828701611aa0565b9250506040611b3e86828701611930565b9150509250925092565b600060208284031215611b5e57611b5d61184a565b5b6000611b6c84828501611aa0565b91505092915050565b611b7e8161190f565b82525050565b6000602082019050611b996000830184611b75565b92915050565b611ba8816118d9565b8114611bb357600080fd5b50565b600081359050611bc581611b9f565b92915050565b60008060408385031215611be257611be161184a565b5b6000611bf085828601611aa0565b9250506020611c0185828601611bb6565b9150509250929050565b600080fd5b600080fd5b7f4e487b7100000000000000000000000000000000000000000000000000000000600052604160045260246000fd5b611c4d826119c1565b810181811067ffffffffffffffff82111715611c6c57611c6b611c15565b5b80604052505050565b6000611c7f611840565b9050611c8b8282611c44565b919050565b600067ffffffffffffffff821115611cab57611caa611c15565b5b611cb4826119c1565b9050602081019050919050565b82818337600083830152505050565b6000611ce3611cde84611c90565b611c75565b905082815260208101848484011115611cff57611cfe611c10565b5b611d0a848285611cc1565b509392505050565b600082601f830112611d2757611d26611c0b565b5b8135611d37848260208601611cd0565b91505092915050565b60008060008060808587031215611d5a57611d5961184a565b5b6000611d6887828801611aa0565b9450506020611d7987828801611aa0565b9350506040611d8a87828801611930565b925050606085013567ffffffffffffffff811115611dab57611daa61184f565b5b611db787828801611d12565b91505092959194509250565b600067ffffffffffffffff821115611dde57611ddd611c15565b5b611de7826119c1565b9050602081019050919050565b6000611e07611e0284611dc3565b611c75565b905082815260208101848484011115611e2357611e22611c10565b5b611e2e848285611cc1565b509392505050565b600082601f830112611e4b57611e4a611c0b565b5b8135611e5b848260208601611df4565b91505092915050565b600060208284031215611e7a57611e7961184a565b5b600082013567ffffffffffffffff811115611e9857611e9761184f565b5b611ea484828501611e36565b91505092915050565b60008060408385031215611ec457611ec361184a565b5b6000611ed285828601611aa0565b9250506020611ee385828601611aa0565b9150509250929050565b7f4e487b7100000000000000000000000000000000000000000000000000000000600052602260045260246000fd5b60006002820490506001821680611f3457607f821691505b60208210811415611f4857611f47611eed565b5b50919050565b7f4552433732313a20617070726f76656420717565727920666f72206e6f6e657860008201527f697374656e7420746f6b656e0000000000000000000000000000000000000000602082015250565b6000611faa602c8361197d565b9150611fb582611f4e565b604082019050919050565b60006020820190508181036000830152611fd981611f9d565b9050919050565b7f4552433732313a20617070726f76616c20746f2063757272656e74206f776e6560008201527f7200000000000000000000000000000000000000000000000000000000000000602082015250565b600061203c60218361197d565b915061204782611fe0565b604082019050919050565b6000602082019050818103600083015261206b8161202f565b9050919050565b7f4552433732313a20617070726f76652063616c6c6572206973206e6f74206f7760008201527f6e6572206e6f7220617070726f76656420666f7220616c6c0000000000000000602082015250565b60006120ce60388361197d565b91506120d982612072565b604082019050919050565b600060208201905081810360008301526120fd816120c1565b9050919050565b7f4552433732313a207472616e736665722063616c6c6572206973206e6f74206f60008201527f776e6572206e6f7220617070726f766564000000000000000000000000000000602082015250565b600061216060318361197d565b915061216b82612104565b604082019050919050565b6000602082019050818103600083015261218f81612153565b9050919050565b7f4552433732313a206f776e657220717565727920666f72206e6f6e657869737460008201527f656e7420746f6b656e0000000000000000000000000000000000000000000000602082015250565b60006121f260298361197d565b91506121fd82612196565b604082019050919050565b60006020820190508181036000830152612221816121e5565b9050919050565b7f4552433732313a2062616c616e636520717565727920666f7220746865207a6560008201527f726f206164647265737300000000000000000000000000000000000000000000602082015250565b6000612284602a8361197d565b915061228f82612228565b604082019050919050565b600060208201905081810360008301526122b381612277565b9050919050565b7f4552433732314d657461646174613a2055524920717565727920666f72206e6f60008201527f6e6578697374656e7420746f6b656e0000000000000000000000000000000000602082015250565b6000612316602f8361197d565b9150612321826122ba565b604082019050919050565b6000602082019050818103600083015261234581612309565b9050919050565b600081905092915050565b600061236282611972565b61236c818561234c565b935061237c81856020860161198e565b80840191505092915050565b60006123948285612357565b91506123a08284612357565b91508190509392505050565b60006123b88284612357565b915081905092915050565b7f4572726f722d6b727970746f4269726420616c72656164792065786973747300600082015250565b60006123f9601f8361197d565b9150612404826123c3565b602082019050919050565b60006020820190508181036000830152612428816123ec565b9050919050565b7f4e487b7100000000000000000000000000000000000000000000000000000000600052601160045260246000fd5b60006124698261190f565b91506124748361190f565b9250828210156124875761248661242f565b5b828203905092915050565b7f4552433732313a206f70657261746f7220717565727920666f72206e6f6e657860008201527f697374656e7420746f6b656e0000000000000000000000000000000000000000602082015250565b60006124ee602c8361197d565b91506124f982612492565b604082019050919050565b6000602082019050818103600083015261251d816124e1565b9050919050565b7f4552433732313a207472616e73666572206f6620746f6b656e2074686174206960008201527f73206e6f74206f776e0000000000000000000000000000000000000000000000602082015250565b600061258060298361197d565b915061258b82612524565b604082019050919050565b600060208201905081810360008301526125af81612573565b9050919050565b7f4552433732313a207472616e7366657220746f20746865207a65726f2061646460008201527f7265737300000000000000000000000000000000000000000000000000000000602082015250565b600061261260248361197d565b915061261d826125b6565b604082019050919050565b6000602082019050818103600083015261264181612605565b9050919050565b60006126538261190f565b915061265e8361190f565b9250827fffffffffffffffffffffffffffffffffffffffffffffffffffffffffffffffff038211156126935761269261242f565b5b828201905092915050565b7f4552433732313a20617070726f766520746f2063616c6c657200000000000000600082015250565b60006126d460198361197d565b91506126df8261269e565b602082019050919050565b60006020820190508181036000830152612703816126c7565b9050919050565b7f4552433732313a207472616e7366657220746f206e6f6e20455243373231526560008201527f63656976657220696d706c656d656e7465720000000000000000000000000000602082015250565b600061276660328361197d565b91506127718261270a565b604082019050919050565b6000602082019050818103600083015261279581612759565b9050919050565b60006127a78261190f565b91507fffffffffffffffffffffffffffffffffffffffffffffffffffffffffffffffff8214156127da576127d961242f565b5b600182019050919050565b7f4e487b7100000000000000000000000000000000000000000000000000000000600052601260045260246000fd5b600061281f8261190f565b915061282a8361190f565b92508261283a576128396127e5565b5b828204905092915050565b60006128508261190f565b915061285b8361190f565b92508261286b5761286a6127e5565b5b828206905092915050565b7f4e487b7100000000000000000000000000000000000000000000000000000000600052603260045260246000fd5b7f4552433732313a206d696e7420746f20746865207a65726f2061646472657373600082015250565b60006128db60208361197d565b91506128e6826128a5565b602082019050919050565b6000602082019050818103600083015261290a816128ce565b9050919050565b7f4552433732313a20746f6b656e20616c7265616479206d696e74656400000000600082015250565b6000612947601c8361197d565b915061295282612911565b602082019050919050565b600060208201905081810360008301526129768161293a565b9050919050565b600081519050919050565b600082825260208201905092915050565b60006129a48261297d565b6129ae8185612988565b93506129be81856020860161198e565b6129c7816119c1565b840191505092915050565b60006080820190506129e76000830187611a5f565b6129f46020830186611a5f565b612a016040830185611b75565b8181036060830152612a138184612999565b905095945050505050565b600081519050612a2d81611880565b92915050565b600060208284031215612a4957612a4861184a565b5b6000612a5784828501612a1e565b9150509291505056fea2646970667358221220648c9f1677a6cb7b2b991f0a01d9aa8a0cef6fd839ea51aa8a08cb11f223d43764736f6c634300080b0033",
  "immutableReferences": {},
  "source": "// SPDX-License-Identifier: MIT\r\npragma solidity ^0.8.0;\r\n\r\nimport \"@openzeppelin/contracts/token/ERC721/ERC721.sol\";\r\n\r\ncontract OpenMarket is ERC721 {\r\n    constructor() ERC721(\"kryptoBird\", \"KN\"){}\r\n\r\n\r\n\r\n     string[] public kryptoBird ;\r\n    \r\n    //to check if the same cryptoBirdz should not be minted again.\r\n\r\n    mapping(string=>bool) _kryptoBirdzExists;\r\n\r\n    function mint(string memory _kryptoBird) public {\r\n        require(! _kryptoBirdzExists[_kryptoBird],'Error-kryptoBird already exists');\r\n         kryptoBird.push(_kryptoBird);\r\n         uint  _id =  kryptoBird.length - 1 ;\r\n\r\n         _mint(msg.sender ,_id);\r\n          _kryptoBirdzExists[_kryptoBird]=true;\r\n\r\n    }\r\n\r\n\r\n}\r\n\r\n",
  "sourcePath": "C:\\Users\\HP\\Desktop\\MYNFT\\NFT-MARKETPLACE\\src\\contracts\\OpenMarket.sol",
  "compiler": {
    "name": "solc",
    "version": "0.8.11+commit.d7f03943.Emscripten.clang"
  },
  "schemaVersion": "3.4.4",
  "updatedAt": "2021-12-22T11:26:10.759Z",
  "networkType": "ethereum",
  "devdoc": {
    "kind": "dev",
    "methods": {
      "approve(address,uint256)": {
        "details": "See {IERC721-approve}."
      },
      "balanceOf(address)": {
        "details": "See {IERC721-balanceOf}."
      },
      "getApproved(uint256)": {
        "details": "See {IERC721-getApproved}."
      },
      "isApprovedForAll(address,address)": {
        "details": "See {IERC721-isApprovedForAll}."
      },
      "name()": {
        "details": "See {IERC721Metadata-name}."
      },
      "ownerOf(uint256)": {
        "details": "See {IERC721-ownerOf}."
      },
      "safeTransferFrom(address,address,uint256)": {
        "details": "See {IERC721-safeTransferFrom}."
      },
      "safeTransferFrom(address,address,uint256,bytes)": {
        "details": "See {IERC721-safeTransferFrom}."
      },
      "setApprovalForAll(address,bool)": {
        "details": "See {IERC721-setApprovalForAll}."
      },
      "supportsInterface(bytes4)": {
        "details": "See {IERC165-supportsInterface}."
      },
      "symbol()": {
        "details": "See {IERC721Metadata-symbol}."
      },
      "tokenURI(uint256)": {
        "details": "See {IERC721Metadata-tokenURI}."
      },
      "transferFrom(address,address,uint256)": {
        "details": "See {IERC721-transferFrom}."
      }
    },
    "version": 1
  },
  "userdoc": {
    "kind": "user",
    "methods": {},
    "version": 1
  }
}