{
  "contractName": "OpenMarket",
  "abi": [
    {
      "inputs": [
        {
          "internalType": "string",
          "name": "_initBaseURI",
          "type": "string"
        },
        {
          "internalType": "string",
          "name": "tokenName",
          "type": "string"
        },
        {
          "internalType": "string",
          "name": "tokenSymbol",
          "type": "string"
        }
      ],
      "stateMutability": "nonpayable",
      "type": "constructor"
    },
    {
      "anonymous": false,
      "inputs": [
        {
          "indexed": true,
          "internalType": "address",
          "name": "owner",
          "type": "address"
        },
        {
          "indexed": true,
          "internalType": "address",
          "name": "approved",
          "type": "address"
        },
        {
          "indexed": true,
          "internalType": "uint256",
          "name": "tokenId",
          "type": "uint256"
        }
      ],
      "name": "Approval",
      "type": "event"
    },
    {
      "anonymous": false,
      "inputs": [
        {
          "indexed": true,
          "internalType": "address",
          "name": "owner",
          "type": "address"
        },
        {
          "indexed": true,
          "internalType": "address",
          "name": "operator",
          "type": "address"
        },
        {
          "indexed": false,
          "internalType": "bool",
          "name": "approved",
          "type": "bool"
        }
      ],
      "name": "ApprovalForAll",
      "type": "event"
    },
    {
      "anonymous": false,
      "inputs": [
        {
          "indexed": true,
          "internalType": "address",
          "name": "previousOwner",
          "type": "address"
        },
        {
          "indexed": true,
          "internalType": "address",
          "name": "newOwner",
          "type": "address"
        }
      ],
      "name": "OwnershipTransferred",
      "type": "event"
    },
    {
      "anonymous": false,
      "inputs": [
        {
          "indexed": true,
          "internalType": "address",
          "name": "from",
          "type": "address"
        },
        {
          "indexed": true,
          "internalType": "address",
          "name": "to",
          "type": "address"
        },
        {
          "indexed": true,
          "internalType": "uint256",
          "name": "tokenId",
          "type": "uint256"
        }
      ],
      "name": "Transfer",
      "type": "event"
    },
    {
      "inputs": [
        {
          "internalType": "address",
          "name": "to",
          "type": "address"
        },
        {
          "internalType": "uint256",
          "name": "tokenId",
          "type": "uint256"
        }
      ],
      "name": "approve",
      "outputs": [],
      "stateMutability": "nonpayable",
      "type": "function"
    },
    {
      "inputs": [
        {
          "internalType": "address",
          "name": "owner",
          "type": "address"
        }
      ],
      "name": "balanceOf",
      "outputs": [
        {
          "internalType": "uint256",
          "name": "",
          "type": "uint256"
        }
      ],
      "stateMutability": "view",
      "type": "function",
      "constant": true
    },
    {
      "inputs": [
        {
          "internalType": "uint256",
          "name": "tokenId",
          "type": "uint256"
        }
      ],
      "name": "getApproved",
      "outputs": [
        {
          "internalType": "address",
          "name": "",
          "type": "address"
        }
      ],
      "stateMutability": "view",
      "type": "function",
      "constant": true
    },
    {
      "inputs": [
        {
          "internalType": "address",
          "name": "owner",
          "type": "address"
        },
        {
          "internalType": "address",
          "name": "operator",
          "type": "address"
        }
      ],
      "name": "isApprovedForAll",
      "outputs": [
        {
          "internalType": "bool",
          "name": "",
          "type": "bool"
        }
      ],
      "stateMutability": "view",
      "type": "function",
      "constant": true
    },
    {
      "inputs": [],
      "name": "name",
      "outputs": [
        {
          "internalType": "string",
          "name": "",
          "type": "string"
        }
      ],
      "stateMutability": "view",
      "type": "function",
      "constant": true
    },
    {
      "inputs": [],
      "name": "owner",
      "outputs": [
        {
          "internalType": "address",
          "name": "",
          "type": "address"
        }
      ],
      "stateMutability": "view",
      "type": "function",
      "constant": true
    },
    {
      "inputs": [
        {
          "internalType": "uint256",
          "name": "tokenId",
          "type": "uint256"
        }
      ],
      "name": "ownerOf",
      "outputs": [
        {
          "internalType": "address",
          "name": "",
          "type": "address"
        }
      ],
      "stateMutability": "view",
      "type": "function",
      "constant": true
    },
    {
      "inputs": [],
      "name": "renounceOwnership",
      "outputs": [],
      "stateMutability": "nonpayable",
      "type": "function"
    },
    {
      "inputs": [
        {
          "internalType": "address",
          "name": "from",
          "type": "address"
        },
        {
          "internalType": "address",
          "name": "to",
          "type": "address"
        },
        {
          "internalType": "uint256",
          "name": "tokenId",
          "type": "uint256"
        }
      ],
      "name": "safeTransferFrom",
      "outputs": [],
      "stateMutability": "nonpayable",
      "type": "function"
    },
    {
      "inputs": [
        {
          "internalType": "address",
          "name": "from",
          "type": "address"
        },
        {
          "internalType": "address",
          "name": "to",
          "type": "address"
        },
        {
          "internalType": "uint256",
          "name": "tokenId",
          "type": "uint256"
        },
        {
          "internalType": "bytes",
          "name": "_data",
          "type": "bytes"
        }
      ],
      "name": "safeTransferFrom",
      "outputs": [],
      "stateMutability": "nonpayable",
      "type": "function"
    },
    {
      "inputs": [
        {
          "internalType": "address",
          "name": "operator",
          "type": "address"
        },
        {
          "internalType": "bool",
          "name": "approved",
          "type": "bool"
        }
      ],
      "name": "setApprovalForAll",
      "outputs": [],
      "stateMutability": "nonpayable",
      "type": "function"
    },
    {
      "inputs": [
        {
          "internalType": "bytes4",
          "name": "interfaceId",
          "type": "bytes4"
        }
      ],
      "name": "supportsInterface",
      "outputs": [
        {
          "internalType": "bool",
          "name": "",
          "type": "bool"
        }
      ],
      "stateMutability": "view",
      "type": "function",
      "constant": true
    },
    {
      "inputs": [],
      "name": "symbol",
      "outputs": [
        {
          "internalType": "string",
          "name": "",
          "type": "string"
        }
      ],
      "stateMutability": "view",
      "type": "function",
      "constant": true
    },
    {
      "inputs": [
        {
          "internalType": "address",
          "name": "from",
          "type": "address"
        },
        {
          "internalType": "address",
          "name": "to",
          "type": "address"
        },
        {
          "internalType": "uint256",
          "name": "tokenId",
          "type": "uint256"
        }
      ],
      "name": "transferFrom",
      "outputs": [],
      "stateMutability": "nonpayable",
      "type": "function"
    },
    {
      "inputs": [
        {
          "internalType": "address",
          "name": "newOwner",
          "type": "address"
        }
      ],
      "name": "transferOwnership",
      "outputs": [],
      "stateMutability": "nonpayable",
      "type": "function"
    },
    {
      "inputs": [],
      "name": "mint",
      "outputs": [],
      "stateMutability": "nonpayable",
      "type": "function"
    },
    {
      "inputs": [
        {
          "internalType": "uint256",
          "name": "noOfTokens",
          "type": "uint256"
        }
      ],
      "name": "mintInBatch",
      "outputs": [],
      "stateMutability": "nonpayable",
      "type": "function"
    },
    {
      "inputs": [
        {
          "internalType": "uint256",
          "name": "tokenId",
          "type": "uint256"
        }
      ],
      "name": "tokenURI",
      "outputs": [
        {
          "internalType": "string",
          "name": "",
          "type": "string"
        }
      ],
      "stateMutability": "view",
      "type": "function",
      "constant": true
    },
    {
      "inputs": [
        {
          "internalType": "uint256",
          "name": "tokenId",
          "type": "uint256"
        },
        {
          "internalType": "uint256",
          "name": "price",
          "type": "uint256"
        }
      ],
      "name": "setTokenForSale",
      "outputs": [],
      "stateMutability": "nonpayable",
      "type": "function"
    },
    {
      "inputs": [
        {
          "internalType": "uint256",
          "name": "tokenId",
          "type": "uint256"
        },
        {
          "internalType": "uint256",
          "name": "price",
          "type": "uint256"
        }
      ],
      "name": "changeTokenPrice",
      "outputs": [],
      "stateMutability": "nonpayable",
      "type": "function"
    },
    {
      "inputs": [
        {
          "internalType": "uint256",
          "name": "tokenId",
          "type": "uint256"
        }
      ],
      "name": "buyNFT",
      "outputs": [],
      "stateMutability": "nonpayable",
      "type": "function"
    },
    {
      "inputs": [
        {
          "internalType": "uint256",
          "name": "tokenId",
          "type": "uint256"
        }
      ],
      "name": "removeTokenFromSale",
      "outputs": [],
      "stateMutability": "nonpayable",
      "type": "function"
    },
    {
      "inputs": [
        {
          "internalType": "uint256",
          "name": "tokenId",
          "type": "uint256"
        }
      ],
      "name": "isTokenForSale",
      "outputs": [
        {
          "internalType": "bool",
          "name": "",
          "type": "bool"
        }
      ],
      "stateMutability": "view",
      "type": "function",
      "constant": true
    },
    {
      "inputs": [
        {
          "internalType": "uint256",
          "name": "tokenId",
          "type": "uint256"
        }
      ],
      "name": "getTokenPrice",
      "outputs": [
        {
          "internalType": "uint256",
          "name": "",
          "type": "uint256"
        }
      ],
      "stateMutability": "view",
      "type": "function",
      "constant": true
    }
  ],
  "bytecode": "0x60806040526040518060400160405280600581526020017f2e6a736f6e000000000000000000000000000000000000000000000000000000815250600890805190602001906200005192919062000298565b503480156200005f57600080fd5b5060405162003eee38038062003eee8339818101604052810190620000859190620004e5565b818181600090805190602001906200009f92919062000298565b508060019080519060200190620000b892919062000298565b505050620000db620000cf620000f560201b60201c565b620000fd60201b60201c565b620000ec83620001c360201b60201c565b50505062000686565b600033905090565b6000600660009054906101000a900473ffffffffffffffffffffffffffffffffffffffff16905081600660006101000a81548173ffffffffffffffffffffffffffffffffffffffff021916908373ffffffffffffffffffffffffffffffffffffffff1602179055508173ffffffffffffffffffffffffffffffffffffffff168173ffffffffffffffffffffffffffffffffffffffff167f8be0079c531659141344cd1fd0a4f28419497f9722a3daafe3b4186f6b6457e060405160405180910390a35050565b620001d3620000f560201b60201c565b73ffffffffffffffffffffffffffffffffffffffff16620001f96200026e60201b60201c565b73ffffffffffffffffffffffffffffffffffffffff161462000252576040517f08c379a00000000000000000000000000000000000000000000000000000000081526004016200024990620005ff565b60405180910390fd5b80600790805190602001906200026a92919062000298565b5050565b6000600660009054906101000a900473ffffffffffffffffffffffffffffffffffffffff16905090565b828054620002a69062000650565b90600052602060002090601f016020900481019282620002ca576000855562000316565b82601f10620002e557805160ff191683800117855562000316565b8280016001018555821562000316579182015b8281111562000315578251825591602001919060010190620002f8565b5b50905062000325919062000329565b5090565b5b80821115620003445760008160009055506001016200032a565b5090565b6000604051905090565b600080fd5b600080fd5b600080fd5b600080fd5b6000601f19601f8301169050919050565b7f4e487b7100000000000000000000000000000000000000000000000000000000600052604160045260246000fd5b620003b18262000366565b810181811067ffffffffffffffff82111715620003d357620003d262000377565b5b80604052505050565b6000620003e862000348565b9050620003f68282620003a6565b919050565b600067ffffffffffffffff82111562000419576200041862000377565b5b620004248262000366565b9050602081019050919050565b60005b838110156200045157808201518184015260208101905062000434565b8381111562000461576000848401525b50505050565b60006200047e6200047884620003fb565b620003dc565b9050828152602081018484840111156200049d576200049c62000361565b5b620004aa84828562000431565b509392505050565b600082601f830112620004ca57620004c96200035c565b5b8151620004dc84826020860162000467565b91505092915050565b60008060006060848603121562000501576200050062000352565b5b600084015167ffffffffffffffff81111562000522576200052162000357565b5b6200053086828701620004b2565b935050602084015167ffffffffffffffff81111562000554576200055362000357565b5b6200056286828701620004b2565b925050604084015167ffffffffffffffff81111562000586576200058562000357565b5b6200059486828701620004b2565b9150509250925092565b600082825260208201905092915050565b7f4f776e61626c653a2063616c6c6572206973206e6f7420746865206f776e6572600082015250565b6000620005e76020836200059e565b9150620005f482620005af565b602082019050919050565b600060208201905081810360008301526200061a81620005d8565b9050919050565b7f4e487b7100000000000000000000000000000000000000000000000000000000600052602260045260246000fd5b600060028204905060018216806200066957607f821691505b6020821081141562000680576200067f62000621565b5b50919050565b61385880620006966000396000f3fe608060405234801561001057600080fd5b50600436106101585760003560e01c806370a08231116100c3578063c457fb371161007c578063c457fb371461039b578063c87b56dd146103cb578063cb233ce2146103fb578063e8cdea1114610417578063e985e9c514610433578063f2fde38b1461046357610158565b806370a08231146102ed578063715018a61461031d5780638da5cb5b1461032757806395d89b4114610345578063a22cb46514610363578063b88d4fde1461037f57610158565b806323b872dd1161011557806323b872dd1461021d57806342842e0e146102395780634fed1c941461025557806351ed82881461028557806362e8e8ac146102a15780636352211e146102bd57610158565b806301ffc9a71461015d57806306fdde031461018d578063081812fc146101ab578063095ea7b3146101db5780631249c58b146101f757806320477b8c14610201575b600080fd5b61017760048036038101906101729190612152565b61047f565b604051610184919061219a565b60405180910390f35b610195610561565b6040516101a2919061224e565b60405180910390f35b6101c560048036038101906101c091906122a6565b6105f3565b6040516101d29190612314565b60405180910390f35b6101f560048036038101906101f0919061235b565b610678565b005b6101ff610790565b005b61021b600480360381019061021691906122a6565b610814565b005b6102376004803603810190610232919061239b565b61083e565b005b610253600480360381019061024e919061239b565b61089e565b005b61026f600480360381019061026a91906122a6565b6108be565b60405161027c919061219a565b60405180910390f35b61029f600480360381019061029a91906122a6565b6108e8565b005b6102bb60048036038101906102b691906123ee565b610ae6565b005b6102d760048036038101906102d291906122a6565b610c27565b6040516102e49190612314565b60405180910390f35b6103076004803603810190610302919061242e565b610cd9565b604051610314919061246a565b60405180910390f35b610325610d91565b005b61032f610e19565b60405161033c9190612314565b60405180910390f35b61034d610e43565b60405161035a919061224e565b60405180910390f35b61037d600480360381019061037891906124b1565b610ed5565b005b61039960048036038101906103949190612626565b610eeb565b005b6103b560048036038101906103b091906122a6565b610f4d565b6040516103c2919061246a565b60405180910390f35b6103e560048036038101906103e091906122a6565b610f6a565b6040516103f2919061224e565b60405180910390f35b610415600480360381019061041091906123ee565b611014565b005b610431600480360381019061042c91906122a6565b611121565b005b61044d600480360381019061044891906126a9565b611275565b60405161045a919061219a565b60405180910390f35b61047d6004803603810190610478919061242e565b611309565b005b60007f80ac58cd000000000000000000000000000000000000000000000000000000007bffffffffffffffffffffffffffffffffffffffffffffffffffffffff1916827bffffffffffffffffffffffffffffffffffffffffffffffffffffffff1916148061054a57507f5b5e139f000000000000000000000000000000000000000000000000000000007bffffffffffffffffffffffffffffffffffffffffffffffffffffffff1916827bffffffffffffffffffffffffffffffffffffffffffffffffffffffff1916145b8061055a575061055982611401565b5b9050919050565b60606000805461057090612718565b80601f016020809104026020016040519081016040528092919081815260200182805461059c90612718565b80156105e95780601f106105be576101008083540402835291602001916105e9565b820191906000526020600020905b8154815290600101906020018083116105cc57829003601f168201915b5050505050905090565b60006105fe8261146b565b61063d576040517f08c379a0000000000000000000000000000000000000000000000000000000008152600401610634906127bc565b60405180910390fd5b6004600083815260200190815260200160002060009054906101000a900473ffffffffffffffffffffffffffffffffffffffff169050919050565b600061068382610c27565b90508073ffffffffffffffffffffffffffffffffffffffff168373ffffffffffffffffffffffffffffffffffffffff1614156106f4576040517f08c379a00000000000000000000000000000000000000000000000000000000081526004016106eb9061284e565b60405180910390fd5b8073ffffffffffffffffffffffffffffffffffffffff166107136114d7565b73ffffffffffffffffffffffffffffffffffffffff16148061074257506107418161073c6114d7565b611275565b5b610781576040517f08c379a0000000000000000000000000000000000000000000000000000000008152600401610778906128e0565b60405180910390fd5b61078b83836114df565b505050565b61079a600b611598565b60006107a6600b6115ae565b9050600d8190806001815401808255809150506001900390600052602060002001600090919091909150556107db33826115bc565b60006009600083815260200190815260200160002060006101000a81548160ff02191690831515021790555061081081610f6a565b5050565b60005b8181101561083a57610827610790565b80806108329061292f565b915050610817565b5050565b61084f6108496114d7565b8261178a565b61088e576040517f08c379a0000000000000000000000000000000000000000000000000000000008152600401610885906129ea565b60405180910390fd5b610899838383611868565b505050565b6108b983838360405180602001604052806000815250610eeb565b505050565b60006009600083815260200190815260200160002060009054906101000a900460ff169050919050565b6009600082815260200190815260200160002060009054906101000a900460ff16610948576040517f08c379a000000000000000000000000000000000000000000000000000000000815260040161093f90612a56565b60405180910390fd5b600061095382610c27565b9050600073ffffffffffffffffffffffffffffffffffffffff166109756114d7565b73ffffffffffffffffffffffffffffffffffffffff1614156109cc576040517f08c379a00000000000000000000000000000000000000000000000000000000081526004016109c390612ac2565b60405180910390fd5b8073ffffffffffffffffffffffffffffffffffffffff166109eb6114d7565b73ffffffffffffffffffffffffffffffffffffffff161415610a42576040517f08c379a0000000000000000000000000000000000000000000000000000000008152600401610a3990612b2e565b60405180910390fd5b610a5481610a4e6114d7565b84611868565b60006009600084815260200190815260200160002060006101000a81548160ff02191690831515021790555081610a896114d7565b73ffffffffffffffffffffffffffffffffffffffff168273ffffffffffffffffffffffffffffffffffffffff167fddf252ad1be2c89b69c2b068fc378daa952ba7f163c4a11628f55a4df523b3ef60405160405180910390a45050565b610aef8261146b565b610b2e576040517f08c379a0000000000000000000000000000000000000000000000000000000008152600401610b2590612b9a565b60405180910390fd5b6009600083815260200190815260200160002060009054906101000a900460ff16610b8e576040517f08c379a0000000000000000000000000000000000000000000000000000000008152600401610b8590612c2c565b60405180910390fd5b610b966114d7565b73ffffffffffffffffffffffffffffffffffffffff16610bb583610c27565b73ffffffffffffffffffffffffffffffffffffffff1614610c0b576040517f08c379a0000000000000000000000000000000000000000000000000000000008152600401610c0290612c98565b60405180910390fd5b80600a6000848152602001908152602001600020819055505050565b6000806002600084815260200190815260200160002060009054906101000a900473ffffffffffffffffffffffffffffffffffffffff169050600073ffffffffffffffffffffffffffffffffffffffff168173ffffffffffffffffffffffffffffffffffffffff161415610cd0576040517f08c379a0000000000000000000000000000000000000000000000000000000008152600401610cc790612d2a565b60405180910390fd5b80915050919050565b60008073ffffffffffffffffffffffffffffffffffffffff168273ffffffffffffffffffffffffffffffffffffffff161415610d4a576040517f08c379a0000000000000000000000000000000000000000000000000000000008152600401610d4190612dbc565b60405180910390fd5b600360008373ffffffffffffffffffffffffffffffffffffffff1673ffffffffffffffffffffffffffffffffffffffff168152602001908152602001600020549050919050565b610d996114d7565b73ffffffffffffffffffffffffffffffffffffffff16610db7610e19565b73ffffffffffffffffffffffffffffffffffffffff1614610e0d576040517f08c379a0000000000000000000000000000000000000000000000000000000008152600401610e0490612e28565b60405180910390fd5b610e176000611ac4565b565b6000600660009054906101000a900473ffffffffffffffffffffffffffffffffffffffff16905090565b606060018054610e5290612718565b80601f0160208091040260200160405190810160405280929190818152602001828054610e7e90612718565b8015610ecb5780601f10610ea057610100808354040283529160200191610ecb565b820191906000526020600020905b815481529060010190602001808311610eae57829003601f168201915b5050505050905090565b610ee7610ee06114d7565b8383611b8a565b5050565b610efc610ef66114d7565b8361178a565b610f3b576040517f08c379a0000000000000000000000000000000000000000000000000000000008152600401610f32906129ea565b60405180910390fd5b610f4784848484611cf7565b50505050565b6000600a6000838152602001908152602001600020549050919050565b6060610f758261146b565b610fb4576040517f08c379a0000000000000000000000000000000000000000000000000000000008152600401610fab90612eba565b60405180910390fd5b6000610fbe611d53565b90506000815111610fde576040518060200160405280600081525061100c565b80610fe884611de5565b6008604051602001610ffc93929190612faa565b6040516020818303038152906040525b915050919050565b61101d8261146b565b61105c576040517f08c379a000000000000000000000000000000000000000000000000000000000815260040161105390612b9a565b60405180910390fd5b6110646114d7565b73ffffffffffffffffffffffffffffffffffffffff1661108383610c27565b73ffffffffffffffffffffffffffffffffffffffff16146110d9576040517f08c379a00000000000000000000000000000000000000000000000000000000081526004016110d09061304d565b60405180910390fd5b60016009600084815260200190815260200160002060006101000a81548160ff02191690831515021790555080600a6000848152602001908152602001600020819055505050565b61112a8161146b565b611169576040517f08c379a0000000000000000000000000000000000000000000000000000000008152600401611160906130b9565b60405180910390fd5b6009600082815260200190815260200160002060009054906101000a900460ff166111c9576040517f08c379a00000000000000000000000000000000000000000000000000000000081526004016111c09061314b565b60405180910390fd5b6111d16114d7565b73ffffffffffffffffffffffffffffffffffffffff166111f082610c27565b73ffffffffffffffffffffffffffffffffffffffff1614611246576040517f08c379a000000000000000000000000000000000000000000000000000000000815260040161123d906131b7565b60405180910390fd5b60006009600083815260200190815260200160002060006101000a81548160ff02191690831515021790555050565b6000600560008473ffffffffffffffffffffffffffffffffffffffff1673ffffffffffffffffffffffffffffffffffffffff16815260200190815260200160002060008373ffffffffffffffffffffffffffffffffffffffff1673ffffffffffffffffffffffffffffffffffffffff16815260200190815260200160002060009054906101000a900460ff16905092915050565b6113116114d7565b73ffffffffffffffffffffffffffffffffffffffff1661132f610e19565b73ffffffffffffffffffffffffffffffffffffffff1614611385576040517f08c379a000000000000000000000000000000000000000000000000000000000815260040161137c90612e28565b60405180910390fd5b600073ffffffffffffffffffffffffffffffffffffffff168173ffffffffffffffffffffffffffffffffffffffff1614156113f5576040517f08c379a00000000000000000000000000000000000000000000000000000000081526004016113ec90613249565b60405180910390fd5b6113fe81611ac4565b50565b60007f01ffc9a7000000000000000000000000000000000000000000000000000000007bffffffffffffffffffffffffffffffffffffffffffffffffffffffff1916827bffffffffffffffffffffffffffffffffffffffffffffffffffffffff1916149050919050565b60008073ffffffffffffffffffffffffffffffffffffffff166002600084815260200190815260200160002060009054906101000a900473ffffffffffffffffffffffffffffffffffffffff1673ffffffffffffffffffffffffffffffffffffffff1614159050919050565b600033905090565b816004600083815260200190815260200160002060006101000a81548173ffffffffffffffffffffffffffffffffffffffff021916908373ffffffffffffffffffffffffffffffffffffffff160217905550808273ffffffffffffffffffffffffffffffffffffffff1661155283610c27565b73ffffffffffffffffffffffffffffffffffffffff167f8c5be1e5ebec7d5bd14f71427d1e84f3dd0314c0f7b2291e5b200ac8c7c3b92560405160405180910390a45050565b6001816000016000828254019250508190555050565b600081600001549050919050565b600073ffffffffffffffffffffffffffffffffffffffff168273ffffffffffffffffffffffffffffffffffffffff16141561162c576040517f08c379a0000000000000000000000000000000000000000000000000000000008152600401611623906132b5565b60405180910390fd5b6116358161146b565b15611675576040517f08c379a000000000000000000000000000000000000000000000000000000000815260040161166c90613321565b60405180910390fd5b61168160008383611f46565b6001600360008473ffffffffffffffffffffffffffffffffffffffff1673ffffffffffffffffffffffffffffffffffffffff16815260200190815260200160002060008282546116d19190613341565b92505081905550816002600083815260200190815260200160002060006101000a81548173ffffffffffffffffffffffffffffffffffffffff021916908373ffffffffffffffffffffffffffffffffffffffff160217905550808273ffffffffffffffffffffffffffffffffffffffff16600073ffffffffffffffffffffffffffffffffffffffff167fddf252ad1be2c89b69c2b068fc378daa952ba7f163c4a11628f55a4df523b3ef60405160405180910390a45050565b60006117958261146b565b6117d4576040517f08c379a00000000000000000000000000000000000000000000000000000000081526004016117cb90613409565b60405180910390fd5b60006117df83610c27565b90508073ffffffffffffffffffffffffffffffffffffffff168473ffffffffffffffffffffffffffffffffffffffff16148061184e57508373ffffffffffffffffffffffffffffffffffffffff16611836846105f3565b73ffffffffffffffffffffffffffffffffffffffff16145b8061185f575061185e8185611275565b5b91505092915050565b8273ffffffffffffffffffffffffffffffffffffffff1661188882610c27565b73ffffffffffffffffffffffffffffffffffffffff16146118de576040517f08c379a00000000000000000000000000000000000000000000000000000000081526004016118d59061349b565b60405180910390fd5b600073ffffffffffffffffffffffffffffffffffffffff168273ffffffffffffffffffffffffffffffffffffffff16141561194e576040517f08c379a00000000000000000000000000000000000000000000000000000000081526004016119459061352d565b60405180910390fd5b611959838383611f46565b6119646000826114df565b6001600360008573ffffffffffffffffffffffffffffffffffffffff1673ffffffffffffffffffffffffffffffffffffffff16815260200190815260200160002060008282546119b4919061354d565b925050819055506001600360008473ffffffffffffffffffffffffffffffffffffffff1673ffffffffffffffffffffffffffffffffffffffff1681526020019081526020016000206000828254611a0b9190613341565b92505081905550816002600083815260200190815260200160002060006101000a81548173ffffffffffffffffffffffffffffffffffffffff021916908373ffffffffffffffffffffffffffffffffffffffff160217905550808273ffffffffffffffffffffffffffffffffffffffff168473ffffffffffffffffffffffffffffffffffffffff167fddf252ad1be2c89b69c2b068fc378daa952ba7f163c4a11628f55a4df523b3ef60405160405180910390a4505050565b6000600660009054906101000a900473ffffffffffffffffffffffffffffffffffffffff16905081600660006101000a81548173ffffffffffffffffffffffffffffffffffffffff021916908373ffffffffffffffffffffffffffffffffffffffff1602179055508173ffffffffffffffffffffffffffffffffffffffff168173ffffffffffffffffffffffffffffffffffffffff167f8be0079c531659141344cd1fd0a4f28419497f9722a3daafe3b4186f6b6457e060405160405180910390a35050565b8173ffffffffffffffffffffffffffffffffffffffff168373ffffffffffffffffffffffffffffffffffffffff161415611bf9576040517f08c379a0000000000000000000000000000000000000000000000000000000008152600401611bf0906135cd565b60405180910390fd5b80600560008573ffffffffffffffffffffffffffffffffffffffff1673ffffffffffffffffffffffffffffffffffffffff16815260200190815260200160002060008473ffffffffffffffffffffffffffffffffffffffff1673ffffffffffffffffffffffffffffffffffffffff16815260200190815260200160002060006101000a81548160ff0219169083151502179055508173ffffffffffffffffffffffffffffffffffffffff168373ffffffffffffffffffffffffffffffffffffffff167f17307eab39ab6107e8899845ad3d59bd9653f200f220920489ca2b5937696c3183604051611cea919061219a565b60405180910390a3505050565b611d02848484611868565b611d0e84848484611f4b565b611d4d576040517f08c379a0000000000000000000000000000000000000000000000000000000008152600401611d449061365f565b60405180910390fd5b50505050565b606060078054611d6290612718565b80601f0160208091040260200160405190810160405280929190818152602001828054611d8e90612718565b8015611ddb5780601f10611db057610100808354040283529160200191611ddb565b820191906000526020600020905b815481529060010190602001808311611dbe57829003601f168201915b5050505050905090565b60606000821415611e2d576040518060400160405280600181526020017f30000000000000000000000000000000000000000000000000000000000000008152509050611f41565b600082905060005b60008214611e5f578080611e489061292f565b915050600a82611e5891906136ae565b9150611e35565b60008167ffffffffffffffff811115611e7b57611e7a6124fb565b5b6040519080825280601f01601f191660200182016040528015611ead5781602001600182028036833780820191505090505b5090505b60008514611f3a57600182611ec6919061354d565b9150600a85611ed591906136df565b6030611ee19190613341565b60f81b818381518110611ef757611ef6613710565b5b60200101907effffffffffffffffffffffffffffffffffffffffffffffffffffffffffffff1916908160001a905350600a85611f3391906136ae565b9450611eb1565b8093505050505b919050565b505050565b6000611f6c8473ffffffffffffffffffffffffffffffffffffffff166120d3565b156120c6578373ffffffffffffffffffffffffffffffffffffffff1663150b7a02611f956114d7565b8786866040518563ffffffff1660e01b8152600401611fb79493929190613794565b6020604051808303816000875af1925050508015611ff357506040513d601f19601f82011682018060405250810190611ff091906137f5565b60015b612076573d8060008114612023576040519150601f19603f3d011682016040523d82523d6000602084013e612028565b606091505b5060008151141561206e576040517f08c379a00000000000000000000000000000000000000000000000000000000081526004016120659061365f565b60405180910390fd5b805181602001fd5b63150b7a0260e01b7bffffffffffffffffffffffffffffffffffffffffffffffffffffffff1916817bffffffffffffffffffffffffffffffffffffffffffffffffffffffff1916149150506120cb565b600190505b949350505050565b600080823b905060008111915050919050565b6000604051905090565b600080fd5b600080fd5b60007fffffffff0000000000000000000000000000000000000000000000000000000082169050919050565b61212f816120fa565b811461213a57600080fd5b50565b60008135905061214c81612126565b92915050565b600060208284031215612168576121676120f0565b5b60006121768482850161213d565b91505092915050565b60008115159050919050565b6121948161217f565b82525050565b60006020820190506121af600083018461218b565b92915050565b600081519050919050565b600082825260208201905092915050565b60005b838110156121ef5780820151818401526020810190506121d4565b838111156121fe576000848401525b50505050565b6000601f19601f8301169050919050565b6000612220826121b5565b61222a81856121c0565b935061223a8185602086016121d1565b61224381612204565b840191505092915050565b600060208201905081810360008301526122688184612215565b905092915050565b6000819050919050565b61228381612270565b811461228e57600080fd5b50565b6000813590506122a08161227a565b92915050565b6000602082840312156122bc576122bb6120f0565b5b60006122ca84828501612291565b91505092915050565b600073ffffffffffffffffffffffffffffffffffffffff82169050919050565b60006122fe826122d3565b9050919050565b61230e816122f3565b82525050565b60006020820190506123296000830184612305565b92915050565b612338816122f3565b811461234357600080fd5b50565b6000813590506123558161232f565b92915050565b60008060408385031215612372576123716120f0565b5b600061238085828601612346565b925050602061239185828601612291565b9150509250929050565b6000806000606084860312156123b4576123b36120f0565b5b60006123c286828701612346565b93505060206123d386828701612346565b92505060406123e486828701612291565b9150509250925092565b60008060408385031215612405576124046120f0565b5b600061241385828601612291565b925050602061242485828601612291565b9150509250929050565b600060208284031215612444576124436120f0565b5b600061245284828501612346565b91505092915050565b61246481612270565b82525050565b600060208201905061247f600083018461245b565b92915050565b61248e8161217f565b811461249957600080fd5b50565b6000813590506124ab81612485565b92915050565b600080604083850312156124c8576124c76120f0565b5b60006124d685828601612346565b92505060206124e78582860161249c565b9150509250929050565b600080fd5b600080fd5b7f4e487b7100000000000000000000000000000000000000000000000000000000600052604160045260246000fd5b61253382612204565b810181811067ffffffffffffffff82111715612552576125516124fb565b5b80604052505050565b60006125656120e6565b9050612571828261252a565b919050565b600067ffffffffffffffff821115612591576125906124fb565b5b61259a82612204565b9050602081019050919050565b82818337600083830152505050565b60006125c96125c484612576565b61255b565b9050828152602081018484840111156125e5576125e46124f6565b5b6125f08482856125a7565b509392505050565b600082601f83011261260d5761260c6124f1565b5b813561261d8482602086016125b6565b91505092915050565b600080600080608085870312156126405761263f6120f0565b5b600061264e87828801612346565b945050602061265f87828801612346565b935050604061267087828801612291565b925050606085013567ffffffffffffffff811115612691576126906120f5565b5b61269d878288016125f8565b91505092959194509250565b600080604083850312156126c0576126bf6120f0565b5b60006126ce85828601612346565b92505060206126df85828601612346565b9150509250929050565b7f4e487b7100000000000000000000000000000000000000000000000000000000600052602260045260246000fd5b6000600282049050600182168061273057607f821691505b60208210811415612744576127436126e9565b5b50919050565b7f4552433732313a20617070726f76656420717565727920666f72206e6f6e657860008201527f697374656e7420746f6b656e0000000000000000000000000000000000000000602082015250565b60006127a6602c836121c0565b91506127b18261274a565b604082019050919050565b600060208201905081810360008301526127d581612799565b9050919050565b7f4552433732313a20617070726f76616c20746f2063757272656e74206f776e6560008201527f7200000000000000000000000000000000000000000000000000000000000000602082015250565b60006128386021836121c0565b9150612843826127dc565b604082019050919050565b600060208201905081810360008301526128678161282b565b9050919050565b7f4552433732313a20617070726f76652063616c6c6572206973206e6f74206f7760008201527f6e6572206e6f7220617070726f76656420666f7220616c6c0000000000000000602082015250565b60006128ca6038836121c0565b91506128d58261286e565b604082019050919050565b600060208201905081810360008301526128f9816128bd565b9050919050565b7f4e487b7100000000000000000000000000000000000000000000000000000000600052601160045260246000fd5b600061293a82612270565b91507fffffffffffffffffffffffffffffffffffffffffffffffffffffffffffffffff82141561296d5761296c612900565b5b600182019050919050565b7f4552433732313a207472616e736665722063616c6c6572206973206e6f74206f60008201527f776e6572206e6f7220617070726f766564000000000000000000000000000000602082015250565b60006129d46031836121c0565b91506129df82612978565b604082019050919050565b60006020820190508181036000830152612a03816129c7565b9050919050565b7f546f6b656e2069732063757272656e746c79206e6f7420666f722073616c6521600082015250565b6000612a406020836121c0565b9150612a4b82612a0a565b602082019050919050565b60006020820190508181036000830152612a6f81612a33565b9050919050565b7f427579657220616464726573732063616e6e6f74206265207a65726f00000000600082015250565b6000612aac601c836121c0565b9150612ab782612a76565b602082019050919050565b60006020820190508181036000830152612adb81612a9f565b9050919050565b7f43616e6e6f7420627579206f776e6564204e4654000000000000000000000000600082015250565b6000612b186014836121c0565b9150612b2382612ae2565b602082019050919050565b60006020820190508181036000830152612b4781612b0b565b9050919050565b7f546f6b656e20646f6573206e6f74206578697374210000000000000000000000600082015250565b6000612b846015836121c0565b9150612b8f82612b4e565b602082019050919050565b60006020820190508181036000830152612bb381612b77565b9050919050565b7f546f6b656e206973206e6f7420666f722073616c652c2073657420697420736160008201527f6c65206669727374210000000000000000000000000000000000000000000000602082015250565b6000612c166029836121c0565b9150612c2182612bba565b604082019050919050565b60006020820190508181036000830152612c4581612c09565b9050919050565b7f4f6e6c79206f776e65722063616e20736574207468652076616c756521000000600082015250565b6000612c82601d836121c0565b9150612c8d82612c4c565b602082019050919050565b60006020820190508181036000830152612cb181612c75565b9050919050565b7f4552433732313a206f776e657220717565727920666f72206e6f6e657869737460008201527f656e7420746f6b656e0000000000000000000000000000000000000000000000602082015250565b6000612d146029836121c0565b9150612d1f82612cb8565b604082019050919050565b60006020820190508181036000830152612d4381612d07565b9050919050565b7f4552433732313a2062616c616e636520717565727920666f7220746865207a6560008201527f726f206164647265737300000000000000000000000000000000000000000000602082015250565b6000612da6602a836121c0565b9150612db182612d4a565b604082019050919050565b60006020820190508181036000830152612dd581612d99565b9050919050565b7f4f776e61626c653a2063616c6c6572206973206e6f7420746865206f776e6572600082015250565b6000612e126020836121c0565b9150612e1d82612ddc565b602082019050919050565b60006020820190508181036000830152612e4181612e05565b9050919050565b7f4552433732314d657461646174613a2055524920717565727920666f72206e6f60008201527f6e6578697374656e7420746f6b656e0000000000000000000000000000000000602082015250565b6000612ea4602f836121c0565b9150612eaf82612e48565b604082019050919050565b60006020820190508181036000830152612ed381612e97565b9050919050565b600081905092915050565b6000612ef0826121b5565b612efa8185612eda565b9350612f0a8185602086016121d1565b80840191505092915050565b60008190508160005260206000209050919050565b60008154612f3881612718565b612f428186612eda565b94506001821660008114612f5d5760018114612f6e57612fa1565b60ff19831686528186019350612fa1565b612f7785612f16565b60005b83811015612f9957815481890152600182019150602081019050612f7a565b838801955050505b50505092915050565b6000612fb68286612ee5565b9150612fc28285612ee5565b9150612fce8284612f2b565b9150819050949350505050565b7f4f6e6c79206f776e65722063616e20736574206120746f6b656e20666f72207360008201527f616c652100000000000000000000000000000000000000000000000000000000602082015250565b60006130376024836121c0565b915061304282612fdb565b604082019050919050565b600060208201905081810360008301526130668161302a565b9050919050565b7f546f6b656e20646f6573206e6f74206578697374000000000000000000000000600082015250565b60006130a36014836121c0565b91506130ae8261306d565b602082019050919050565b600060208201905081810360008301526130d281613096565b9050919050565b7f546f6b656e20697320616c72656164792073657420746f206e6f7420666f722060008201527f73616c6500000000000000000000000000000000000000000000000000000000602082015250565b60006131356024836121c0565b9150613140826130d9565b604082019050919050565b6000602082019050818103600083015261316481613128565b9050919050565b7f4f6e6c7920746f6b656e206f776e65722063616e207365742076616c75650000600082015250565b60006131a1601e836121c0565b91506131ac8261316b565b602082019050919050565b600060208201905081810360008301526131d081613194565b9050919050565b7f4f776e61626c653a206e6577206f776e657220697320746865207a65726f206160008201527f6464726573730000000000000000000000000000000000000000000000000000602082015250565b60006132336026836121c0565b915061323e826131d7565b604082019050919050565b6000602082019050818103600083015261326281613226565b9050919050565b7f4552433732313a206d696e7420746f20746865207a65726f2061646472657373600082015250565b600061329f6020836121c0565b91506132aa82613269565b602082019050919050565b600060208201905081810360008301526132ce81613292565b9050919050565b7f4552433732313a20746f6b656e20616c7265616479206d696e74656400000000600082015250565b600061330b601c836121c0565b9150613316826132d5565b602082019050919050565b6000602082019050818103600083015261333a816132fe565b9050919050565b600061334c82612270565b915061335783612270565b9250827fffffffffffffffffffffffffffffffffffffffffffffffffffffffffffffffff0382111561338c5761338b612900565b5b828201905092915050565b7f4552433732313a206f70657261746f7220717565727920666f72206e6f6e657860008201527f697374656e7420746f6b656e0000000000000000000000000000000000000000602082015250565b60006133f3602c836121c0565b91506133fe82613397565b604082019050919050565b60006020820190508181036000830152613422816133e6565b9050919050565b7f4552433732313a207472616e73666572206f6620746f6b656e2074686174206960008201527f73206e6f74206f776e0000000000000000000000000000000000000000000000602082015250565b60006134856029836121c0565b915061349082613429565b604082019050919050565b600060208201905081810360008301526134b481613478565b9050919050565b7f4552433732313a207472616e7366657220746f20746865207a65726f2061646460008201527f7265737300000000000000000000000000000000000000000000000000000000602082015250565b60006135176024836121c0565b9150613522826134bb565b604082019050919050565b600060208201905081810360008301526135468161350a565b9050919050565b600061355882612270565b915061356383612270565b92508282101561357657613575612900565b5b828203905092915050565b7f4552433732313a20617070726f766520746f2063616c6c657200000000000000600082015250565b60006135b76019836121c0565b91506135c282613581565b602082019050919050565b600060208201905081810360008301526135e6816135aa565b9050919050565b7f4552433732313a207472616e7366657220746f206e6f6e20455243373231526560008201527f63656976657220696d706c656d656e7465720000000000000000000000000000602082015250565b60006136496032836121c0565b9150613654826135ed565b604082019050919050565b600060208201905081810360008301526136788161363c565b9050919050565b7f4e487b7100000000000000000000000000000000000000000000000000000000600052601260045260246000fd5b60006136b982612270565b91506136c483612270565b9250826136d4576136d361367f565b5b828204905092915050565b60006136ea82612270565b91506136f583612270565b9250826137055761370461367f565b5b828206905092915050565b7f4e487b7100000000000000000000000000000000000000000000000000000000600052603260045260246000fd5b600081519050919050565b600082825260208201905092915050565b60006137668261373f565b613770818561374a565b93506137808185602086016121d1565b61378981612204565b840191505092915050565b60006080820190506137a96000830187612305565b6137b66020830186612305565b6137c3604083018561245b565b81810360608301526137d5818461375b565b905095945050505050565b6000815190506137ef81612126565b92915050565b60006020828403121561380b5761380a6120f0565b5b6000613819848285016137e0565b9150509291505056fea26469706673582212207cd6083691ed06e1a761f1a147a7f94e56016a655fedbb9b466c4999faa1d88f64736f6c634300080b0033",
  "immutableReferences": {},
  "source": "// SPDX-License-Identifier: MIT\r\npragma solidity ^0.8.0;\r\n\r\nimport \"@openzeppelin/contracts/token/ERC721/ERC721.sol\";\r\nimport \"@openzeppelin/contracts/utils/Counters.sol\";\r\nimport \"@openzeppelin/contracts/access/Ownable.sol\";\r\n\r\ncontract OpenMarket is ERC721, Ownable {\r\n    using Counters for Counters.Counter;\r\n    using Strings for uint256;\r\n\r\n    string private baseURI;\r\n    string private baseExtension = \".json\";\r\n\r\n    mapping(uint256 =>bool ) private _tokenForSale;\r\n    mapping(uint256 =>uint ) private _tokenPrice;\r\n\r\n    Counters.Counter private _tokenIds;\r\n    mapping(string => bool) private _tokenExists ;\r\n    uint256[] private totalTokens;\r\n\r\n    constructor(string memory _initBaseURI, string memory tokenName, string memory tokenSymbol) ERC721(tokenName, tokenSymbol) {\r\n        setBaseURI(_initBaseURI);\r\n    }\r\n\r\n    function mint() public\r\n    {   _tokenIds.increment();\r\n        uint256 newItemId = _tokenIds.current();\r\n        totalTokens.push(newItemId);\r\n        _mint(msg.sender, newItemId);\r\n        _tokenForSale[newItemId] = false ;\r\n        tokenURI(newItemId);\r\n    }\r\n\r\n    function mintInBatch(uint256 noOfTokens) public {\r\n        for(uint256 i=0;i<noOfTokens;i++) {\r\n            mint();\r\n        }      \r\n    }\r\n    \r\n    function setBaseURI(string memory _newBaseURI) internal onlyOwner {\r\n        baseURI = _newBaseURI;\r\n    }\r\n    function _baseURI() internal view virtual override returns (string memory) {\r\n        return baseURI;\r\n    }\r\n\r\n    function tokenURI(uint256 tokenId) public view virtual override returns (string memory) {\r\n        require(_exists(tokenId),\"ERC721Metadata: URI query for nonexistent token\");\r\n        string memory currentBaseURI = _baseURI();\r\n        return\r\n            bytes(currentBaseURI).length > 0 ? string(abi.encodePacked(currentBaseURI,tokenId.toString(),baseExtension)): \"\";\r\n    }\r\n\r\n    function setTokenForSale(uint256 tokenId, uint256 price) public {\r\n        require(_exists(tokenId),\"Token does not exist!\");\r\n        require(ownerOf(tokenId) == _msgSender(),\"Only owner can set a token for sale!\");\r\n        _tokenForSale[tokenId] = true;\r\n        _tokenPrice[tokenId] = price;\r\n    }\r\n\r\n    function changeTokenPrice( uint256 tokenId,uint256 price) public {\r\n        require(_exists(tokenId),\"Token does not exist!\");\r\n        require(_tokenForSale[tokenId],\"Token is not for sale, set it sale first!\");\r\n        require(ownerOf(tokenId) == _msgSender(),\"Only owner can set the value!\");\r\n        _tokenPrice[tokenId] = price;\r\n    }\r\n\r\n    function buyNFT(uint256 tokenId)public {\r\n        require(_tokenForSale[tokenId],\"Token is currently not for sale!\");\r\n        address owner = ownerOf(tokenId);\r\n        require(_msgSender() != address(0),\"Buyer address cannot be zero\");\r\n        require(_msgSender() != owner , \"Cannot buy owned NFT\");\r\n        _transfer(owner,_msgSender(),tokenId);\r\n        _tokenForSale[tokenId] = false;\r\n        emit Transfer(owner,_msgSender(),tokenId);\r\n    }\r\n\r\n    function removeTokenFromSale(uint256 tokenId)public{\r\n        require(_exists(tokenId),\"Token does not exist\");\r\n        require(_tokenForSale[tokenId],\"Token is already set to not for sale\");\r\n        require(ownerOf(tokenId) == _msgSender(),\"Only token owner can set value\");\r\n        _tokenForSale[tokenId] = false;\r\n    }\r\n\r\n    function isTokenForSale(uint256 tokenId)public view returns(bool){\r\n        return _tokenForSale[tokenId];\r\n    }\r\n    function getTokenPrice(uint256 tokenId)public view returns(uint){\r\n        return _tokenPrice[tokenId];\r\n    }   \r\n}\r\n",
  "sourcePath": "G:\\Node\\nft-marketplace\\src\\contracts\\OpenMarket.sol",
  "compiler": {
    "name": "solc",
    "version": "0.8.11+commit.d7f03943.Emscripten.clang"
  },
  "schemaVersion": "3.4.4",
  "updatedAt": "2021-12-28T19:01:54.010Z",
  "networkType": "ethereum",
  "devdoc": {
    "kind": "dev",
    "methods": {
      "approve(address,uint256)": {
        "details": "See {IERC721-approve}."
      },
      "balanceOf(address)": {
        "details": "See {IERC721-balanceOf}."
      },
      "getApproved(uint256)": {
        "details": "See {IERC721-getApproved}."
      },
      "isApprovedForAll(address,address)": {
        "details": "See {IERC721-isApprovedForAll}."
      },
      "name()": {
        "details": "See {IERC721Metadata-name}."
      },
      "owner()": {
        "details": "Returns the address of the current owner."
      },
      "ownerOf(uint256)": {
        "details": "See {IERC721-ownerOf}."
      },
      "renounceOwnership()": {
        "details": "Leaves the contract without owner. It will not be possible to call `onlyOwner` functions anymore. Can only be called by the current owner. NOTE: Renouncing ownership will leave the contract without an owner, thereby removing any functionality that is only available to the owner."
      },
      "safeTransferFrom(address,address,uint256)": {
        "details": "See {IERC721-safeTransferFrom}."
      },
      "safeTransferFrom(address,address,uint256,bytes)": {
        "details": "See {IERC721-safeTransferFrom}."
      },
      "setApprovalForAll(address,bool)": {
        "details": "See {IERC721-setApprovalForAll}."
      },
      "supportsInterface(bytes4)": {
        "details": "See {IERC165-supportsInterface}."
      },
      "symbol()": {
        "details": "See {IERC721Metadata-symbol}."
      },
      "tokenURI(uint256)": {
        "details": "See {IERC721Metadata-tokenURI}."
      },
      "transferFrom(address,address,uint256)": {
        "details": "See {IERC721-transferFrom}."
      },
      "transferOwnership(address)": {
        "details": "Transfers ownership of the contract to a new account (`newOwner`). Can only be called by the current owner."
      }
    },
    "version": 1
  },
  "userdoc": {
    "kind": "user",
    "methods": {},
    "version": 1
  }
}