{
  "contractName": "OpenMarket",
  "abi": [
    {
      "inputs": [],
      "stateMutability": "nonpayable",
      "type": "constructor"
    },
    {
      "anonymous": false,
      "inputs": [
        {
          "indexed": true,
          "internalType": "address",
          "name": "owner",
          "type": "address"
        },
        {
          "indexed": true,
          "internalType": "address",
          "name": "approved",
          "type": "address"
        },
        {
          "indexed": true,
          "internalType": "uint256",
          "name": "tokenId",
          "type": "uint256"
        }
      ],
      "name": "Approval",
      "type": "event"
    },
    {
      "anonymous": false,
      "inputs": [
        {
          "indexed": true,
          "internalType": "address",
          "name": "owner",
          "type": "address"
        },
        {
          "indexed": true,
          "internalType": "address",
          "name": "operator",
          "type": "address"
        },
        {
          "indexed": false,
          "internalType": "bool",
          "name": "approved",
          "type": "bool"
        }
      ],
      "name": "ApprovalForAll",
      "type": "event"
    },
    {
      "anonymous": false,
      "inputs": [
        {
          "indexed": true,
          "internalType": "address",
          "name": "from",
          "type": "address"
        },
        {
          "indexed": true,
          "internalType": "address",
          "name": "to",
          "type": "address"
        },
        {
          "indexed": true,
          "internalType": "uint256",
          "name": "tokenId",
          "type": "uint256"
        }
      ],
      "name": "Transfer",
      "type": "event"
    },
    {
      "inputs": [
        {
          "internalType": "address",
          "name": "to",
          "type": "address"
        },
        {
          "internalType": "uint256",
          "name": "tokenId",
          "type": "uint256"
        }
      ],
      "name": "approve",
      "outputs": [],
      "stateMutability": "nonpayable",
      "type": "function"
    },
    {
      "inputs": [
        {
          "internalType": "address",
          "name": "owner",
          "type": "address"
        }
      ],
      "name": "balanceOf",
      "outputs": [
        {
          "internalType": "uint256",
          "name": "",
          "type": "uint256"
        }
      ],
      "stateMutability": "view",
      "type": "function"
    },
    {
      "inputs": [
        {
          "internalType": "uint256",
          "name": "",
          "type": "uint256"
        }
      ],
      "name": "costOftoken",
      "outputs": [
        {
          "internalType": "uint256",
          "name": "",
          "type": "uint256"
        }
      ],
      "stateMutability": "view",
      "type": "function"
    },
    {
      "inputs": [
        {
          "internalType": "uint256",
          "name": "",
          "type": "uint256"
        }
      ],
      "name": "forsale",
      "outputs": [
        {
          "internalType": "bool",
          "name": "",
          "type": "bool"
        }
      ],
      "stateMutability": "view",
      "type": "function"
    },
    {
      "inputs": [
        {
          "internalType": "uint256",
          "name": "tokenId",
          "type": "uint256"
        }
      ],
      "name": "getApproved",
      "outputs": [
        {
          "internalType": "address",
          "name": "",
          "type": "address"
        }
      ],
      "stateMutability": "view",
      "type": "function"
    },
    {
      "inputs": [
        {
          "internalType": "address",
          "name": "owner",
          "type": "address"
        },
        {
          "internalType": "address",
          "name": "operator",
          "type": "address"
        }
      ],
      "name": "isApprovedForAll",
      "outputs": [
        {
          "internalType": "bool",
          "name": "",
          "type": "bool"
        }
      ],
      "stateMutability": "view",
      "type": "function"
    },
    {
      "inputs": [],
      "name": "name",
      "outputs": [
        {
          "internalType": "string",
          "name": "",
          "type": "string"
        }
      ],
      "stateMutability": "view",
      "type": "function"
    },
    {
      "inputs": [
        {
          "internalType": "uint256",
          "name": "tokenId",
          "type": "uint256"
        }
      ],
      "name": "ownerOf",
      "outputs": [
        {
          "internalType": "address",
          "name": "",
          "type": "address"
        }
      ],
      "stateMutability": "view",
      "type": "function"
    },
    {
      "inputs": [
        {
          "internalType": "address",
          "name": "from",
          "type": "address"
        },
        {
          "internalType": "address",
          "name": "to",
          "type": "address"
        },
        {
          "internalType": "uint256",
          "name": "tokenId",
          "type": "uint256"
        }
      ],
      "name": "safeTransferFrom",
      "outputs": [],
      "stateMutability": "nonpayable",
      "type": "function"
    },
    {
      "inputs": [
        {
          "internalType": "address",
          "name": "from",
          "type": "address"
        },
        {
          "internalType": "address",
          "name": "to",
          "type": "address"
        },
        {
          "internalType": "uint256",
          "name": "tokenId",
          "type": "uint256"
        },
        {
          "internalType": "bytes",
          "name": "_data",
          "type": "bytes"
        }
      ],
      "name": "safeTransferFrom",
      "outputs": [],
      "stateMutability": "nonpayable",
      "type": "function"
    },
    {
      "inputs": [
        {
          "internalType": "address",
          "name": "operator",
          "type": "address"
        },
        {
          "internalType": "bool",
          "name": "approved",
          "type": "bool"
        }
      ],
      "name": "setApprovalForAll",
      "outputs": [],
      "stateMutability": "nonpayable",
      "type": "function"
    },
    {
      "inputs": [
        {
          "internalType": "bytes4",
          "name": "interfaceId",
          "type": "bytes4"
        }
      ],
      "name": "supportsInterface",
      "outputs": [
        {
          "internalType": "bool",
          "name": "",
          "type": "bool"
        }
      ],
      "stateMutability": "view",
      "type": "function"
    },
    {
      "inputs": [],
      "name": "symbol",
      "outputs": [
        {
          "internalType": "string",
          "name": "",
          "type": "string"
        }
      ],
      "stateMutability": "view",
      "type": "function"
    },
    {
      "inputs": [
        {
          "internalType": "uint256",
          "name": "tokenId",
          "type": "uint256"
        }
      ],
      "name": "tokenURI",
      "outputs": [
        {
          "internalType": "string",
          "name": "",
          "type": "string"
        }
      ],
      "stateMutability": "view",
      "type": "function"
    },
    {
      "inputs": [
        {
          "internalType": "address",
          "name": "from",
          "type": "address"
        },
        {
          "internalType": "address",
          "name": "to",
          "type": "address"
        },
        {
          "internalType": "uint256",
          "name": "tokenId",
          "type": "uint256"
        }
      ],
      "name": "transferFrom",
      "outputs": [],
      "stateMutability": "nonpayable",
      "type": "function"
    },
    {
      "inputs": [],
      "name": "mint",
      "outputs": [],
      "stateMutability": "nonpayable",
      "type": "function"
    },
    {
      "inputs": [
        {
          "internalType": "uint256",
          "name": "noOfTokens",
          "type": "uint256"
        }
      ],
      "name": "mintInBatch",
      "outputs": [],
      "stateMutability": "nonpayable",
      "type": "function"
    },
    {
      "inputs": [],
      "name": "totalSupply",
      "outputs": [
        {
          "internalType": "uint256",
          "name": "",
          "type": "uint256"
        }
      ],
      "stateMutability": "view",
      "type": "function"
    },
    {
      "inputs": [
        {
          "internalType": "uint256",
          "name": "tokenId",
          "type": "uint256"
        },
        {
          "internalType": "uint256",
          "name": "price",
          "type": "uint256"
        }
      ],
      "name": "tokenForsale",
      "outputs": [],
      "stateMutability": "nonpayable",
      "type": "function"
    },
    {
      "inputs": [
        {
          "internalType": "uint256",
          "name": "price",
          "type": "uint256"
        },
        {
          "internalType": "uint256",
          "name": "tokenId",
          "type": "uint256"
        }
      ],
      "name": "priceChange",
      "outputs": [],
      "stateMutability": "nonpayable",
      "type": "function"
    },
    {
      "inputs": [
        {
          "internalType": "uint256",
          "name": "tokenId",
          "type": "uint256"
        }
      ],
      "name": "buyNFT",
      "outputs": [],
      "stateMutability": "nonpayable",
      "type": "function"
    },
    {
      "inputs": [
        {
          "internalType": "uint256",
          "name": "tokenId",
          "type": "uint256"
        }
      ],
      "name": "removeFromSale",
      "outputs": [],
      "stateMutability": "nonpayable",
      "type": "function"
    },
    {
      "inputs": [
        {
          "internalType": "address",
          "name": "to",
          "type": "address"
        },
        {
          "internalType": "uint256",
          "name": "tokenId",
          "type": "uint256"
        }
      ],
      "name": "_TransferFrom",
      "outputs": [],
      "stateMutability": "nonpayable",
      "type": "function"
    },
    {
      "inputs": [
        {
          "internalType": "address",
          "name": "to",
          "type": "address"
        },
        {
          "internalType": "uint256",
          "name": "tokenId",
          "type": "uint256"
        }
      ],
      "name": "_Approve",
      "outputs": [],
      "stateMutability": "nonpayable",
      "type": "function"
    }
  ],
  "bytecode": "0x60806040523480156200001157600080fd5b506040518060400160405280600981526020017f4e465420544f4b454e00000000000000000000000000000000000000000000008152506040518060400160405280600381526020017f54464e0000000000000000000000000000000000000000000000000000000000815250816000908051906020019062000096929190620000b8565b508060019080519060200190620000af929190620000b8565b505050620001cd565b828054620000c69062000197565b90600052602060002090601f016020900481019282620000ea576000855562000136565b82601f106200010557805160ff191683800117855562000136565b8280016001018555821562000136579182015b828111156200013557825182559160200191906001019062000118565b5b50905062000145919062000149565b5090565b5b80821115620001645760008160009055506001016200014a565b5090565b7f4e487b7100000000000000000000000000000000000000000000000000000000600052602260045260246000fd5b60006002820490506001821680620001b057607f821691505b60208210811415620001c757620001c662000168565b5b50919050565b61347380620001dd6000396000f3fe608060405234801561001057600080fd5b50600436106101585760003560e01c806351ed8288116100c3578063a4903c751161007c578063a4903c75146103ad578063b88d4fde146103dd578063c87b56dd146103f9578063dbe1101314610429578063e985e9c514610445578063f2d5bdac1461047557610158565b806351ed8288146102c75780636352211e146102e357806370a08231146103135780637d44c1081461034357806395d89b4114610373578063a22cb4651461039157610158565b80631249c58b116101155780631249c58b1461022f5780631361a3b61461023957806318160ddd1461025557806320477b8c1461027357806323b872dd1461028f57806342842e0e146102ab57610158565b806301ffc9a71461015d57806306fdde031461018d578063081812fc146101ab578063095ea7b3146101db5780630d5cda70146101f757806310bb8c7514610213575b600080fd5b61017760048036038101906101729190612030565b610491565b6040516101849190612078565b60405180910390f35b610195610573565b6040516101a2919061212c565b60405180910390f35b6101c560048036038101906101c09190612184565b610605565b6040516101d291906121f2565b60405180910390f35b6101f560048036038101906101f09190612239565b61068a565b005b610211600480360381019061020c9190612279565b6107a2565b005b61022d60048036038101906102289190612279565b610883565b005b610237610990565b005b610253600480360381019061024e9190612184565b610a0a565b005b61025d610b17565b60405161026a91906122c8565b60405180910390f35b61028d60048036038101906102889190612184565b610b24565b005b6102a960048036038101906102a491906122e3565b610b92565b005b6102c560048036038101906102c091906122e3565b610bf2565b005b6102e160048036038101906102dc9190612184565b610c12565b005b6102fd60048036038101906102f89190612184565b610dce565b60405161030a91906121f2565b60405180910390f35b61032d60048036038101906103289190612336565b610e80565b60405161033a91906122c8565b60405180910390f35b61035d60048036038101906103589190612184565b610f38565b60405161036a91906122c8565b60405180910390f35b61037b610f50565b604051610388919061212c565b60405180910390f35b6103ab60048036038101906103a6919061238f565b610fe2565b005b6103c760048036038101906103c29190612184565b610ff8565b6040516103d49190612078565b60405180910390f35b6103f760048036038101906103f29190612504565b611018565b005b610413600480360381019061040e9190612184565b61107a565b604051610420919061212c565b60405180910390f35b610443600480360381019061043e9190612239565b611121565b005b61045f600480360381019061045a9190612587565b611257565b60405161046c9190612078565b60405180910390f35b61048f600480360381019061048a9190612239565b6112eb565b005b60007f80ac58cd000000000000000000000000000000000000000000000000000000007bffffffffffffffffffffffffffffffffffffffffffffffffffffffff1916827bffffffffffffffffffffffffffffffffffffffffffffffffffffffff1916148061055c57507f5b5e139f000000000000000000000000000000000000000000000000000000007bffffffffffffffffffffffffffffffffffffffffffffffffffffffff1916827bffffffffffffffffffffffffffffffffffffffffffffffffffffffff1916145b8061056c575061056b82611420565b5b9050919050565b606060008054610582906125f6565b80601f01602080910402602001604051908101604052809291908181526020018280546105ae906125f6565b80156105fb5780601f106105d0576101008083540402835291602001916105fb565b820191906000526020600020905b8154815290600101906020018083116105de57829003601f168201915b5050505050905090565b60006106108261148a565b61064f576040517f08c379a00000000000000000000000000000000000000000000000000000000081526004016106469061269a565b60405180910390fd5b6004600083815260200190815260200160002060009054906101000a900473ffffffffffffffffffffffffffffffffffffffff169050919050565b600061069582610dce565b90508073ffffffffffffffffffffffffffffffffffffffff168373ffffffffffffffffffffffffffffffffffffffff161415610706576040517f08c379a00000000000000000000000000000000000000000000000000000000081526004016106fd9061272c565b60405180910390fd5b8073ffffffffffffffffffffffffffffffffffffffff166107256114f6565b73ffffffffffffffffffffffffffffffffffffffff16148061075457506107538161074e6114f6565b611257565b5b610793576040517f08c379a000000000000000000000000000000000000000000000000000000000815260040161078a906127be565b60405180910390fd5b61079d83836114fe565b505050565b6107aa6114f6565b73ffffffffffffffffffffffffffffffffffffffff166107c982610dce565b73ffffffffffffffffffffffffffffffffffffffff161461081f576040517f08c379a00000000000000000000000000000000000000000000000000000000081526004016108169061282a565b60405180910390fd5b6108288161148a565b610867576040517f08c379a000000000000000000000000000000000000000000000000000000000815260040161085e90612896565b60405180910390fd5b8160076000838152602001908152602001600020819055505050565b61088b6114f6565b73ffffffffffffffffffffffffffffffffffffffff166108aa83610dce565b73ffffffffffffffffffffffffffffffffffffffff1614610900576040517f08c379a00000000000000000000000000000000000000000000000000000000081526004016108f79061282a565b60405180910390fd5b6109098261148a565b610948576040517f08c379a000000000000000000000000000000000000000000000000000000000815260040161093f90612896565b60405180910390fd5b60016006600084815260200190815260200160002060006101000a81548160ff0219169083151502179055508060076000848152602001908152602001600020819055505050565b600061099c60086115b7565b905060098190806001815401808255809150506001900390600052602060002001600090919091909150556109d160086115c5565b6109db33826115db565b60006006600083815260200190815260200160002060006101000a81548160ff02191690831515021790555050565b610a126114f6565b73ffffffffffffffffffffffffffffffffffffffff16610a3182610dce565b73ffffffffffffffffffffffffffffffffffffffff1614610a87576040517f08c379a0000000000000000000000000000000000000000000000000000000008152600401610a7e9061282a565b60405180910390fd5b610a908161148a565b610acf576040517f08c379a0000000000000000000000000000000000000000000000000000000008152600401610ac690612896565b60405180910390fd5b60006006600083815260200190815260200160002060006101000a81548160ff0219169083151502179055506000600760008381526020019081526020016000208190555050565b6000600980549050905090565b60005b81811015610b8e576000610b3b60086115b7565b90506009819080600181540180825580915050600190039060005260206000200160009091909190915055610b7060086115c5565b610b7a33826115db565b508080610b86906128e5565b915050610b27565b5050565b610ba3610b9d6114f6565b826117a9565b610be2576040517f08c379a0000000000000000000000000000000000000000000000000000000008152600401610bd9906129a0565b60405180910390fd5b610bed838383611887565b505050565b610c0d83838360405180602001604052806000815250611018565b505050565b6000610c1d82610dce565b9050600073ffffffffffffffffffffffffffffffffffffffff16610c3f6114f6565b73ffffffffffffffffffffffffffffffffffffffff161415610c96576040517f08c379a0000000000000000000000000000000000000000000000000000000008152600401610c8d90612a0c565b60405180910390fd5b8073ffffffffffffffffffffffffffffffffffffffff16610cb56114f6565b73ffffffffffffffffffffffffffffffffffffffff161415610d0c576040517f08c379a0000000000000000000000000000000000000000000000000000000008152600401610d0390612a78565b60405180910390fd5b610d146114f6565b6004600084815260200190815260200160002060006101000a81548173ffffffffffffffffffffffffffffffffffffffff021916908373ffffffffffffffffffffffffffffffffffffffff160217905550610d7781610d716114f6565b84610b92565b60006004600084815260200190815260200160002060006101000a81548173ffffffffffffffffffffffffffffffffffffffff021916908373ffffffffffffffffffffffffffffffffffffffff1602179055505050565b6000806002600084815260200190815260200160002060009054906101000a900473ffffffffffffffffffffffffffffffffffffffff169050600073ffffffffffffffffffffffffffffffffffffffff168173ffffffffffffffffffffffffffffffffffffffff161415610e77576040517f08c379a0000000000000000000000000000000000000000000000000000000008152600401610e6e90612b0a565b60405180910390fd5b80915050919050565b60008073ffffffffffffffffffffffffffffffffffffffff168273ffffffffffffffffffffffffffffffffffffffff161415610ef1576040517f08c379a0000000000000000000000000000000000000000000000000000000008152600401610ee890612b9c565b60405180910390fd5b600360008373ffffffffffffffffffffffffffffffffffffffff1673ffffffffffffffffffffffffffffffffffffffff168152602001908152602001600020549050919050565b60076020528060005260406000206000915090505481565b606060018054610f5f906125f6565b80601f0160208091040260200160405190810160405280929190818152602001828054610f8b906125f6565b8015610fd85780601f10610fad57610100808354040283529160200191610fd8565b820191906000526020600020905b815481529060010190602001808311610fbb57829003601f168201915b5050505050905090565b610ff4610fed6114f6565b8383611ae3565b5050565b60066020528060005260406000206000915054906101000a900460ff1681565b6110296110236114f6565b836117a9565b611068576040517f08c379a000000000000000000000000000000000000000000000000000000000815260040161105f906129a0565b60405180910390fd5b61107484848484611c50565b50505050565b60606110858261148a565b6110c4576040517f08c379a00000000000000000000000000000000000000000000000000000000081526004016110bb90612c2e565b60405180910390fd5b60006110ce611cac565b905060008151116110ee5760405180602001604052806000815250611119565b806110f884611cc3565b604051602001611109929190612c8a565b6040516020818303038152906040525b915050919050565b3373ffffffffffffffffffffffffffffffffffffffff168273ffffffffffffffffffffffffffffffffffffffff161415611190576040517f08c379a000000000000000000000000000000000000000000000000000000000815260040161118790612d20565b60405180910390fd5b600073ffffffffffffffffffffffffffffffffffffffff168273ffffffffffffffffffffffffffffffffffffffff161415611200576040517f08c379a00000000000000000000000000000000000000000000000000000000081526004016111f790612d8c565b60405180910390fd5b6112098161148a565b611248576040517f08c379a000000000000000000000000000000000000000000000000000000000815260040161123f90612df8565b60405180910390fd5b611253338383610b92565b5050565b6000600560008473ffffffffffffffffffffffffffffffffffffffff1673ffffffffffffffffffffffffffffffffffffffff16815260200190815260200160002060008373ffffffffffffffffffffffffffffffffffffffff1673ffffffffffffffffffffffffffffffffffffffff16815260200190815260200160002060009054906101000a900460ff16905092915050565b3373ffffffffffffffffffffffffffffffffffffffff168273ffffffffffffffffffffffffffffffffffffffff16141561135a576040517f08c379a000000000000000000000000000000000000000000000000000000000815260040161135190612d20565b60405180910390fd5b600073ffffffffffffffffffffffffffffffffffffffff168273ffffffffffffffffffffffffffffffffffffffff1614156113ca576040517f08c379a00000000000000000000000000000000000000000000000000000000081526004016113c190612d8c565b60405180910390fd5b6113d38161148a565b611412576040517f08c379a000000000000000000000000000000000000000000000000000000000815260040161140990612e64565b60405180910390fd5b61141c828261068a565b5050565b60007f01ffc9a7000000000000000000000000000000000000000000000000000000007bffffffffffffffffffffffffffffffffffffffffffffffffffffffff1916827bffffffffffffffffffffffffffffffffffffffffffffffffffffffff1916149050919050565b60008073ffffffffffffffffffffffffffffffffffffffff166002600084815260200190815260200160002060009054906101000a900473ffffffffffffffffffffffffffffffffffffffff1673ffffffffffffffffffffffffffffffffffffffff1614159050919050565b600033905090565b816004600083815260200190815260200160002060006101000a81548173ffffffffffffffffffffffffffffffffffffffff021916908373ffffffffffffffffffffffffffffffffffffffff160217905550808273ffffffffffffffffffffffffffffffffffffffff1661157183610dce565b73ffffffffffffffffffffffffffffffffffffffff167f8c5be1e5ebec7d5bd14f71427d1e84f3dd0314c0f7b2291e5b200ac8c7c3b92560405160405180910390a45050565b600081600001549050919050565b6001816000016000828254019250508190555050565b600073ffffffffffffffffffffffffffffffffffffffff168273ffffffffffffffffffffffffffffffffffffffff16141561164b576040517f08c379a000000000000000000000000000000000000000000000000000000000815260040161164290612ed0565b60405180910390fd5b6116548161148a565b15611694576040517f08c379a000000000000000000000000000000000000000000000000000000000815260040161168b90612f3c565b60405180910390fd5b6116a060008383611e24565b6001600360008473ffffffffffffffffffffffffffffffffffffffff1673ffffffffffffffffffffffffffffffffffffffff16815260200190815260200160002060008282546116f09190612f5c565b92505081905550816002600083815260200190815260200160002060006101000a81548173ffffffffffffffffffffffffffffffffffffffff021916908373ffffffffffffffffffffffffffffffffffffffff160217905550808273ffffffffffffffffffffffffffffffffffffffff16600073ffffffffffffffffffffffffffffffffffffffff167fddf252ad1be2c89b69c2b068fc378daa952ba7f163c4a11628f55a4df523b3ef60405160405180910390a45050565b60006117b48261148a565b6117f3576040517f08c379a00000000000000000000000000000000000000000000000000000000081526004016117ea90613024565b60405180910390fd5b60006117fe83610dce565b90508073ffffffffffffffffffffffffffffffffffffffff168473ffffffffffffffffffffffffffffffffffffffff16148061186d57508373ffffffffffffffffffffffffffffffffffffffff1661185584610605565b73ffffffffffffffffffffffffffffffffffffffff16145b8061187e575061187d8185611257565b5b91505092915050565b8273ffffffffffffffffffffffffffffffffffffffff166118a782610dce565b73ffffffffffffffffffffffffffffffffffffffff16146118fd576040517f08c379a00000000000000000000000000000000000000000000000000000000081526004016118f4906130b6565b60405180910390fd5b600073ffffffffffffffffffffffffffffffffffffffff168273ffffffffffffffffffffffffffffffffffffffff16141561196d576040517f08c379a000000000000000000000000000000000000000000000000000000000815260040161196490613148565b60405180910390fd5b611978838383611e24565b6119836000826114fe565b6001600360008573ffffffffffffffffffffffffffffffffffffffff1673ffffffffffffffffffffffffffffffffffffffff16815260200190815260200160002060008282546119d39190613168565b925050819055506001600360008473ffffffffffffffffffffffffffffffffffffffff1673ffffffffffffffffffffffffffffffffffffffff1681526020019081526020016000206000828254611a2a9190612f5c565b92505081905550816002600083815260200190815260200160002060006101000a81548173ffffffffffffffffffffffffffffffffffffffff021916908373ffffffffffffffffffffffffffffffffffffffff160217905550808273ffffffffffffffffffffffffffffffffffffffff168473ffffffffffffffffffffffffffffffffffffffff167fddf252ad1be2c89b69c2b068fc378daa952ba7f163c4a11628f55a4df523b3ef60405160405180910390a4505050565b8173ffffffffffffffffffffffffffffffffffffffff168373ffffffffffffffffffffffffffffffffffffffff161415611b52576040517f08c379a0000000000000000000000000000000000000000000000000000000008152600401611b49906131e8565b60405180910390fd5b80600560008573ffffffffffffffffffffffffffffffffffffffff1673ffffffffffffffffffffffffffffffffffffffff16815260200190815260200160002060008473ffffffffffffffffffffffffffffffffffffffff1673ffffffffffffffffffffffffffffffffffffffff16815260200190815260200160002060006101000a81548160ff0219169083151502179055508173ffffffffffffffffffffffffffffffffffffffff168373ffffffffffffffffffffffffffffffffffffffff167f17307eab39ab6107e8899845ad3d59bd9653f200f220920489ca2b5937696c3183604051611c439190612078565b60405180910390a3505050565b611c5b848484611887565b611c6784848484611e29565b611ca6576040517f08c379a0000000000000000000000000000000000000000000000000000000008152600401611c9d9061327a565b60405180910390fd5b50505050565b606060405180602001604052806000815250905090565b60606000821415611d0b576040518060400160405280600181526020017f30000000000000000000000000000000000000000000000000000000000000008152509050611e1f565b600082905060005b60008214611d3d578080611d26906128e5565b915050600a82611d3691906132c9565b9150611d13565b60008167ffffffffffffffff811115611d5957611d586123d9565b5b6040519080825280601f01601f191660200182016040528015611d8b5781602001600182028036833780820191505090505b5090505b60008514611e1857600182611da49190613168565b9150600a85611db391906132fa565b6030611dbf9190612f5c565b60f81b818381518110611dd557611dd461332b565b5b60200101907effffffffffffffffffffffffffffffffffffffffffffffffffffffffffffff1916908160001a905350600a85611e1191906132c9565b9450611d8f565b8093505050505b919050565b505050565b6000611e4a8473ffffffffffffffffffffffffffffffffffffffff16611fb1565b15611fa4578373ffffffffffffffffffffffffffffffffffffffff1663150b7a02611e736114f6565b8786866040518563ffffffff1660e01b8152600401611e9594939291906133af565b6020604051808303816000875af1925050508015611ed157506040513d601f19601f82011682018060405250810190611ece9190613410565b60015b611f54573d8060008114611f01576040519150601f19603f3d011682016040523d82523d6000602084013e611f06565b606091505b50600081511415611f4c576040517f08c379a0000000000000000000000000000000000000000000000000000000008152600401611f439061327a565b60405180910390fd5b805181602001fd5b63150b7a0260e01b7bffffffffffffffffffffffffffffffffffffffffffffffffffffffff1916817bffffffffffffffffffffffffffffffffffffffffffffffffffffffff191614915050611fa9565b600190505b949350505050565b600080823b905060008111915050919050565b6000604051905090565b600080fd5b600080fd5b60007fffffffff0000000000000000000000000000000000000000000000000000000082169050919050565b61200d81611fd8565b811461201857600080fd5b50565b60008135905061202a81612004565b92915050565b60006020828403121561204657612045611fce565b5b60006120548482850161201b565b91505092915050565b60008115159050919050565b6120728161205d565b82525050565b600060208201905061208d6000830184612069565b92915050565b600081519050919050565b600082825260208201905092915050565b60005b838110156120cd5780820151818401526020810190506120b2565b838111156120dc576000848401525b50505050565b6000601f19601f8301169050919050565b60006120fe82612093565b612108818561209e565b93506121188185602086016120af565b612121816120e2565b840191505092915050565b6000602082019050818103600083015261214681846120f3565b905092915050565b6000819050919050565b6121618161214e565b811461216c57600080fd5b50565b60008135905061217e81612158565b92915050565b60006020828403121561219a57612199611fce565b5b60006121a88482850161216f565b91505092915050565b600073ffffffffffffffffffffffffffffffffffffffff82169050919050565b60006121dc826121b1565b9050919050565b6121ec816121d1565b82525050565b600060208201905061220760008301846121e3565b92915050565b612216816121d1565b811461222157600080fd5b50565b6000813590506122338161220d565b92915050565b600080604083850312156122505761224f611fce565b5b600061225e85828601612224565b925050602061226f8582860161216f565b9150509250929050565b600080604083850312156122905761228f611fce565b5b600061229e8582860161216f565b92505060206122af8582860161216f565b9150509250929050565b6122c28161214e565b82525050565b60006020820190506122dd60008301846122b9565b92915050565b6000806000606084860312156122fc576122fb611fce565b5b600061230a86828701612224565b935050602061231b86828701612224565b925050604061232c8682870161216f565b9150509250925092565b60006020828403121561234c5761234b611fce565b5b600061235a84828501612224565b91505092915050565b61236c8161205d565b811461237757600080fd5b50565b60008135905061238981612363565b92915050565b600080604083850312156123a6576123a5611fce565b5b60006123b485828601612224565b92505060206123c58582860161237a565b9150509250929050565b600080fd5b600080fd5b7f4e487b7100000000000000000000000000000000000000000000000000000000600052604160045260246000fd5b612411826120e2565b810181811067ffffffffffffffff821117156124305761242f6123d9565b5b80604052505050565b6000612443611fc4565b905061244f8282612408565b919050565b600067ffffffffffffffff82111561246f5761246e6123d9565b5b612478826120e2565b9050602081019050919050565b82818337600083830152505050565b60006124a76124a284612454565b612439565b9050828152602081018484840111156124c3576124c26123d4565b5b6124ce848285612485565b509392505050565b600082601f8301126124eb576124ea6123cf565b5b81356124fb848260208601612494565b91505092915050565b6000806000806080858703121561251e5761251d611fce565b5b600061252c87828801612224565b945050602061253d87828801612224565b935050604061254e8782880161216f565b925050606085013567ffffffffffffffff81111561256f5761256e611fd3565b5b61257b878288016124d6565b91505092959194509250565b6000806040838503121561259e5761259d611fce565b5b60006125ac85828601612224565b92505060206125bd85828601612224565b9150509250929050565b7f4e487b7100000000000000000000000000000000000000000000000000000000600052602260045260246000fd5b6000600282049050600182168061260e57607f821691505b60208210811415612622576126216125c7565b5b50919050565b7f4552433732313a20617070726f76656420717565727920666f72206e6f6e657860008201527f697374656e7420746f6b656e0000000000000000000000000000000000000000602082015250565b6000612684602c8361209e565b915061268f82612628565b604082019050919050565b600060208201905081810360008301526126b381612677565b9050919050565b7f4552433732313a20617070726f76616c20746f2063757272656e74206f776e6560008201527f7200000000000000000000000000000000000000000000000000000000000000602082015250565b600061271660218361209e565b9150612721826126ba565b604082019050919050565b6000602082019050818103600083015261274581612709565b9050919050565b7f4552433732313a20617070726f76652063616c6c6572206973206e6f74206f7760008201527f6e6572206e6f7220617070726f76656420666f7220616c6c0000000000000000602082015250565b60006127a860388361209e565b91506127b38261274c565b604082019050919050565b600060208201905081810360008301526127d78161279b565b9050919050565b7f4e6f74206f776e65720000000000000000000000000000000000000000000000600082015250565b600061281460098361209e565b915061281f826127de565b602082019050919050565b6000602082019050818103600083015261284381612807565b9050919050565b7f546f6b656e206e6f742065786973740000000000000000000000000000000000600082015250565b6000612880600f8361209e565b915061288b8261284a565b602082019050919050565b600060208201905081810360008301526128af81612873565b9050919050565b7f4e487b7100000000000000000000000000000000000000000000000000000000600052601160045260246000fd5b60006128f08261214e565b91507fffffffffffffffffffffffffffffffffffffffffffffffffffffffffffffffff821415612923576129226128b6565b5b600182019050919050565b7f4552433732313a207472616e736665722063616c6c6572206973206e6f74206f60008201527f776e6572206e6f7220617070726f766564000000000000000000000000000000602082015250565b600061298a60318361209e565b91506129958261292e565b604082019050919050565b600060208201905081810360008301526129b98161297d565b9050919050565b7f42757965722061646472657373207a65726f0000000000000000000000000000600082015250565b60006129f660128361209e565b9150612a01826129c0565b602082019050919050565b60006020820190508181036000830152612a25816129e9565b9050919050565b7f5472616e7366657220746f206f776e6572000000000000000000000000000000600082015250565b6000612a6260118361209e565b9150612a6d82612a2c565b602082019050919050565b60006020820190508181036000830152612a9181612a55565b9050919050565b7f4552433732313a206f776e657220717565727920666f72206e6f6e657869737460008201527f656e7420746f6b656e0000000000000000000000000000000000000000000000602082015250565b6000612af460298361209e565b9150612aff82612a98565b604082019050919050565b60006020820190508181036000830152612b2381612ae7565b9050919050565b7f4552433732313a2062616c616e636520717565727920666f7220746865207a6560008201527f726f206164647265737300000000000000000000000000000000000000000000602082015250565b6000612b86602a8361209e565b9150612b9182612b2a565b604082019050919050565b60006020820190508181036000830152612bb581612b79565b9050919050565b7f4552433732314d657461646174613a2055524920717565727920666f72206e6f60008201527f6e6578697374656e7420746f6b656e0000000000000000000000000000000000602082015250565b6000612c18602f8361209e565b9150612c2382612bbc565b604082019050919050565b60006020820190508181036000830152612c4781612c0b565b9050919050565b600081905092915050565b6000612c6482612093565b612c6e8185612c4e565b9350612c7e8185602086016120af565b80840191505092915050565b6000612c968285612c59565b9150612ca28284612c59565b91508190509392505050565b7f43616e20206e6f74207472616e7366657220746f2073616d652061646472657360008201527f7300000000000000000000000000000000000000000000000000000000000000602082015250565b6000612d0a60218361209e565b9150612d1582612cae565b604082019050919050565b60006020820190508181036000830152612d3981612cfd565b9050919050565b7f43616e20206e6f74206265207a65726f20616464726573730000000000000000600082015250565b6000612d7660188361209e565b9150612d8182612d40565b602082019050919050565b60006020820190508181036000830152612da581612d69565b9050919050565b7f4e6f20746f6b656e202065786973747300000000000000000000000000000000600082015250565b6000612de260108361209e565b9150612ded82612dac565b602082019050919050565b60006020820190508181036000830152612e1181612dd5565b9050919050565b7f4e6f20746f6b656e206578697374000000000000000000000000000000000000600082015250565b6000612e4e600e8361209e565b9150612e5982612e18565b602082019050919050565b60006020820190508181036000830152612e7d81612e41565b9050919050565b7f4552433732313a206d696e7420746f20746865207a65726f2061646472657373600082015250565b6000612eba60208361209e565b9150612ec582612e84565b602082019050919050565b60006020820190508181036000830152612ee981612ead565b9050919050565b7f4552433732313a20746f6b656e20616c7265616479206d696e74656400000000600082015250565b6000612f26601c8361209e565b9150612f3182612ef0565b602082019050919050565b60006020820190508181036000830152612f5581612f19565b9050919050565b6000612f678261214e565b9150612f728361214e565b9250827fffffffffffffffffffffffffffffffffffffffffffffffffffffffffffffffff03821115612fa757612fa66128b6565b5b828201905092915050565b7f4552433732313a206f70657261746f7220717565727920666f72206e6f6e657860008201527f697374656e7420746f6b656e0000000000000000000000000000000000000000602082015250565b600061300e602c8361209e565b915061301982612fb2565b604082019050919050565b6000602082019050818103600083015261303d81613001565b9050919050565b7f4552433732313a207472616e73666572206f6620746f6b656e2074686174206960008201527f73206e6f74206f776e0000000000000000000000000000000000000000000000602082015250565b60006130a060298361209e565b91506130ab82613044565b604082019050919050565b600060208201905081810360008301526130cf81613093565b9050919050565b7f4552433732313a207472616e7366657220746f20746865207a65726f2061646460008201527f7265737300000000000000000000000000000000000000000000000000000000602082015250565b600061313260248361209e565b915061313d826130d6565b604082019050919050565b6000602082019050818103600083015261316181613125565b9050919050565b60006131738261214e565b915061317e8361214e565b925082821015613191576131906128b6565b5b828203905092915050565b7f4552433732313a20617070726f766520746f2063616c6c657200000000000000600082015250565b60006131d260198361209e565b91506131dd8261319c565b602082019050919050565b60006020820190508181036000830152613201816131c5565b9050919050565b7f4552433732313a207472616e7366657220746f206e6f6e20455243373231526560008201527f63656976657220696d706c656d656e7465720000000000000000000000000000602082015250565b600061326460328361209e565b915061326f82613208565b604082019050919050565b6000602082019050818103600083015261329381613257565b9050919050565b7f4e487b7100000000000000000000000000000000000000000000000000000000600052601260045260246000fd5b60006132d48261214e565b91506132df8361214e565b9250826132ef576132ee61329a565b5b828204905092915050565b60006133058261214e565b91506133108361214e565b9250826133205761331f61329a565b5b828206905092915050565b7f4e487b7100000000000000000000000000000000000000000000000000000000600052603260045260246000fd5b600081519050919050565b600082825260208201905092915050565b60006133818261335a565b61338b8185613365565b935061339b8185602086016120af565b6133a4816120e2565b840191505092915050565b60006080820190506133c460008301876121e3565b6133d160208301866121e3565b6133de60408301856122b9565b81810360608301526133f08184613376565b905095945050505050565b60008151905061340a81612004565b92915050565b60006020828403121561342657613425611fce565b5b6000613434848285016133fb565b9150509291505056fea26469706673582212202cd4e05a1b4ec75e2ad3e9740da14cad178ec1b2c85891841b05596ae4084e3a64736f6c634300080b0033",
  "immutableReferences": {},
  "source": "// SPDX-License-Identifier: MIT\r\npragma solidity ^0.8.0;\r\n\r\nimport \"@openzeppelin/contracts/token/ERC721/ERC721.sol\";\r\nimport \"@openzeppelin/contracts/utils/Counters.sol\";\r\n\r\ncontract OpenMarket is ERC721 {\r\n    using Counters for Counters.Counter;\r\n\r\n    //   uint256[] tokenid;\r\n    //   uint256[] costOftoken;\r\n    //   mapping(uint256 => uint256) private costOf;\r\n    //   mapping(address => uint256) private etherOf;\r\n\r\n    mapping(uint =>bool ) public forsale;\r\n    mapping(uint =>uint ) public costOftoken;\r\n\r\n    Counters.Counter private _tokenIds;\r\n\r\n    uint[] private totalTokens;\r\n\r\n    constructor() ERC721(\"NFT TOKEN\", \"TFN\") {}\r\n\r\n    function mint() public\r\n    {\r\n        uint256 newItemId = _tokenIds.current();\r\n        totalTokens.push(newItemId);\r\n        _tokenIds.increment();\r\n        _mint(msg.sender, newItemId);\r\n        forsale[newItemId] = false;\r\n    }\r\n    function mintInBatch(uint256 noOfTokens) public {\r\n        for(uint i=0;i<noOfTokens;i++) {\r\n            uint256 newItemId = _tokenIds.current();\r\n            totalTokens.push(newItemId);\r\n            _tokenIds.increment();\r\n            _mint(msg.sender, newItemId);\r\n        }\r\n    }\r\n    function totalSupply() public view returns(uint256) {\r\n        return totalTokens.length;\r\n    }\r\n\r\n    function tokenForsale(uint tokenId, uint price) public {\r\n        require(ownerOf(tokenId) == _msgSender(),\"Not owner\");\r\n        require(_exists(tokenId),\"Token not exist\");\r\n        forsale[tokenId] = true;\r\n        costOftoken[tokenId] = price;\r\n    }\r\n\r\n    function priceChange(uint price, uint tokenId) public {\r\n          require(ownerOf(tokenId) == _msgSender(),\"Not owner\");\r\n          require(_exists(tokenId),\"Token not exist\");\r\n          costOftoken[tokenId] = price;\r\n    }\r\n\r\n    function buyNFT(uint tokenId)public {\r\n        address owner = ownerOf(tokenId);\r\n        require(_msgSender() != address(0),\"Buyer address zero\");\r\n        require(_msgSender() != owner , \"Transfer to owner\");\r\n        _tokenApprovals[tokenId] = _msgSender();\r\n        transferFrom(owner, _msgSender(), tokenId);\r\n        _tokenApprovals[tokenId] = address(0);\r\n    }\r\n\r\n    function removeFromSale(uint tokenId)public{\r\n        require(ownerOf(tokenId) == _msgSender(),\"Not owner\");\r\n        require(_exists(tokenId),\"Token not exist\");\r\n        forsale[tokenId] = false;\r\n        costOftoken[tokenId] = 0;\r\n    }\r\n\r\nfunction _TransferFrom(address to, uint tokenId) public{\r\n     require(to != msg.sender , 'Can  not transfer to same address');\r\n     require(to != address(0) , 'Can  not be zero address');\r\n     require(_exists(tokenId),\"No token  exists\");\r\n     \r\n      transferFrom(msg.sender,to,tokenId);\r\n\r\n }\r\n\r\n function _Approve(address to , uint tokenId) public {\r\n      require(to != msg.sender , 'Can  not transfer to same address');\r\n     require(to != address(0) , 'Can  not be zero address');\r\n      require(_exists(tokenId),\"No token exist\");\r\n     approve(to , tokenId);\r\n }\r\n\r\n\r\n  \r\n\r\n    //  function _transferFrom(address from, address to , uint256 tokenid) public payable {\r\n    //     require(etherOf[to] >= costOf[tokenid], 'Low ether in buyers account');\r\n    //     transferFrom(from,to,tokenid);\r\n    //     etherOf[to]-=costOf[tokenid];\r\n    //     etherOf[from]+=costOf[tokenid];\r\n    // }\r\n\r\n}\r\n    // uint256 private tokenCounter;\r\n    // constructor() ERC721(\"Kryptonion\", \"KN\"){\r\n    //     tokenCounter = 0;\r\n    // }\r\n\r\n    // function mint() public {\r\n    //     uint256 newNFTTokenId = tokenCounter;\r\n    //     _mint(msg.sender, newNFTTokenId);\r\n    //     tokenCounter+=1;\r\n    // }\r\n// }",
  "sourcePath": "D:\\blockChainProject\\Main2\\src\\contracts\\OpenMarket.sol",
  "compiler": {
    "name": "solc",
    "version": "0.8.11+commit.d7f03943.Emscripten.clang"
  },
  "schemaVersion": "3.4.3",
  "updatedAt": "2021-12-23T08:24:57.490Z",
  "devdoc": {
    "kind": "dev",
    "methods": {
      "approve(address,uint256)": {
        "details": "See {IERC721-approve}."
      },
      "balanceOf(address)": {
        "details": "See {IERC721-balanceOf}."
      },
      "getApproved(uint256)": {
        "details": "See {IERC721-getApproved}."
      },
      "isApprovedForAll(address,address)": {
        "details": "See {IERC721-isApprovedForAll}."
      },
      "name()": {
        "details": "See {IERC721Metadata-name}."
      },
      "ownerOf(uint256)": {
        "details": "See {IERC721-ownerOf}."
      },
      "safeTransferFrom(address,address,uint256)": {
        "details": "See {IERC721-safeTransferFrom}."
      },
      "safeTransferFrom(address,address,uint256,bytes)": {
        "details": "See {IERC721-safeTransferFrom}."
      },
      "setApprovalForAll(address,bool)": {
        "details": "See {IERC721-setApprovalForAll}."
      },
      "supportsInterface(bytes4)": {
        "details": "See {IERC165-supportsInterface}."
      },
      "symbol()": {
        "details": "See {IERC721Metadata-symbol}."
      },
      "tokenURI(uint256)": {
        "details": "See {IERC721Metadata-tokenURI}."
      },
      "transferFrom(address,address,uint256)": {
        "details": "See {IERC721-transferFrom}."
      }
    },
    "version": 1
  },
  "userdoc": {
    "kind": "user",
    "methods": {},
    "version": 1
  }
}