{
  "contractName": "OpenMarket",
  "abi": [
    {
      "inputs": [],
      "stateMutability": "nonpayable",
      "type": "constructor"
    },
    {
      "anonymous": false,
      "inputs": [
        {
          "indexed": true,
          "internalType": "address",
          "name": "owner",
          "type": "address"
        },
        {
          "indexed": true,
          "internalType": "address",
          "name": "approved",
          "type": "address"
        },
        {
          "indexed": true,
          "internalType": "uint256",
          "name": "tokenId",
          "type": "uint256"
        }
      ],
      "name": "Approval",
      "type": "event"
    },
    {
      "anonymous": false,
      "inputs": [
        {
          "indexed": true,
          "internalType": "address",
          "name": "owner",
          "type": "address"
        },
        {
          "indexed": true,
          "internalType": "address",
          "name": "operator",
          "type": "address"
        },
        {
          "indexed": false,
          "internalType": "bool",
          "name": "approved",
          "type": "bool"
        }
      ],
      "name": "ApprovalForAll",
      "type": "event"
    },
    {
      "anonymous": false,
      "inputs": [
        {
          "indexed": true,
          "internalType": "address",
          "name": "from",
          "type": "address"
        },
        {
          "indexed": true,
          "internalType": "address",
          "name": "to",
          "type": "address"
        },
        {
          "indexed": true,
          "internalType": "uint256",
          "name": "tokenId",
          "type": "uint256"
        }
      ],
      "name": "Transfer",
      "type": "event"
    },
    {
      "inputs": [
        {
          "internalType": "address",
          "name": "to",
          "type": "address"
        },
        {
          "internalType": "uint256",
          "name": "tokenId",
          "type": "uint256"
        }
      ],
      "name": "approve",
      "outputs": [],
      "stateMutability": "nonpayable",
      "type": "function"
    },
    {
      "inputs": [
        {
          "internalType": "address",
          "name": "owner",
          "type": "address"
        }
      ],
      "name": "balanceOf",
      "outputs": [
        {
          "internalType": "uint256",
          "name": "",
          "type": "uint256"
        }
      ],
      "stateMutability": "view",
      "type": "function",
      "constant": true
    },
    {
      "inputs": [
        {
          "internalType": "uint256",
          "name": "",
          "type": "uint256"
        }
      ],
      "name": "costOftoken",
      "outputs": [
        {
          "internalType": "uint256",
          "name": "",
          "type": "uint256"
        }
      ],
      "stateMutability": "view",
      "type": "function",
      "constant": true
    },
    {
      "inputs": [
        {
          "internalType": "uint256",
          "name": "",
          "type": "uint256"
        }
      ],
      "name": "forsale",
      "outputs": [
        {
          "internalType": "bool",
          "name": "",
          "type": "bool"
        }
      ],
      "stateMutability": "view",
      "type": "function",
      "constant": true
    },
    {
      "inputs": [
        {
          "internalType": "uint256",
          "name": "tokenId",
          "type": "uint256"
        }
      ],
      "name": "getApproved",
      "outputs": [
        {
          "internalType": "address",
          "name": "",
          "type": "address"
        }
      ],
      "stateMutability": "view",
      "type": "function",
      "constant": true
    },
    {
      "inputs": [
        {
          "internalType": "address",
          "name": "owner",
          "type": "address"
        },
        {
          "internalType": "address",
          "name": "operator",
          "type": "address"
        }
      ],
      "name": "isApprovedForAll",
      "outputs": [
        {
          "internalType": "bool",
          "name": "",
          "type": "bool"
        }
      ],
      "stateMutability": "view",
      "type": "function",
      "constant": true
    },
    {
      "inputs": [],
      "name": "name",
      "outputs": [
        {
          "internalType": "string",
          "name": "",
          "type": "string"
        }
      ],
      "stateMutability": "view",
      "type": "function",
      "constant": true
    },
    {
      "inputs": [
        {
          "internalType": "uint256",
          "name": "tokenId",
          "type": "uint256"
        }
      ],
      "name": "ownerOf",
      "outputs": [
        {
          "internalType": "address",
          "name": "",
          "type": "address"
        }
      ],
      "stateMutability": "view",
      "type": "function",
      "constant": true
    },
    {
      "inputs": [
        {
          "internalType": "address",
          "name": "from",
          "type": "address"
        },
        {
          "internalType": "address",
          "name": "to",
          "type": "address"
        },
        {
          "internalType": "uint256",
          "name": "tokenId",
          "type": "uint256"
        }
      ],
      "name": "safeTransferFrom",
      "outputs": [],
      "stateMutability": "nonpayable",
      "type": "function"
    },
    {
      "inputs": [
        {
          "internalType": "address",
          "name": "from",
          "type": "address"
        },
        {
          "internalType": "address",
          "name": "to",
          "type": "address"
        },
        {
          "internalType": "uint256",
          "name": "tokenId",
          "type": "uint256"
        },
        {
          "internalType": "bytes",
          "name": "_data",
          "type": "bytes"
        }
      ],
      "name": "safeTransferFrom",
      "outputs": [],
      "stateMutability": "nonpayable",
      "type": "function"
    },
    {
      "inputs": [
        {
          "internalType": "address",
          "name": "operator",
          "type": "address"
        },
        {
          "internalType": "bool",
          "name": "approved",
          "type": "bool"
        }
      ],
      "name": "setApprovalForAll",
      "outputs": [],
      "stateMutability": "nonpayable",
      "type": "function"
    },
    {
      "inputs": [
        {
          "internalType": "bytes4",
          "name": "interfaceId",
          "type": "bytes4"
        }
      ],
      "name": "supportsInterface",
      "outputs": [
        {
          "internalType": "bool",
          "name": "",
          "type": "bool"
        }
      ],
      "stateMutability": "view",
      "type": "function",
      "constant": true
    },
    {
      "inputs": [],
      "name": "symbol",
      "outputs": [
        {
          "internalType": "string",
          "name": "",
          "type": "string"
        }
      ],
      "stateMutability": "view",
      "type": "function",
      "constant": true
    },
    {
      "inputs": [
        {
          "internalType": "uint256",
          "name": "tokenId",
          "type": "uint256"
        }
      ],
      "name": "tokenURI",
      "outputs": [
        {
          "internalType": "string",
          "name": "",
          "type": "string"
        }
      ],
      "stateMutability": "view",
      "type": "function",
      "constant": true
    },
    {
      "inputs": [
        {
          "internalType": "address",
          "name": "from",
          "type": "address"
        },
        {
          "internalType": "address",
          "name": "to",
          "type": "address"
        },
        {
          "internalType": "uint256",
          "name": "tokenId",
          "type": "uint256"
        }
      ],
      "name": "transferFrom",
      "outputs": [],
      "stateMutability": "nonpayable",
      "type": "function"
    },
    {
      "inputs": [],
      "name": "mint",
      "outputs": [],
      "stateMutability": "nonpayable",
      "type": "function"
    },
    {
      "inputs": [
        {
          "internalType": "uint256",
          "name": "noOfTokens",
          "type": "uint256"
        }
      ],
      "name": "mintInBatch",
      "outputs": [],
      "stateMutability": "nonpayable",
      "type": "function"
    },
    {
      "inputs": [],
      "name": "totalSupply",
      "outputs": [
        {
          "internalType": "uint256",
          "name": "",
          "type": "uint256"
        }
      ],
      "stateMutability": "view",
      "type": "function",
      "constant": true
    },
    {
      "inputs": [
        {
          "internalType": "uint256",
          "name": "tokenId",
          "type": "uint256"
        },
        {
          "internalType": "uint256",
          "name": "price",
          "type": "uint256"
        }
      ],
      "name": "tokenforsale",
      "outputs": [],
      "stateMutability": "nonpayable",
      "type": "function"
    },
    {
      "inputs": [
        {
          "internalType": "uint256",
          "name": "price",
          "type": "uint256"
        },
        {
          "internalType": "uint256",
          "name": "tokenId",
          "type": "uint256"
        }
      ],
      "name": "priceChange",
      "outputs": [],
      "stateMutability": "nonpayable",
      "type": "function"
    }
  ],
  "bytecode": "0x60806040523480156200001157600080fd5b506040518060400160405280600981526020017f4e465420544f4b454e00000000000000000000000000000000000000000000008152506040518060400160405280600381526020017f54464e0000000000000000000000000000000000000000000000000000000000815250816000908051906020019062000096929190620000b8565b508060019080519060200190620000af929190620000b8565b505050620001cd565b828054620000c69062000197565b90600052602060002090601f016020900481019282620000ea576000855562000136565b82601f106200010557805160ff191683800117855562000136565b8280016001018555821562000136579182015b828111156200013557825182559160200191906001019062000118565b5b50905062000145919062000149565b5090565b5b80821115620001645760008160009055506001016200014a565b5090565b7f4e487b7100000000000000000000000000000000000000000000000000000000600052602260045260246000fd5b60006002820490506001821680620001b057607f821691505b60208210811415620001c757620001c662000168565b5b50919050565b612bf580620001dd6000396000f3fe608060405234801561001057600080fd5b506004361061012c5760003560e01c80636352211e116100ad578063a4903c7511610071578063a4903c751461032d578063b88d4fde1461035d578063c87b56dd14610379578063e985e9c5146103a9578063f655bc79146103d95761012c565b80636352211e1461026357806370a08231146102935780637d44c108146102c357806395d89b41146102f3578063a22cb465146103115761012c565b80631249c58b116100f45780631249c58b146101e757806318160ddd146101f157806320477b8c1461020f57806323b872dd1461022b57806342842e0e146102475761012c565b806301ffc9a71461013157806306fdde0314610161578063081812fc1461017f578063095ea7b3146101af5780630d5cda70146101cb575b600080fd5b61014b60048036038101906101469190611a60565b6103f5565b6040516101589190611aa8565b60405180910390f35b6101696104d7565b6040516101769190611b5c565b60405180910390f35b61019960048036038101906101949190611bb4565b610569565b6040516101a69190611c22565b60405180910390f35b6101c960048036038101906101c49190611c69565b6105ee565b005b6101e560048036038101906101e09190611ca9565b610706565b005b6101ef6107e7565b005b6101f9610861565b6040516102069190611cf8565b60405180910390f35b61022960048036038101906102249190611bb4565b61086e565b005b61024560048036038101906102409190611d13565b6108dc565b005b610261600480360381019061025c9190611d13565b61093c565b005b61027d60048036038101906102789190611bb4565b61095c565b60405161028a9190611c22565b60405180910390f35b6102ad60048036038101906102a89190611d66565b610a0e565b6040516102ba9190611cf8565b60405180910390f35b6102dd60048036038101906102d89190611bb4565b610ac6565b6040516102ea9190611cf8565b60405180910390f35b6102fb610ade565b6040516103089190611b5c565b60405180910390f35b61032b60048036038101906103269190611dbf565b610b70565b005b61034760048036038101906103429190611bb4565b610b86565b6040516103549190611aa8565b60405180910390f35b61037760048036038101906103729190611f34565b610ba6565b005b610393600480360381019061038e9190611bb4565b610c08565b6040516103a09190611b5c565b60405180910390f35b6103c360048036038101906103be9190611fb7565b610caf565b6040516103d09190611aa8565b60405180910390f35b6103f360048036038101906103ee9190611ca9565b610d43565b005b60007f80ac58cd000000000000000000000000000000000000000000000000000000007bffffffffffffffffffffffffffffffffffffffffffffffffffffffff1916827bffffffffffffffffffffffffffffffffffffffffffffffffffffffff191614806104c057507f5b5e139f000000000000000000000000000000000000000000000000000000007bffffffffffffffffffffffffffffffffffffffffffffffffffffffff1916827bffffffffffffffffffffffffffffffffffffffffffffffffffffffff1916145b806104d057506104cf82610e50565b5b9050919050565b6060600080546104e690612026565b80601f016020809104026020016040519081016040528092919081815260200182805461051290612026565b801561055f5780601f106105345761010080835404028352916020019161055f565b820191906000526020600020905b81548152906001019060200180831161054257829003601f168201915b5050505050905090565b600061057482610eba565b6105b3576040517f08c379a00000000000000000000000000000000000000000000000000000000081526004016105aa906120ca565b60405180910390fd5b6004600083815260200190815260200160002060009054906101000a900473ffffffffffffffffffffffffffffffffffffffff169050919050565b60006105f98261095c565b90508073ffffffffffffffffffffffffffffffffffffffff168373ffffffffffffffffffffffffffffffffffffffff16141561066a576040517f08c379a00000000000000000000000000000000000000000000000000000000081526004016106619061215c565b60405180910390fd5b8073ffffffffffffffffffffffffffffffffffffffff16610689610f26565b73ffffffffffffffffffffffffffffffffffffffff1614806106b857506106b7816106b2610f26565b610caf565b5b6106f7576040517f08c379a00000000000000000000000000000000000000000000000000000000081526004016106ee906121ee565b60405180910390fd5b6107018383610f2e565b505050565b61070e610f26565b73ffffffffffffffffffffffffffffffffffffffff1661072d8261095c565b73ffffffffffffffffffffffffffffffffffffffff1614610783576040517f08c379a000000000000000000000000000000000000000000000000000000000815260040161077a9061225a565b60405180910390fd5b61078c81610eba565b6107cb576040517f08c379a00000000000000000000000000000000000000000000000000000000081526004016107c2906122c6565b60405180910390fd5b8160076000838152602001908152602001600020819055505050565b60006107f36008610fe7565b905060098190806001815401808255809150506001900390600052602060002001600090919091909150556108286008610ff5565b610832338261100b565b60006006600083815260200190815260200160002060006101000a81548160ff02191690831515021790555050565b6000600980549050905090565b60005b818110156108d85760006108856008610fe7565b905060098190806001815401808255809150506001900390600052602060002001600090919091909150556108ba6008610ff5565b6108c4338261100b565b5080806108d090612315565b915050610871565b5050565b6108ed6108e7610f26565b826111d9565b61092c576040517f08c379a0000000000000000000000000000000000000000000000000000000008152600401610923906123d0565b60405180910390fd5b6109378383836112b7565b505050565b61095783838360405180602001604052806000815250610ba6565b505050565b6000806002600084815260200190815260200160002060009054906101000a900473ffffffffffffffffffffffffffffffffffffffff169050600073ffffffffffffffffffffffffffffffffffffffff168173ffffffffffffffffffffffffffffffffffffffff161415610a05576040517f08c379a00000000000000000000000000000000000000000000000000000000081526004016109fc90612462565b60405180910390fd5b80915050919050565b60008073ffffffffffffffffffffffffffffffffffffffff168273ffffffffffffffffffffffffffffffffffffffff161415610a7f576040517f08c379a0000000000000000000000000000000000000000000000000000000008152600401610a76906124f4565b60405180910390fd5b600360008373ffffffffffffffffffffffffffffffffffffffff1673ffffffffffffffffffffffffffffffffffffffff168152602001908152602001600020549050919050565b60076020528060005260406000206000915090505481565b606060018054610aed90612026565b80601f0160208091040260200160405190810160405280929190818152602001828054610b1990612026565b8015610b665780601f10610b3b57610100808354040283529160200191610b66565b820191906000526020600020905b815481529060010190602001808311610b4957829003601f168201915b5050505050905090565b610b82610b7b610f26565b8383611513565b5050565b60066020528060005260406000206000915054906101000a900460ff1681565b610bb7610bb1610f26565b836111d9565b610bf6576040517f08c379a0000000000000000000000000000000000000000000000000000000008152600401610bed906123d0565b60405180910390fd5b610c0284848484611680565b50505050565b6060610c1382610eba565b610c52576040517f08c379a0000000000000000000000000000000000000000000000000000000008152600401610c4990612586565b60405180910390fd5b6000610c5c6116dc565b90506000815111610c7c5760405180602001604052806000815250610ca7565b80610c86846116f3565b604051602001610c979291906125e2565b6040516020818303038152906040525b915050919050565b6000600560008473ffffffffffffffffffffffffffffffffffffffff1673ffffffffffffffffffffffffffffffffffffffff16815260200190815260200160002060008373ffffffffffffffffffffffffffffffffffffffff1673ffffffffffffffffffffffffffffffffffffffff16815260200190815260200160002060009054906101000a900460ff16905092915050565b610d4b610f26565b73ffffffffffffffffffffffffffffffffffffffff16610d6a8361095c565b73ffffffffffffffffffffffffffffffffffffffff1614610dc0576040517f08c379a0000000000000000000000000000000000000000000000000000000008152600401610db79061225a565b60405180910390fd5b610dc982610eba565b610e08576040517f08c379a0000000000000000000000000000000000000000000000000000000008152600401610dff906122c6565b60405180910390fd5b60016006600084815260200190815260200160002060006101000a81548160ff0219169083151502179055508060076000848152602001908152602001600020819055505050565b60007f01ffc9a7000000000000000000000000000000000000000000000000000000007bffffffffffffffffffffffffffffffffffffffffffffffffffffffff1916827bffffffffffffffffffffffffffffffffffffffffffffffffffffffff1916149050919050565b60008073ffffffffffffffffffffffffffffffffffffffff166002600084815260200190815260200160002060009054906101000a900473ffffffffffffffffffffffffffffffffffffffff1673ffffffffffffffffffffffffffffffffffffffff1614159050919050565b600033905090565b816004600083815260200190815260200160002060006101000a81548173ffffffffffffffffffffffffffffffffffffffff021916908373ffffffffffffffffffffffffffffffffffffffff160217905550808273ffffffffffffffffffffffffffffffffffffffff16610fa18361095c565b73ffffffffffffffffffffffffffffffffffffffff167f8c5be1e5ebec7d5bd14f71427d1e84f3dd0314c0f7b2291e5b200ac8c7c3b92560405160405180910390a45050565b600081600001549050919050565b6001816000016000828254019250508190555050565b600073ffffffffffffffffffffffffffffffffffffffff168273ffffffffffffffffffffffffffffffffffffffff16141561107b576040517f08c379a000000000000000000000000000000000000000000000000000000000815260040161107290612652565b60405180910390fd5b61108481610eba565b156110c4576040517f08c379a00000000000000000000000000000000000000000000000000000000081526004016110bb906126be565b60405180910390fd5b6110d060008383611854565b6001600360008473ffffffffffffffffffffffffffffffffffffffff1673ffffffffffffffffffffffffffffffffffffffff168152602001908152602001600020600082825461112091906126de565b92505081905550816002600083815260200190815260200160002060006101000a81548173ffffffffffffffffffffffffffffffffffffffff021916908373ffffffffffffffffffffffffffffffffffffffff160217905550808273ffffffffffffffffffffffffffffffffffffffff16600073ffffffffffffffffffffffffffffffffffffffff167fddf252ad1be2c89b69c2b068fc378daa952ba7f163c4a11628f55a4df523b3ef60405160405180910390a45050565b60006111e482610eba565b611223576040517f08c379a000000000000000000000000000000000000000000000000000000000815260040161121a906127a6565b60405180910390fd5b600061122e8361095c565b90508073ffffffffffffffffffffffffffffffffffffffff168473ffffffffffffffffffffffffffffffffffffffff16148061129d57508373ffffffffffffffffffffffffffffffffffffffff1661128584610569565b73ffffffffffffffffffffffffffffffffffffffff16145b806112ae57506112ad8185610caf565b5b91505092915050565b8273ffffffffffffffffffffffffffffffffffffffff166112d78261095c565b73ffffffffffffffffffffffffffffffffffffffff161461132d576040517f08c379a000000000000000000000000000000000000000000000000000000000815260040161132490612838565b60405180910390fd5b600073ffffffffffffffffffffffffffffffffffffffff168273ffffffffffffffffffffffffffffffffffffffff16141561139d576040517f08c379a0000000000000000000000000000000000000000000000000000000008152600401611394906128ca565b60405180910390fd5b6113a8838383611854565b6113b3600082610f2e565b6001600360008573ffffffffffffffffffffffffffffffffffffffff1673ffffffffffffffffffffffffffffffffffffffff168152602001908152602001600020600082825461140391906128ea565b925050819055506001600360008473ffffffffffffffffffffffffffffffffffffffff1673ffffffffffffffffffffffffffffffffffffffff168152602001908152602001600020600082825461145a91906126de565b92505081905550816002600083815260200190815260200160002060006101000a81548173ffffffffffffffffffffffffffffffffffffffff021916908373ffffffffffffffffffffffffffffffffffffffff160217905550808273ffffffffffffffffffffffffffffffffffffffff168473ffffffffffffffffffffffffffffffffffffffff167fddf252ad1be2c89b69c2b068fc378daa952ba7f163c4a11628f55a4df523b3ef60405160405180910390a4505050565b8173ffffffffffffffffffffffffffffffffffffffff168373ffffffffffffffffffffffffffffffffffffffff161415611582576040517f08c379a00000000000000000000000000000000000000000000000000000000081526004016115799061296a565b60405180910390fd5b80600560008573ffffffffffffffffffffffffffffffffffffffff1673ffffffffffffffffffffffffffffffffffffffff16815260200190815260200160002060008473ffffffffffffffffffffffffffffffffffffffff1673ffffffffffffffffffffffffffffffffffffffff16815260200190815260200160002060006101000a81548160ff0219169083151502179055508173ffffffffffffffffffffffffffffffffffffffff168373ffffffffffffffffffffffffffffffffffffffff167f17307eab39ab6107e8899845ad3d59bd9653f200f220920489ca2b5937696c31836040516116739190611aa8565b60405180910390a3505050565b61168b8484846112b7565b61169784848484611859565b6116d6576040517f08c379a00000000000000000000000000000000000000000000000000000000081526004016116cd906129fc565b60405180910390fd5b50505050565b606060405180602001604052806000815250905090565b6060600082141561173b576040518060400160405280600181526020017f3000000000000000000000000000000000000000000000000000000000000000815250905061184f565b600082905060005b6000821461176d57808061175690612315565b915050600a826117669190612a4b565b9150611743565b60008167ffffffffffffffff81111561178957611788611e09565b5b6040519080825280601f01601f1916602001820160405280156117bb5781602001600182028036833780820191505090505b5090505b60008514611848576001826117d491906128ea565b9150600a856117e39190612a7c565b60306117ef91906126de565b60f81b81838151811061180557611804612aad565b5b60200101907effffffffffffffffffffffffffffffffffffffffffffffffffffffffffffff1916908160001a905350600a856118419190612a4b565b94506117bf565b8093505050505b919050565b505050565b600061187a8473ffffffffffffffffffffffffffffffffffffffff166119e1565b156119d4578373ffffffffffffffffffffffffffffffffffffffff1663150b7a026118a3610f26565b8786866040518563ffffffff1660e01b81526004016118c59493929190612b31565b6020604051808303816000875af192505050801561190157506040513d601f19601f820116820180604052508101906118fe9190612b92565b60015b611984573d8060008114611931576040519150601f19603f3d011682016040523d82523d6000602084013e611936565b606091505b5060008151141561197c576040517f08c379a0000000000000000000000000000000000000000000000000000000008152600401611973906129fc565b60405180910390fd5b805181602001fd5b63150b7a0260e01b7bffffffffffffffffffffffffffffffffffffffffffffffffffffffff1916817bffffffffffffffffffffffffffffffffffffffffffffffffffffffff1916149150506119d9565b600190505b949350505050565b600080823b905060008111915050919050565b6000604051905090565b600080fd5b600080fd5b60007fffffffff0000000000000000000000000000000000000000000000000000000082169050919050565b611a3d81611a08565b8114611a4857600080fd5b50565b600081359050611a5a81611a34565b92915050565b600060208284031215611a7657611a756119fe565b5b6000611a8484828501611a4b565b91505092915050565b60008115159050919050565b611aa281611a8d565b82525050565b6000602082019050611abd6000830184611a99565b92915050565b600081519050919050565b600082825260208201905092915050565b60005b83811015611afd578082015181840152602081019050611ae2565b83811115611b0c576000848401525b50505050565b6000601f19601f8301169050919050565b6000611b2e82611ac3565b611b388185611ace565b9350611b48818560208601611adf565b611b5181611b12565b840191505092915050565b60006020820190508181036000830152611b768184611b23565b905092915050565b6000819050919050565b611b9181611b7e565b8114611b9c57600080fd5b50565b600081359050611bae81611b88565b92915050565b600060208284031215611bca57611bc96119fe565b5b6000611bd884828501611b9f565b91505092915050565b600073ffffffffffffffffffffffffffffffffffffffff82169050919050565b6000611c0c82611be1565b9050919050565b611c1c81611c01565b82525050565b6000602082019050611c376000830184611c13565b92915050565b611c4681611c01565b8114611c5157600080fd5b50565b600081359050611c6381611c3d565b92915050565b60008060408385031215611c8057611c7f6119fe565b5b6000611c8e85828601611c54565b9250506020611c9f85828601611b9f565b9150509250929050565b60008060408385031215611cc057611cbf6119fe565b5b6000611cce85828601611b9f565b9250506020611cdf85828601611b9f565b9150509250929050565b611cf281611b7e565b82525050565b6000602082019050611d0d6000830184611ce9565b92915050565b600080600060608486031215611d2c57611d2b6119fe565b5b6000611d3a86828701611c54565b9350506020611d4b86828701611c54565b9250506040611d5c86828701611b9f565b9150509250925092565b600060208284031215611d7c57611d7b6119fe565b5b6000611d8a84828501611c54565b91505092915050565b611d9c81611a8d565b8114611da757600080fd5b50565b600081359050611db981611d93565b92915050565b60008060408385031215611dd657611dd56119fe565b5b6000611de485828601611c54565b9250506020611df585828601611daa565b9150509250929050565b600080fd5b600080fd5b7f4e487b7100000000000000000000000000000000000000000000000000000000600052604160045260246000fd5b611e4182611b12565b810181811067ffffffffffffffff82111715611e6057611e5f611e09565b5b80604052505050565b6000611e736119f4565b9050611e7f8282611e38565b919050565b600067ffffffffffffffff821115611e9f57611e9e611e09565b5b611ea882611b12565b9050602081019050919050565b82818337600083830152505050565b6000611ed7611ed284611e84565b611e69565b905082815260208101848484011115611ef357611ef2611e04565b5b611efe848285611eb5565b509392505050565b600082601f830112611f1b57611f1a611dff565b5b8135611f2b848260208601611ec4565b91505092915050565b60008060008060808587031215611f4e57611f4d6119fe565b5b6000611f5c87828801611c54565b9450506020611f6d87828801611c54565b9350506040611f7e87828801611b9f565b925050606085013567ffffffffffffffff811115611f9f57611f9e611a03565b5b611fab87828801611f06565b91505092959194509250565b60008060408385031215611fce57611fcd6119fe565b5b6000611fdc85828601611c54565b9250506020611fed85828601611c54565b9150509250929050565b7f4e487b7100000000000000000000000000000000000000000000000000000000600052602260045260246000fd5b6000600282049050600182168061203e57607f821691505b6020821081141561205257612051611ff7565b5b50919050565b7f4552433732313a20617070726f76656420717565727920666f72206e6f6e657860008201527f697374656e7420746f6b656e0000000000000000000000000000000000000000602082015250565b60006120b4602c83611ace565b91506120bf82612058565b604082019050919050565b600060208201905081810360008301526120e3816120a7565b9050919050565b7f4552433732313a20617070726f76616c20746f2063757272656e74206f776e6560008201527f7200000000000000000000000000000000000000000000000000000000000000602082015250565b6000612146602183611ace565b9150612151826120ea565b604082019050919050565b6000602082019050818103600083015261217581612139565b9050919050565b7f4552433732313a20617070726f76652063616c6c6572206973206e6f74206f7760008201527f6e6572206e6f7220617070726f76656420666f7220616c6c0000000000000000602082015250565b60006121d8603883611ace565b91506121e38261217c565b604082019050919050565b60006020820190508181036000830152612207816121cb565b9050919050565b7f4e6f74206f776e65720000000000000000000000000000000000000000000000600082015250565b6000612244600983611ace565b915061224f8261220e565b602082019050919050565b6000602082019050818103600083015261227381612237565b9050919050565b7f4e6f74206e6f7420657869737400000000000000000000000000000000000000600082015250565b60006122b0600d83611ace565b91506122bb8261227a565b602082019050919050565b600060208201905081810360008301526122df816122a3565b9050919050565b7f4e487b7100000000000000000000000000000000000000000000000000000000600052601160045260246000fd5b600061232082611b7e565b91507fffffffffffffffffffffffffffffffffffffffffffffffffffffffffffffffff821415612353576123526122e6565b5b600182019050919050565b7f4552433732313a207472616e736665722063616c6c6572206973206e6f74206f60008201527f776e6572206e6f7220617070726f766564000000000000000000000000000000602082015250565b60006123ba603183611ace565b91506123c58261235e565b604082019050919050565b600060208201905081810360008301526123e9816123ad565b9050919050565b7f4552433732313a206f776e657220717565727920666f72206e6f6e657869737460008201527f656e7420746f6b656e0000000000000000000000000000000000000000000000602082015250565b600061244c602983611ace565b9150612457826123f0565b604082019050919050565b6000602082019050818103600083015261247b8161243f565b9050919050565b7f4552433732313a2062616c616e636520717565727920666f7220746865207a6560008201527f726f206164647265737300000000000000000000000000000000000000000000602082015250565b60006124de602a83611ace565b91506124e982612482565b604082019050919050565b6000602082019050818103600083015261250d816124d1565b9050919050565b7f4552433732314d657461646174613a2055524920717565727920666f72206e6f60008201527f6e6578697374656e7420746f6b656e0000000000000000000000000000000000602082015250565b6000612570602f83611ace565b915061257b82612514565b604082019050919050565b6000602082019050818103600083015261259f81612563565b9050919050565b600081905092915050565b60006125bc82611ac3565b6125c681856125a6565b93506125d6818560208601611adf565b80840191505092915050565b60006125ee82856125b1565b91506125fa82846125b1565b91508190509392505050565b7f4552433732313a206d696e7420746f20746865207a65726f2061646472657373600082015250565b600061263c602083611ace565b915061264782612606565b602082019050919050565b6000602082019050818103600083015261266b8161262f565b9050919050565b7f4552433732313a20746f6b656e20616c7265616479206d696e74656400000000600082015250565b60006126a8601c83611ace565b91506126b382612672565b602082019050919050565b600060208201905081810360008301526126d78161269b565b9050919050565b60006126e982611b7e565b91506126f483611b7e565b9250827fffffffffffffffffffffffffffffffffffffffffffffffffffffffffffffffff03821115612729576127286122e6565b5b828201905092915050565b7f4552433732313a206f70657261746f7220717565727920666f72206e6f6e657860008201527f697374656e7420746f6b656e0000000000000000000000000000000000000000602082015250565b6000612790602c83611ace565b915061279b82612734565b604082019050919050565b600060208201905081810360008301526127bf81612783565b9050919050565b7f4552433732313a207472616e73666572206f6620746f6b656e2074686174206960008201527f73206e6f74206f776e0000000000000000000000000000000000000000000000602082015250565b6000612822602983611ace565b915061282d826127c6565b604082019050919050565b6000602082019050818103600083015261285181612815565b9050919050565b7f4552433732313a207472616e7366657220746f20746865207a65726f2061646460008201527f7265737300000000000000000000000000000000000000000000000000000000602082015250565b60006128b4602483611ace565b91506128bf82612858565b604082019050919050565b600060208201905081810360008301526128e3816128a7565b9050919050565b60006128f582611b7e565b915061290083611b7e565b925082821015612913576129126122e6565b5b828203905092915050565b7f4552433732313a20617070726f766520746f2063616c6c657200000000000000600082015250565b6000612954601983611ace565b915061295f8261291e565b602082019050919050565b6000602082019050818103600083015261298381612947565b9050919050565b7f4552433732313a207472616e7366657220746f206e6f6e20455243373231526560008201527f63656976657220696d706c656d656e7465720000000000000000000000000000602082015250565b60006129e6603283611ace565b91506129f18261298a565b604082019050919050565b60006020820190508181036000830152612a15816129d9565b9050919050565b7f4e487b7100000000000000000000000000000000000000000000000000000000600052601260045260246000fd5b6000612a5682611b7e565b9150612a6183611b7e565b925082612a7157612a70612a1c565b5b828204905092915050565b6000612a8782611b7e565b9150612a9283611b7e565b925082612aa257612aa1612a1c565b5b828206905092915050565b7f4e487b7100000000000000000000000000000000000000000000000000000000600052603260045260246000fd5b600081519050919050565b600082825260208201905092915050565b6000612b0382612adc565b612b0d8185612ae7565b9350612b1d818560208601611adf565b612b2681611b12565b840191505092915050565b6000608082019050612b466000830187611c13565b612b536020830186611c13565b612b606040830185611ce9565b8181036060830152612b728184612af8565b905095945050505050565b600081519050612b8c81611a34565b92915050565b600060208284031215612ba857612ba76119fe565b5b6000612bb684828501612b7d565b9150509291505056fea264697066735822122096afdc4c825f1f2cc878c22a54c2d3911fa58d7452dfc7995b59676bfe5d922a64736f6c634300080b0033",
  "immutableReferences": {},
  "source": "// SPDX-License-Identifier: MIT\r\npragma solidity ^0.8.0;\r\n\r\nimport \"@openzeppelin/contracts/token/ERC721/ERC721.sol\";\r\nimport \"@openzeppelin/contracts/utils/Counters.sol\";\r\n\r\ncontract OpenMarket is ERC721 {\r\n    using Counters for Counters.Counter;\r\n\r\n    //   uint256[] tokenid;\r\n    //   uint256[] costOftoken;\r\n    //   mapping(uint256 => uint256) private costOf;\r\n    //   mapping(address => uint256) private etherOf;\r\n\r\n    mapping(uint =>bool ) public forsale;\r\n    mapping(uint =>uint ) public costOftoken;\r\n\r\n    Counters.Counter private _tokenIds;\r\n\r\n    uint[] private totalTokens;\r\n\r\n    constructor() ERC721(\"NFT TOKEN\", \"TFN\") {}\r\n\r\n    function mint() public\r\n    {\r\n        uint256 newItemId = _tokenIds.current();\r\n        totalTokens.push(newItemId);\r\n        _tokenIds.increment();\r\n        _mint(msg.sender, newItemId);\r\n        forsale[newItemId] = false;\r\n    }\r\n    function mintInBatch(uint256 noOfTokens) public {\r\n        for(uint i=0;i<noOfTokens;i++) {\r\n            uint256 newItemId = _tokenIds.current();\r\n            totalTokens.push(newItemId);\r\n            _tokenIds.increment();\r\n            _mint(msg.sender, newItemId);\r\n        }\r\n    }\r\n    function totalSupply() public view returns(uint256) {\r\n        return totalTokens.length;\r\n    }\r\n\r\n    function tokenforsale(uint tokenId, uint price) public {\r\n        require(ownerOf(tokenId) == _msgSender(),\"Not owner\");\r\n        require(_exists(tokenId),\"Not not exist\");\r\n        forsale[tokenId] = true;\r\n        costOftoken[tokenId] = price;\r\n    }\r\n\r\n    function priceChange(uint price, uint tokenId) public {\r\n          require(ownerOf(tokenId) == _msgSender(),\"Not owner\");\r\n          require(_exists(tokenId),\"Not not exist\");\r\n          costOftoken[tokenId] = price;\r\n    }\r\n\r\n\r\n  \r\n\r\n    //  function _transferFrom(address from, address to , uint256 tokenid) public payable {\r\n    //     require(etherOf[to] >= costOf[tokenid], 'Low ether in buyers account');\r\n    //     transferFrom(from,to,tokenid);\r\n    //     etherOf[to]-=costOf[tokenid];\r\n    //     etherOf[from]+=costOf[tokenid];\r\n    // }\r\n\r\n}\r\n    // uint256 private tokenCounter;\r\n    // constructor() ERC721(\"Kryptonion\", \"KN\"){\r\n    //     tokenCounter = 0;\r\n    // }\r\n\r\n    // function mint() public {\r\n    //     uint256 newNFTTokenId = tokenCounter;\r\n    //     _mint(msg.sender, newNFTTokenId);\r\n    //     tokenCounter+=1;\r\n    // }\r\n// }\r\n",
  "sourcePath": "D:\\blockChainProject\\Main2\\src\\contracts\\OpenMarket.sol",
  "compiler": {
    "name": "solc",
    "version": "0.8.11+commit.d7f03943.Emscripten.clang"
  },
  "schemaVersion": "3.4.3",
  "updatedAt": "2021-12-22T13:07:40.524Z",
  "networkType": "ethereum",
  "devdoc": {
    "kind": "dev",
    "methods": {
      "approve(address,uint256)": {
        "details": "See {IERC721-approve}."
      },
      "balanceOf(address)": {
        "details": "See {IERC721-balanceOf}."
      },
      "getApproved(uint256)": {
        "details": "See {IERC721-getApproved}."
      },
      "isApprovedForAll(address,address)": {
        "details": "See {IERC721-isApprovedForAll}."
      },
      "name()": {
        "details": "See {IERC721Metadata-name}."
      },
      "ownerOf(uint256)": {
        "details": "See {IERC721-ownerOf}."
      },
      "safeTransferFrom(address,address,uint256)": {
        "details": "See {IERC721-safeTransferFrom}."
      },
      "safeTransferFrom(address,address,uint256,bytes)": {
        "details": "See {IERC721-safeTransferFrom}."
      },
      "setApprovalForAll(address,bool)": {
        "details": "See {IERC721-setApprovalForAll}."
      },
      "supportsInterface(bytes4)": {
        "details": "See {IERC165-supportsInterface}."
      },
      "symbol()": {
        "details": "See {IERC721Metadata-symbol}."
      },
      "tokenURI(uint256)": {
        "details": "See {IERC721Metadata-tokenURI}."
      },
      "transferFrom(address,address,uint256)": {
        "details": "See {IERC721-transferFrom}."
      }
    },
    "version": 1
  },
  "userdoc": {
    "kind": "user",
    "methods": {},
    "version": 1
  }
}