{
  "contractName": "OpenMarket",
  "abi": [
    {
      "inputs": [
        {
          "internalType": "string",
          "name": "_initBaseURI",
          "type": "string"
        }
      ],
      "stateMutability": "nonpayable",
      "type": "constructor"
    },
    {
      "anonymous": false,
      "inputs": [
        {
          "indexed": true,
          "internalType": "address",
          "name": "owner",
          "type": "address"
        },
        {
          "indexed": true,
          "internalType": "address",
          "name": "approved",
          "type": "address"
        },
        {
          "indexed": true,
          "internalType": "uint256",
          "name": "tokenId",
          "type": "uint256"
        }
      ],
      "name": "Approval",
      "type": "event"
    },
    {
      "anonymous": false,
      "inputs": [
        {
          "indexed": true,
          "internalType": "address",
          "name": "owner",
          "type": "address"
        },
        {
          "indexed": true,
          "internalType": "address",
          "name": "operator",
          "type": "address"
        },
        {
          "indexed": false,
          "internalType": "bool",
          "name": "approved",
          "type": "bool"
        }
      ],
      "name": "ApprovalForAll",
      "type": "event"
    },
    {
      "anonymous": false,
      "inputs": [
        {
          "indexed": true,
          "internalType": "address",
          "name": "previousOwner",
          "type": "address"
        },
        {
          "indexed": true,
          "internalType": "address",
          "name": "newOwner",
          "type": "address"
        }
      ],
      "name": "OwnershipTransferred",
      "type": "event"
    },
    {
      "anonymous": false,
      "inputs": [
        {
          "indexed": true,
          "internalType": "address",
          "name": "from",
          "type": "address"
        },
        {
          "indexed": true,
          "internalType": "address",
          "name": "to",
          "type": "address"
        },
        {
          "indexed": true,
          "internalType": "uint256",
          "name": "tokenId",
          "type": "uint256"
        }
      ],
      "name": "Transfer",
      "type": "event"
    },
    {
      "inputs": [
        {
          "internalType": "address",
          "name": "to",
          "type": "address"
        },
        {
          "internalType": "uint256",
          "name": "tokenId",
          "type": "uint256"
        }
      ],
      "name": "approve",
      "outputs": [],
      "stateMutability": "nonpayable",
      "type": "function"
    },
    {
      "inputs": [
        {
          "internalType": "address",
          "name": "owner",
          "type": "address"
        }
      ],
      "name": "balanceOf",
      "outputs": [
        {
          "internalType": "uint256",
          "name": "",
          "type": "uint256"
        }
      ],
      "stateMutability": "view",
      "type": "function"
    },
    {
      "inputs": [
        {
          "internalType": "uint256",
          "name": "tokenId",
          "type": "uint256"
        }
      ],
      "name": "getApproved",
      "outputs": [
        {
          "internalType": "address",
          "name": "",
          "type": "address"
        }
      ],
      "stateMutability": "view",
      "type": "function"
    },
    {
      "inputs": [
        {
          "internalType": "address",
          "name": "owner",
          "type": "address"
        },
        {
          "internalType": "address",
          "name": "operator",
          "type": "address"
        }
      ],
      "name": "isApprovedForAll",
      "outputs": [
        {
          "internalType": "bool",
          "name": "",
          "type": "bool"
        }
      ],
      "stateMutability": "view",
      "type": "function"
    },
    {
      "inputs": [],
      "name": "name",
      "outputs": [
        {
          "internalType": "string",
          "name": "",
          "type": "string"
        }
      ],
      "stateMutability": "view",
      "type": "function"
    },
    {
      "inputs": [],
      "name": "owner",
      "outputs": [
        {
          "internalType": "address",
          "name": "",
          "type": "address"
        }
      ],
      "stateMutability": "view",
      "type": "function"
    },
    {
      "inputs": [
        {
          "internalType": "uint256",
          "name": "tokenId",
          "type": "uint256"
        }
      ],
      "name": "ownerOf",
      "outputs": [
        {
          "internalType": "address",
          "name": "",
          "type": "address"
        }
      ],
      "stateMutability": "view",
      "type": "function"
    },
    {
      "inputs": [],
      "name": "renounceOwnership",
      "outputs": [],
      "stateMutability": "nonpayable",
      "type": "function"
    },
    {
      "inputs": [
        {
          "internalType": "address",
          "name": "from",
          "type": "address"
        },
        {
          "internalType": "address",
          "name": "to",
          "type": "address"
        },
        {
          "internalType": "uint256",
          "name": "tokenId",
          "type": "uint256"
        }
      ],
      "name": "safeTransferFrom",
      "outputs": [],
      "stateMutability": "nonpayable",
      "type": "function"
    },
    {
      "inputs": [
        {
          "internalType": "address",
          "name": "from",
          "type": "address"
        },
        {
          "internalType": "address",
          "name": "to",
          "type": "address"
        },
        {
          "internalType": "uint256",
          "name": "tokenId",
          "type": "uint256"
        },
        {
          "internalType": "bytes",
          "name": "_data",
          "type": "bytes"
        }
      ],
      "name": "safeTransferFrom",
      "outputs": [],
      "stateMutability": "nonpayable",
      "type": "function"
    },
    {
      "inputs": [
        {
          "internalType": "address",
          "name": "operator",
          "type": "address"
        },
        {
          "internalType": "bool",
          "name": "approved",
          "type": "bool"
        }
      ],
      "name": "setApprovalForAll",
      "outputs": [],
      "stateMutability": "nonpayable",
      "type": "function"
    },
    {
      "inputs": [
        {
          "internalType": "bytes4",
          "name": "interfaceId",
          "type": "bytes4"
        }
      ],
      "name": "supportsInterface",
      "outputs": [
        {
          "internalType": "bool",
          "name": "",
          "type": "bool"
        }
      ],
      "stateMutability": "view",
      "type": "function"
    },
    {
      "inputs": [],
      "name": "symbol",
      "outputs": [
        {
          "internalType": "string",
          "name": "",
          "type": "string"
        }
      ],
      "stateMutability": "view",
      "type": "function"
    },
    {
      "inputs": [
        {
          "internalType": "address",
          "name": "from",
          "type": "address"
        },
        {
          "internalType": "address",
          "name": "to",
          "type": "address"
        },
        {
          "internalType": "uint256",
          "name": "tokenId",
          "type": "uint256"
        }
      ],
      "name": "transferFrom",
      "outputs": [],
      "stateMutability": "nonpayable",
      "type": "function"
    },
    {
      "inputs": [
        {
          "internalType": "address",
          "name": "newOwner",
          "type": "address"
        }
      ],
      "name": "transferOwnership",
      "outputs": [],
      "stateMutability": "nonpayable",
      "type": "function"
    },
    {
      "inputs": [],
      "name": "mint",
      "outputs": [],
      "stateMutability": "nonpayable",
      "type": "function"
    },
    {
      "inputs": [
        {
          "internalType": "uint256",
          "name": "noOfTokens",
          "type": "uint256"
        }
      ],
      "name": "mintInBatch",
      "outputs": [],
      "stateMutability": "nonpayable",
      "type": "function"
    },
    {
      "inputs": [],
      "name": "totalSupply",
      "outputs": [
        {
          "internalType": "uint256",
          "name": "",
          "type": "uint256"
        }
      ],
      "stateMutability": "view",
      "type": "function"
    },
    {
      "inputs": [
        {
          "internalType": "string",
          "name": "_newBaseURI",
          "type": "string"
        }
      ],
      "name": "setBaseURI",
      "outputs": [],
      "stateMutability": "nonpayable",
      "type": "function"
    },
    {
      "inputs": [
        {
          "internalType": "uint256",
          "name": "tokenId",
          "type": "uint256"
        }
      ],
      "name": "tokenURI",
      "outputs": [
        {
          "internalType": "string",
          "name": "",
          "type": "string"
        }
      ],
      "stateMutability": "view",
      "type": "function"
    },
    {
      "inputs": [
        {
          "internalType": "uint256",
          "name": "tokenId",
          "type": "uint256"
        },
        {
          "internalType": "uint256",
          "name": "price",
          "type": "uint256"
        }
      ],
      "name": "setTokenForSale",
      "outputs": [],
      "stateMutability": "nonpayable",
      "type": "function"
    },
    {
      "inputs": [
        {
          "internalType": "uint256",
          "name": "tokenId",
          "type": "uint256"
        },
        {
          "internalType": "uint256",
          "name": "price",
          "type": "uint256"
        }
      ],
      "name": "changeTokenPrice",
      "outputs": [],
      "stateMutability": "nonpayable",
      "type": "function"
    },
    {
      "inputs": [
        {
          "internalType": "uint256",
          "name": "tokenId",
          "type": "uint256"
        }
      ],
      "name": "buyNFT",
      "outputs": [],
      "stateMutability": "nonpayable",
      "type": "function"
    },
    {
      "inputs": [
        {
          "internalType": "uint256",
          "name": "tokenId",
          "type": "uint256"
        }
      ],
      "name": "removeTokenFromSale",
      "outputs": [],
      "stateMutability": "nonpayable",
      "type": "function"
    },
    {
      "inputs": [
        {
          "internalType": "uint256",
          "name": "tokenId",
          "type": "uint256"
        }
      ],
      "name": "isTokenForSale",
      "outputs": [
        {
          "internalType": "bool",
          "name": "",
          "type": "bool"
        }
      ],
      "stateMutability": "view",
      "type": "function"
    },
    {
      "inputs": [
        {
          "internalType": "uint256",
          "name": "tokenId",
          "type": "uint256"
        }
      ],
      "name": "getTokenPrice",
      "outputs": [
        {
          "internalType": "uint256",
          "name": "",
          "type": "uint256"
        }
      ],
      "stateMutability": "view",
      "type": "function"
    }
  ],
  "bytecode": "0x60806040526040518060400160405280600581526020017f2e6a736f6e000000000000000000000000000000000000000000000000000000815250600890805190602001906200005192919062000300565b503480156200005f57600080fd5b506040516200419c3803806200419c83398181016040528101906200008591906200054d565b6040518060400160405280600981526020017f4e465420544f4b454e00000000000000000000000000000000000000000000008152506040518060400160405280600381526020017f54464e000000000000000000000000000000000000000000000000000000000081525081600090805190602001906200010992919062000300565b5080600190805190602001906200012292919062000300565b50505062000145620001396200015d60201b60201c565b6200016560201b60201c565b62000156816200022b60201b60201c565b5062000686565b600033905090565b6000600660009054906101000a900473ffffffffffffffffffffffffffffffffffffffff16905081600660006101000a81548173ffffffffffffffffffffffffffffffffffffffff021916908373ffffffffffffffffffffffffffffffffffffffff1602179055508173ffffffffffffffffffffffffffffffffffffffff168173ffffffffffffffffffffffffffffffffffffffff167f8be0079c531659141344cd1fd0a4f28419497f9722a3daafe3b4186f6b6457e060405160405180910390a35050565b6200023b6200015d60201b60201c565b73ffffffffffffffffffffffffffffffffffffffff1662000261620002d660201b60201c565b73ffffffffffffffffffffffffffffffffffffffff1614620002ba576040517f08c379a0000000000000000000000000000000000000000000000000000000008152600401620002b190620005ff565b60405180910390fd5b8060079080519060200190620002d292919062000300565b5050565b6000600660009054906101000a900473ffffffffffffffffffffffffffffffffffffffff16905090565b8280546200030e9062000650565b90600052602060002090601f0160209004810192826200033257600085556200037e565b82601f106200034d57805160ff19168380011785556200037e565b828001600101855582156200037e579182015b828111156200037d57825182559160200191906001019062000360565b5b5090506200038d919062000391565b5090565b5b80821115620003ac57600081600090555060010162000392565b5090565b6000604051905090565b600080fd5b600080fd5b600080fd5b600080fd5b6000601f19601f8301169050919050565b7f4e487b7100000000000000000000000000000000000000000000000000000000600052604160045260246000fd5b6200041982620003ce565b810181811067ffffffffffffffff821117156200043b576200043a620003df565b5b80604052505050565b600062000450620003b0565b90506200045e82826200040e565b919050565b600067ffffffffffffffff821115620004815762000480620003df565b5b6200048c82620003ce565b9050602081019050919050565b60005b83811015620004b95780820151818401526020810190506200049c565b83811115620004c9576000848401525b50505050565b6000620004e6620004e08462000463565b62000444565b905082815260208101848484011115620005055762000504620003c9565b5b6200051284828562000499565b509392505050565b600082601f830112620005325762000531620003c4565b5b815162000544848260208601620004cf565b91505092915050565b600060208284031215620005665762000565620003ba565b5b600082015167ffffffffffffffff811115620005875762000586620003bf565b5b62000595848285016200051a565b91505092915050565b600082825260208201905092915050565b7f4f776e61626c653a2063616c6c6572206973206e6f7420746865206f776e6572600082015250565b6000620005e76020836200059e565b9150620005f482620005af565b602082019050919050565b600060208201905081810360008301526200061a81620005d8565b9050919050565b7f4e487b7100000000000000000000000000000000000000000000000000000000600052602260045260246000fd5b600060028204905060018216806200066957607f821691505b6020821081141562000680576200067f62000621565b5b50919050565b613b0680620006966000396000f3fe608060405234801561001057600080fd5b506004361061018e5760003560e01c80636352211e116100de578063b88d4fde11610097578063cb233ce211610071578063cb233ce21461046b578063e8cdea1114610487578063e985e9c5146104a3578063f2fde38b146104d35761018e565b8063b88d4fde146103ef578063c457fb371461040b578063c87b56dd1461043b5761018e565b80636352211e1461032d57806370a082311461035d578063715018a61461038d5780638da5cb5b1461039757806395d89b41146103b5578063a22cb465146103d35761018e565b806320477b8c1161014b5780634fed1c94116101255780634fed1c94146102a957806351ed8288146102d957806355f804b3146102f557806362e8e8ac146103115761018e565b806320477b8c1461025557806323b872dd1461027157806342842e0e1461028d5761018e565b806301ffc9a71461019357806306fdde03146101c3578063081812fc146101e1578063095ea7b3146102115780631249c58b1461022d57806318160ddd14610237575b600080fd5b6101ad60048036038101906101a89190612316565b6104ef565b6040516101ba919061235e565b60405180910390f35b6101cb6105d1565b6040516101d89190612412565b60405180910390f35b6101fb60048036038101906101f6919061246a565b610663565b60405161020891906124d8565b60405180910390f35b61022b6004803603810190610226919061251f565b6106e8565b005b610235610800565b005b61023f61084e565b60405161024c919061256e565b60405180910390f35b61026f600480360381019061026a919061246a565b61085b565b005b61028b60048036038101906102869190612589565b6108c9565b005b6102a760048036038101906102a29190612589565b610929565b005b6102c360048036038101906102be919061246a565b610949565b6040516102d0919061235e565b60405180910390f35b6102f360048036038101906102ee919061246a565b610973565b005b61030f600480360381019061030a9190612711565b610b71565b005b61032b6004803603810190610326919061275a565b610c07565b005b6103476004803603810190610342919061246a565b610d48565b60405161035491906124d8565b60405180910390f35b6103776004803603810190610372919061279a565b610dfa565b604051610384919061256e565b60405180910390f35b610395610eb2565b005b61039f610f3a565b6040516103ac91906124d8565b60405180910390f35b6103bd610f64565b6040516103ca9190612412565b60405180910390f35b6103ed60048036038101906103e891906127f3565b610ff6565b005b610409600480360381019061040491906128d4565b61100c565b005b6104256004803603810190610420919061246a565b61106e565b604051610432919061256e565b60405180910390f35b6104556004803603810190610450919061246a565b61108b565b6040516104629190612412565b60405180910390f35b6104856004803603810190610480919061275a565b611135565b005b6104a1600480360381019061049c919061246a565b611242565b005b6104bd60048036038101906104b89190612957565b611396565b6040516104ca919061235e565b60405180910390f35b6104ed60048036038101906104e8919061279a565b61142a565b005b60007f80ac58cd000000000000000000000000000000000000000000000000000000007bffffffffffffffffffffffffffffffffffffffffffffffffffffffff1916827bffffffffffffffffffffffffffffffffffffffffffffffffffffffff191614806105ba57507f5b5e139f000000000000000000000000000000000000000000000000000000007bffffffffffffffffffffffffffffffffffffffffffffffffffffffff1916827bffffffffffffffffffffffffffffffffffffffffffffffffffffffff1916145b806105ca57506105c982611522565b5b9050919050565b6060600080546105e0906129c6565b80601f016020809104026020016040519081016040528092919081815260200182805461060c906129c6565b80156106595780601f1061062e57610100808354040283529160200191610659565b820191906000526020600020905b81548152906001019060200180831161063c57829003601f168201915b5050505050905090565b600061066e8261158c565b6106ad576040517f08c379a00000000000000000000000000000000000000000000000000000000081526004016106a490612a6a565b60405180910390fd5b6004600083815260200190815260200160002060009054906101000a900473ffffffffffffffffffffffffffffffffffffffff169050919050565b60006106f382610d48565b90508073ffffffffffffffffffffffffffffffffffffffff168373ffffffffffffffffffffffffffffffffffffffff161415610764576040517f08c379a000000000000000000000000000000000000000000000000000000000815260040161075b90612afc565b60405180910390fd5b8073ffffffffffffffffffffffffffffffffffffffff166107836115f8565b73ffffffffffffffffffffffffffffffffffffffff1614806107b257506107b1816107ac6115f8565b611396565b5b6107f1576040517f08c379a00000000000000000000000000000000000000000000000000000000081526004016107e890612b8e565b60405180910390fd5b6107fb8383611600565b505050565b600061080c600b6116b9565b9050600c819080600181540180825580915050600190039060005260206000200160009091909190915055610841600b6116c7565b61084b33826116dd565b50565b6000600c80549050905090565b60005b818110156108c5576000610872600b6116b9565b9050600c8190806001815401808255809150506001900390600052602060002001600090919091909150556108a7600b6116c7565b6108b133826116dd565b5080806108bd90612bdd565b91505061085e565b5050565b6108da6108d46115f8565b826118ab565b610919576040517f08c379a000000000000000000000000000000000000000000000000000000000815260040161091090612c98565b60405180910390fd5b610924838383611989565b505050565b6109448383836040518060200160405280600081525061100c565b505050565b60006009600083815260200190815260200160002060009054906101000a900460ff169050919050565b6009600082815260200190815260200160002060009054906101000a900460ff166109d3576040517f08c379a00000000000000000000000000000000000000000000000000000000081526004016109ca90612d04565b60405180910390fd5b60006109de82610d48565b9050600073ffffffffffffffffffffffffffffffffffffffff16610a006115f8565b73ffffffffffffffffffffffffffffffffffffffff161415610a57576040517f08c379a0000000000000000000000000000000000000000000000000000000008152600401610a4e90612d70565b60405180910390fd5b8073ffffffffffffffffffffffffffffffffffffffff16610a766115f8565b73ffffffffffffffffffffffffffffffffffffffff161415610acd576040517f08c379a0000000000000000000000000000000000000000000000000000000008152600401610ac490612ddc565b60405180910390fd5b610adf81610ad96115f8565b84611989565b60006009600084815260200190815260200160002060006101000a81548160ff02191690831515021790555081610b146115f8565b73ffffffffffffffffffffffffffffffffffffffff168273ffffffffffffffffffffffffffffffffffffffff167fddf252ad1be2c89b69c2b068fc378daa952ba7f163c4a11628f55a4df523b3ef60405160405180910390a45050565b610b796115f8565b73ffffffffffffffffffffffffffffffffffffffff16610b97610f3a565b73ffffffffffffffffffffffffffffffffffffffff1614610bed576040517f08c379a0000000000000000000000000000000000000000000000000000000008152600401610be490612e48565b60405180910390fd5b8060079080519060200190610c03929190612207565b5050565b6009600083815260200190815260200160002060009054906101000a900460ff16610c67576040517f08c379a0000000000000000000000000000000000000000000000000000000008152600401610c5e90612eda565b60405180910390fd5b610c6f6115f8565b73ffffffffffffffffffffffffffffffffffffffff16610c8e83610d48565b73ffffffffffffffffffffffffffffffffffffffff1614610ce4576040517f08c379a0000000000000000000000000000000000000000000000000000000008152600401610cdb90612f46565b60405180910390fd5b610ced8261158c565b610d2c576040517f08c379a0000000000000000000000000000000000000000000000000000000008152600401610d2390612fb2565b60405180910390fd5b80600a6000848152602001908152602001600020819055505050565b6000806002600084815260200190815260200160002060009054906101000a900473ffffffffffffffffffffffffffffffffffffffff169050600073ffffffffffffffffffffffffffffffffffffffff168173ffffffffffffffffffffffffffffffffffffffff161415610df1576040517f08c379a0000000000000000000000000000000000000000000000000000000008152600401610de890613044565b60405180910390fd5b80915050919050565b60008073ffffffffffffffffffffffffffffffffffffffff168273ffffffffffffffffffffffffffffffffffffffff161415610e6b576040517f08c379a0000000000000000000000000000000000000000000000000000000008152600401610e62906130d6565b60405180910390fd5b600360008373ffffffffffffffffffffffffffffffffffffffff1673ffffffffffffffffffffffffffffffffffffffff168152602001908152602001600020549050919050565b610eba6115f8565b73ffffffffffffffffffffffffffffffffffffffff16610ed8610f3a565b73ffffffffffffffffffffffffffffffffffffffff1614610f2e576040517f08c379a0000000000000000000000000000000000000000000000000000000008152600401610f2590612e48565b60405180910390fd5b610f386000611be5565b565b6000600660009054906101000a900473ffffffffffffffffffffffffffffffffffffffff16905090565b606060018054610f73906129c6565b80601f0160208091040260200160405190810160405280929190818152602001828054610f9f906129c6565b8015610fec5780601f10610fc157610100808354040283529160200191610fec565b820191906000526020600020905b815481529060010190602001808311610fcf57829003601f168201915b5050505050905090565b6110086110016115f8565b8383611cab565b5050565b61101d6110176115f8565b836118ab565b61105c576040517f08c379a000000000000000000000000000000000000000000000000000000000815260040161105390612c98565b60405180910390fd5b61106884848484611e18565b50505050565b6000600a6000838152602001908152602001600020549050919050565b60606110968261158c565b6110d5576040517f08c379a00000000000000000000000000000000000000000000000000000000081526004016110cc90613168565b60405180910390fd5b60006110df611e74565b905060008151116110ff576040518060200160405280600081525061112d565b8061110984611f06565b600860405160200161111d93929190613258565b6040516020818303038152906040525b915050919050565b61113d6115f8565b73ffffffffffffffffffffffffffffffffffffffff1661115c83610d48565b73ffffffffffffffffffffffffffffffffffffffff16146111b2576040517f08c379a00000000000000000000000000000000000000000000000000000000081526004016111a9906132fb565b60405180910390fd5b6111bb8261158c565b6111fa576040517f08c379a00000000000000000000000000000000000000000000000000000000081526004016111f190612fb2565b60405180910390fd5b60016009600084815260200190815260200160002060006101000a81548160ff02191690831515021790555080600a6000848152602001908152602001600020819055505050565b6009600082815260200190815260200160002060009054906101000a900460ff166112a2576040517f08c379a00000000000000000000000000000000000000000000000000000000081526004016112999061338d565b60405180910390fd5b6112aa6115f8565b73ffffffffffffffffffffffffffffffffffffffff166112c982610d48565b73ffffffffffffffffffffffffffffffffffffffff161461131f576040517f08c379a0000000000000000000000000000000000000000000000000000000008152600401611316906133f9565b60405180910390fd5b6113288161158c565b611367576040517f08c379a000000000000000000000000000000000000000000000000000000000815260040161135e90613465565b60405180910390fd5b60006009600083815260200190815260200160002060006101000a81548160ff02191690831515021790555050565b6000600560008473ffffffffffffffffffffffffffffffffffffffff1673ffffffffffffffffffffffffffffffffffffffff16815260200190815260200160002060008373ffffffffffffffffffffffffffffffffffffffff1673ffffffffffffffffffffffffffffffffffffffff16815260200190815260200160002060009054906101000a900460ff16905092915050565b6114326115f8565b73ffffffffffffffffffffffffffffffffffffffff16611450610f3a565b73ffffffffffffffffffffffffffffffffffffffff16146114a6576040517f08c379a000000000000000000000000000000000000000000000000000000000815260040161149d90612e48565b60405180910390fd5b600073ffffffffffffffffffffffffffffffffffffffff168173ffffffffffffffffffffffffffffffffffffffff161415611516576040517f08c379a000000000000000000000000000000000000000000000000000000000815260040161150d906134f7565b60405180910390fd5b61151f81611be5565b50565b60007f01ffc9a7000000000000000000000000000000000000000000000000000000007bffffffffffffffffffffffffffffffffffffffffffffffffffffffff1916827bffffffffffffffffffffffffffffffffffffffffffffffffffffffff1916149050919050565b60008073ffffffffffffffffffffffffffffffffffffffff166002600084815260200190815260200160002060009054906101000a900473ffffffffffffffffffffffffffffffffffffffff1673ffffffffffffffffffffffffffffffffffffffff1614159050919050565b600033905090565b816004600083815260200190815260200160002060006101000a81548173ffffffffffffffffffffffffffffffffffffffff021916908373ffffffffffffffffffffffffffffffffffffffff160217905550808273ffffffffffffffffffffffffffffffffffffffff1661167383610d48565b73ffffffffffffffffffffffffffffffffffffffff167f8c5be1e5ebec7d5bd14f71427d1e84f3dd0314c0f7b2291e5b200ac8c7c3b92560405160405180910390a45050565b600081600001549050919050565b6001816000016000828254019250508190555050565b600073ffffffffffffffffffffffffffffffffffffffff168273ffffffffffffffffffffffffffffffffffffffff16141561174d576040517f08c379a000000000000000000000000000000000000000000000000000000000815260040161174490613563565b60405180910390fd5b6117568161158c565b15611796576040517f08c379a000000000000000000000000000000000000000000000000000000000815260040161178d906135cf565b60405180910390fd5b6117a260008383612067565b6001600360008473ffffffffffffffffffffffffffffffffffffffff1673ffffffffffffffffffffffffffffffffffffffff16815260200190815260200160002060008282546117f291906135ef565b92505081905550816002600083815260200190815260200160002060006101000a81548173ffffffffffffffffffffffffffffffffffffffff021916908373ffffffffffffffffffffffffffffffffffffffff160217905550808273ffffffffffffffffffffffffffffffffffffffff16600073ffffffffffffffffffffffffffffffffffffffff167fddf252ad1be2c89b69c2b068fc378daa952ba7f163c4a11628f55a4df523b3ef60405160405180910390a45050565b60006118b68261158c565b6118f5576040517f08c379a00000000000000000000000000000000000000000000000000000000081526004016118ec906136b7565b60405180910390fd5b600061190083610d48565b90508073ffffffffffffffffffffffffffffffffffffffff168473ffffffffffffffffffffffffffffffffffffffff16148061196f57508373ffffffffffffffffffffffffffffffffffffffff1661195784610663565b73ffffffffffffffffffffffffffffffffffffffff16145b80611980575061197f8185611396565b5b91505092915050565b8273ffffffffffffffffffffffffffffffffffffffff166119a982610d48565b73ffffffffffffffffffffffffffffffffffffffff16146119ff576040517f08c379a00000000000000000000000000000000000000000000000000000000081526004016119f690613749565b60405180910390fd5b600073ffffffffffffffffffffffffffffffffffffffff168273ffffffffffffffffffffffffffffffffffffffff161415611a6f576040517f08c379a0000000000000000000000000000000000000000000000000000000008152600401611a66906137db565b60405180910390fd5b611a7a838383612067565b611a85600082611600565b6001600360008573ffffffffffffffffffffffffffffffffffffffff1673ffffffffffffffffffffffffffffffffffffffff1681526020019081526020016000206000828254611ad591906137fb565b925050819055506001600360008473ffffffffffffffffffffffffffffffffffffffff1673ffffffffffffffffffffffffffffffffffffffff1681526020019081526020016000206000828254611b2c91906135ef565b92505081905550816002600083815260200190815260200160002060006101000a81548173ffffffffffffffffffffffffffffffffffffffff021916908373ffffffffffffffffffffffffffffffffffffffff160217905550808273ffffffffffffffffffffffffffffffffffffffff168473ffffffffffffffffffffffffffffffffffffffff167fddf252ad1be2c89b69c2b068fc378daa952ba7f163c4a11628f55a4df523b3ef60405160405180910390a4505050565b6000600660009054906101000a900473ffffffffffffffffffffffffffffffffffffffff16905081600660006101000a81548173ffffffffffffffffffffffffffffffffffffffff021916908373ffffffffffffffffffffffffffffffffffffffff1602179055508173ffffffffffffffffffffffffffffffffffffffff168173ffffffffffffffffffffffffffffffffffffffff167f8be0079c531659141344cd1fd0a4f28419497f9722a3daafe3b4186f6b6457e060405160405180910390a35050565b8173ffffffffffffffffffffffffffffffffffffffff168373ffffffffffffffffffffffffffffffffffffffff161415611d1a576040517f08c379a0000000000000000000000000000000000000000000000000000000008152600401611d119061387b565b60405180910390fd5b80600560008573ffffffffffffffffffffffffffffffffffffffff1673ffffffffffffffffffffffffffffffffffffffff16815260200190815260200160002060008473ffffffffffffffffffffffffffffffffffffffff1673ffffffffffffffffffffffffffffffffffffffff16815260200190815260200160002060006101000a81548160ff0219169083151502179055508173ffffffffffffffffffffffffffffffffffffffff168373ffffffffffffffffffffffffffffffffffffffff167f17307eab39ab6107e8899845ad3d59bd9653f200f220920489ca2b5937696c3183604051611e0b919061235e565b60405180910390a3505050565b611e23848484611989565b611e2f8484848461206c565b611e6e576040517f08c379a0000000000000000000000000000000000000000000000000000000008152600401611e659061390d565b60405180910390fd5b50505050565b606060078054611e83906129c6565b80601f0160208091040260200160405190810160405280929190818152602001828054611eaf906129c6565b8015611efc5780601f10611ed157610100808354040283529160200191611efc565b820191906000526020600020905b815481529060010190602001808311611edf57829003601f168201915b5050505050905090565b60606000821415611f4e576040518060400160405280600181526020017f30000000000000000000000000000000000000000000000000000000000000008152509050612062565b600082905060005b60008214611f80578080611f6990612bdd565b915050600a82611f79919061395c565b9150611f56565b60008167ffffffffffffffff811115611f9c57611f9b6125e6565b5b6040519080825280601f01601f191660200182016040528015611fce5781602001600182028036833780820191505090505b5090505b6000851461205b57600182611fe791906137fb565b9150600a85611ff6919061398d565b603061200291906135ef565b60f81b818381518110612018576120176139be565b5b60200101907effffffffffffffffffffffffffffffffffffffffffffffffffffffffffffff1916908160001a905350600a85612054919061395c565b9450611fd2565b8093505050505b919050565b505050565b600061208d8473ffffffffffffffffffffffffffffffffffffffff166121f4565b156121e7578373ffffffffffffffffffffffffffffffffffffffff1663150b7a026120b66115f8565b8786866040518563ffffffff1660e01b81526004016120d89493929190613a42565b6020604051808303816000875af192505050801561211457506040513d601f19601f820116820180604052508101906121119190613aa3565b60015b612197573d8060008114612144576040519150601f19603f3d011682016040523d82523d6000602084013e612149565b606091505b5060008151141561218f576040517f08c379a00000000000000000000000000000000000000000000000000000000081526004016121869061390d565b60405180910390fd5b805181602001fd5b63150b7a0260e01b7bffffffffffffffffffffffffffffffffffffffffffffffffffffffff1916817bffffffffffffffffffffffffffffffffffffffffffffffffffffffff1916149150506121ec565b600190505b949350505050565b600080823b905060008111915050919050565b828054612213906129c6565b90600052602060002090601f016020900481019282612235576000855561227c565b82601f1061224e57805160ff191683800117855561227c565b8280016001018555821561227c579182015b8281111561227b578251825591602001919060010190612260565b5b509050612289919061228d565b5090565b5b808211156122a657600081600090555060010161228e565b5090565b6000604051905090565b600080fd5b600080fd5b60007fffffffff0000000000000000000000000000000000000000000000000000000082169050919050565b6122f3816122be565b81146122fe57600080fd5b50565b600081359050612310816122ea565b92915050565b60006020828403121561232c5761232b6122b4565b5b600061233a84828501612301565b91505092915050565b60008115159050919050565b61235881612343565b82525050565b6000602082019050612373600083018461234f565b92915050565b600081519050919050565b600082825260208201905092915050565b60005b838110156123b3578082015181840152602081019050612398565b838111156123c2576000848401525b50505050565b6000601f19601f8301169050919050565b60006123e482612379565b6123ee8185612384565b93506123fe818560208601612395565b612407816123c8565b840191505092915050565b6000602082019050818103600083015261242c81846123d9565b905092915050565b6000819050919050565b61244781612434565b811461245257600080fd5b50565b6000813590506124648161243e565b92915050565b6000602082840312156124805761247f6122b4565b5b600061248e84828501612455565b91505092915050565b600073ffffffffffffffffffffffffffffffffffffffff82169050919050565b60006124c282612497565b9050919050565b6124d2816124b7565b82525050565b60006020820190506124ed60008301846124c9565b92915050565b6124fc816124b7565b811461250757600080fd5b50565b600081359050612519816124f3565b92915050565b60008060408385031215612536576125356122b4565b5b60006125448582860161250a565b925050602061255585828601612455565b9150509250929050565b61256881612434565b82525050565b6000602082019050612583600083018461255f565b92915050565b6000806000606084860312156125a2576125a16122b4565b5b60006125b08682870161250a565b93505060206125c18682870161250a565b92505060406125d286828701612455565b9150509250925092565b600080fd5b600080fd5b7f4e487b7100000000000000000000000000000000000000000000000000000000600052604160045260246000fd5b61261e826123c8565b810181811067ffffffffffffffff8211171561263d5761263c6125e6565b5b80604052505050565b60006126506122aa565b905061265c8282612615565b919050565b600067ffffffffffffffff82111561267c5761267b6125e6565b5b612685826123c8565b9050602081019050919050565b82818337600083830152505050565b60006126b46126af84612661565b612646565b9050828152602081018484840111156126d0576126cf6125e1565b5b6126db848285612692565b509392505050565b600082601f8301126126f8576126f76125dc565b5b81356127088482602086016126a1565b91505092915050565b600060208284031215612727576127266122b4565b5b600082013567ffffffffffffffff811115612745576127446122b9565b5b612751848285016126e3565b91505092915050565b60008060408385031215612771576127706122b4565b5b600061277f85828601612455565b925050602061279085828601612455565b9150509250929050565b6000602082840312156127b0576127af6122b4565b5b60006127be8482850161250a565b91505092915050565b6127d081612343565b81146127db57600080fd5b50565b6000813590506127ed816127c7565b92915050565b6000806040838503121561280a576128096122b4565b5b60006128188582860161250a565b9250506020612829858286016127de565b9150509250929050565b600067ffffffffffffffff82111561284e5761284d6125e6565b5b612857826123c8565b9050602081019050919050565b600061287761287284612833565b612646565b905082815260208101848484011115612893576128926125e1565b5b61289e848285612692565b509392505050565b600082601f8301126128bb576128ba6125dc565b5b81356128cb848260208601612864565b91505092915050565b600080600080608085870312156128ee576128ed6122b4565b5b60006128fc8782880161250a565b945050602061290d8782880161250a565b935050604061291e87828801612455565b925050606085013567ffffffffffffffff81111561293f5761293e6122b9565b5b61294b878288016128a6565b91505092959194509250565b6000806040838503121561296e5761296d6122b4565b5b600061297c8582860161250a565b925050602061298d8582860161250a565b9150509250929050565b7f4e487b7100000000000000000000000000000000000000000000000000000000600052602260045260246000fd5b600060028204905060018216806129de57607f821691505b602082108114156129f2576129f1612997565b5b50919050565b7f4552433732313a20617070726f76656420717565727920666f72206e6f6e657860008201527f697374656e7420746f6b656e0000000000000000000000000000000000000000602082015250565b6000612a54602c83612384565b9150612a5f826129f8565b604082019050919050565b60006020820190508181036000830152612a8381612a47565b9050919050565b7f4552433732313a20617070726f76616c20746f2063757272656e74206f776e6560008201527f7200000000000000000000000000000000000000000000000000000000000000602082015250565b6000612ae6602183612384565b9150612af182612a8a565b604082019050919050565b60006020820190508181036000830152612b1581612ad9565b9050919050565b7f4552433732313a20617070726f76652063616c6c6572206973206e6f74206f7760008201527f6e6572206e6f7220617070726f76656420666f7220616c6c0000000000000000602082015250565b6000612b78603883612384565b9150612b8382612b1c565b604082019050919050565b60006020820190508181036000830152612ba781612b6b565b9050919050565b7f4e487b7100000000000000000000000000000000000000000000000000000000600052601160045260246000fd5b6000612be882612434565b91507fffffffffffffffffffffffffffffffffffffffffffffffffffffffffffffffff821415612c1b57612c1a612bae565b5b600182019050919050565b7f4552433732313a207472616e736665722063616c6c6572206973206e6f74206f60008201527f776e6572206e6f7220617070726f766564000000000000000000000000000000602082015250565b6000612c82603183612384565b9150612c8d82612c26565b604082019050919050565b60006020820190508181036000830152612cb181612c75565b9050919050565b7f546f6b656e2069732063757272656e746c79206e6f7420666f722073616c6521600082015250565b6000612cee602083612384565b9150612cf982612cb8565b602082019050919050565b60006020820190508181036000830152612d1d81612ce1565b9050919050565b7f427579657220616464726573732063616e6e6f74206265207a65726f00000000600082015250565b6000612d5a601c83612384565b9150612d6582612d24565b602082019050919050565b60006020820190508181036000830152612d8981612d4d565b9050919050565b7f43616e6e6f7420627579206f776e6564204e4654000000000000000000000000600082015250565b6000612dc6601483612384565b9150612dd182612d90565b602082019050919050565b60006020820190508181036000830152612df581612db9565b9050919050565b7f4f776e61626c653a2063616c6c6572206973206e6f7420746865206f776e6572600082015250565b6000612e32602083612384565b9150612e3d82612dfc565b602082019050919050565b60006020820190508181036000830152612e6181612e25565b9050919050565b7f546f6b656e206973206e6f7420666f722073616c652c2073657420697420736160008201527f6c65206669727374210000000000000000000000000000000000000000000000602082015250565b6000612ec4602983612384565b9150612ecf82612e68565b604082019050919050565b60006020820190508181036000830152612ef381612eb7565b9050919050565b7f4f6e6c79206f776e65722063616e20736574207468652076616c756521000000600082015250565b6000612f30601d83612384565b9150612f3b82612efa565b602082019050919050565b60006020820190508181036000830152612f5f81612f23565b9050919050565b7f546f6b656e20646f6573206e6f74206578697374210000000000000000000000600082015250565b6000612f9c601583612384565b9150612fa782612f66565b602082019050919050565b60006020820190508181036000830152612fcb81612f8f565b9050919050565b7f4552433732313a206f776e657220717565727920666f72206e6f6e657869737460008201527f656e7420746f6b656e0000000000000000000000000000000000000000000000602082015250565b600061302e602983612384565b915061303982612fd2565b604082019050919050565b6000602082019050818103600083015261305d81613021565b9050919050565b7f4552433732313a2062616c616e636520717565727920666f7220746865207a6560008201527f726f206164647265737300000000000000000000000000000000000000000000602082015250565b60006130c0602a83612384565b91506130cb82613064565b604082019050919050565b600060208201905081810360008301526130ef816130b3565b9050919050565b7f4552433732314d657461646174613a2055524920717565727920666f72206e6f60008201527f6e6578697374656e7420746f6b656e0000000000000000000000000000000000602082015250565b6000613152602f83612384565b915061315d826130f6565b604082019050919050565b6000602082019050818103600083015261318181613145565b9050919050565b600081905092915050565b600061319e82612379565b6131a88185613188565b93506131b8818560208601612395565b80840191505092915050565b60008190508160005260206000209050919050565b600081546131e6816129c6565b6131f08186613188565b9450600182166000811461320b576001811461321c5761324f565b60ff1983168652818601935061324f565b613225856131c4565b60005b8381101561324757815481890152600182019150602081019050613228565b838801955050505b50505092915050565b60006132648286613193565b91506132708285613193565b915061327c82846131d9565b9150819050949350505050565b7f4f6e6c79206f776e65722063616e20736574206120746f6b656e20666f72207360008201527f616c652100000000000000000000000000000000000000000000000000000000602082015250565b60006132e5602483612384565b91506132f082613289565b604082019050919050565b60006020820190508181036000830152613314816132d8565b9050919050565b7f546f6b656e20697320616c72656164792073657420746f206e6f7420666f722060008201527f73616c6500000000000000000000000000000000000000000000000000000000602082015250565b6000613377602483612384565b91506133828261331b565b604082019050919050565b600060208201905081810360008301526133a68161336a565b9050919050565b7f4f6e6c7920746f6b656e206f776e65722063616e207365742076616c75650000600082015250565b60006133e3601e83612384565b91506133ee826133ad565b602082019050919050565b60006020820190508181036000830152613412816133d6565b9050919050565b7f546f6b656e20646f6573206e6f74206578697374000000000000000000000000600082015250565b600061344f601483612384565b915061345a82613419565b602082019050919050565b6000602082019050818103600083015261347e81613442565b9050919050565b7f4f776e61626c653a206e6577206f776e657220697320746865207a65726f206160008201527f6464726573730000000000000000000000000000000000000000000000000000602082015250565b60006134e1602683612384565b91506134ec82613485565b604082019050919050565b60006020820190508181036000830152613510816134d4565b9050919050565b7f4552433732313a206d696e7420746f20746865207a65726f2061646472657373600082015250565b600061354d602083612384565b915061355882613517565b602082019050919050565b6000602082019050818103600083015261357c81613540565b9050919050565b7f4552433732313a20746f6b656e20616c7265616479206d696e74656400000000600082015250565b60006135b9601c83612384565b91506135c482613583565b602082019050919050565b600060208201905081810360008301526135e8816135ac565b9050919050565b60006135fa82612434565b915061360583612434565b9250827fffffffffffffffffffffffffffffffffffffffffffffffffffffffffffffffff0382111561363a57613639612bae565b5b828201905092915050565b7f4552433732313a206f70657261746f7220717565727920666f72206e6f6e657860008201527f697374656e7420746f6b656e0000000000000000000000000000000000000000602082015250565b60006136a1602c83612384565b91506136ac82613645565b604082019050919050565b600060208201905081810360008301526136d081613694565b9050919050565b7f4552433732313a207472616e73666572206f6620746f6b656e2074686174206960008201527f73206e6f74206f776e0000000000000000000000000000000000000000000000602082015250565b6000613733602983612384565b915061373e826136d7565b604082019050919050565b6000602082019050818103600083015261376281613726565b9050919050565b7f4552433732313a207472616e7366657220746f20746865207a65726f2061646460008201527f7265737300000000000000000000000000000000000000000000000000000000602082015250565b60006137c5602483612384565b91506137d082613769565b604082019050919050565b600060208201905081810360008301526137f4816137b8565b9050919050565b600061380682612434565b915061381183612434565b92508282101561382457613823612bae565b5b828203905092915050565b7f4552433732313a20617070726f766520746f2063616c6c657200000000000000600082015250565b6000613865601983612384565b91506138708261382f565b602082019050919050565b6000602082019050818103600083015261389481613858565b9050919050565b7f4552433732313a207472616e7366657220746f206e6f6e20455243373231526560008201527f63656976657220696d706c656d656e7465720000000000000000000000000000602082015250565b60006138f7603283612384565b91506139028261389b565b604082019050919050565b60006020820190508181036000830152613926816138ea565b9050919050565b7f4e487b7100000000000000000000000000000000000000000000000000000000600052601260045260246000fd5b600061396782612434565b915061397283612434565b9250826139825761398161392d565b5b828204905092915050565b600061399882612434565b91506139a383612434565b9250826139b3576139b261392d565b5b828206905092915050565b7f4e487b7100000000000000000000000000000000000000000000000000000000600052603260045260246000fd5b600081519050919050565b600082825260208201905092915050565b6000613a14826139ed565b613a1e81856139f8565b9350613a2e818560208601612395565b613a37816123c8565b840191505092915050565b6000608082019050613a5760008301876124c9565b613a6460208301866124c9565b613a71604083018561255f565b8181036060830152613a838184613a09565b905095945050505050565b600081519050613a9d816122ea565b92915050565b600060208284031215613ab957613ab86122b4565b5b6000613ac784828501613a8e565b9150509291505056fea26469706673582212200b322404b2f2213d4a636c0afe56779f56acdcfac14e2975ed53377b88b8011864736f6c634300080b0033",
  "immutableReferences": {},
  "source": "// SPDX-License-Identifier: MIT\r\npragma solidity ^0.8.0;\r\n\r\nimport \"@openzeppelin/contracts/token/ERC721/ERC721.sol\";\r\nimport \"@openzeppelin/contracts/utils/Counters.sol\";\r\nimport \"@openzeppelin/contracts/access/Ownable.sol\";\r\n\r\ncontract OpenMarket is ERC721, Ownable {\r\n    using Counters for Counters.Counter;\r\n    using Strings for uint256;\r\n\r\n    string private baseURI;\r\n    string private baseExtension = \".json\";\r\n    //   uint256[] tokenid;\r\n    //   uint256[] costOftoken;\r\n    //   mapping(uint256 => uint256) private costOf;\r\n    //   mapping(address => uint256) private etherOf;\r\n\r\n    mapping(uint =>bool ) private _tokenForSale;\r\n    mapping(uint =>uint ) private _tokenPrice;\r\n\r\n    Counters.Counter private _tokenIds;\r\n\r\n    uint[] private totalTokens;\r\n\r\n    constructor(string memory _initBaseURI) ERC721(\"NFT TOKEN\", \"TFN\") {\r\n        setBaseURI(_initBaseURI);\r\n    }\r\n\r\n    function mint() public\r\n    {\r\n        uint256 newItemId = _tokenIds.current();\r\n        totalTokens.push(newItemId);\r\n        _tokenIds.increment();\r\n        _mint(msg.sender, newItemId);\r\n    }\r\n    function mintInBatch(uint256 noOfTokens) public {\r\n        for(uint i=0;i<noOfTokens;i++) {\r\n            uint256 newItemId = _tokenIds.current();\r\n            totalTokens.push(newItemId);\r\n            _tokenIds.increment();\r\n            _mint(msg.sender, newItemId);\r\n        }\r\n    }\r\n    function totalSupply() public view returns(uint256) {\r\n        return totalTokens.length;\r\n    }\r\n    \r\n    function setBaseURI(string memory _newBaseURI) public onlyOwner {\r\n        baseURI = _newBaseURI;\r\n    }\r\n    \r\n    function _baseURI() internal view virtual override returns (string memory) {\r\n        return baseURI;\r\n    }\r\n\r\n    function tokenURI(uint256 tokenId)\r\n        public\r\n        view\r\n        virtual\r\n        override\r\n        returns (string memory)\r\n    {\r\n        require(\r\n            _exists(tokenId),\r\n            \"ERC721Metadata: URI query for nonexistent token\"\r\n        );\r\n\r\n        string memory currentBaseURI = _baseURI();\r\n        return\r\n            bytes(currentBaseURI).length > 0\r\n                ? string(\r\n                    abi.encodePacked(\r\n                        currentBaseURI,\r\n                        tokenId.toString(),\r\n                        baseExtension\r\n                    )\r\n                )\r\n                : \"\";\r\n    }\r\n\r\n    function setTokenForSale(uint tokenId, uint price) public {\r\n        require(ownerOf(tokenId) == _msgSender(),\"Only owner can set a token for sale!\");\r\n        require(_exists(tokenId),\"Token does not exist!\");\r\n        _tokenForSale[tokenId] = true;\r\n        _tokenPrice[tokenId] = price;\r\n    }\r\n\r\n    function changeTokenPrice( uint tokenId,uint price) public {\r\n        require(_tokenForSale[tokenId],\"Token is not for sale, set it sale first!\");\r\n        require(ownerOf(tokenId) == _msgSender(),\"Only owner can set the value!\");\r\n        require(_exists(tokenId),\"Token does not exist!\");\r\n        _tokenPrice[tokenId] = price;\r\n    }\r\n\r\n    function buyNFT(uint tokenId)public {\r\n        require(_tokenForSale[tokenId],\"Token is currently not for sale!\");\r\n        address owner = ownerOf(tokenId);\r\n        require(_msgSender() != address(0),\"Buyer address cannot be zero\");\r\n        require(_msgSender() != owner , \"Cannot buy owned NFT\");\r\n        _transfer(owner,_msgSender(),tokenId);\r\n        _tokenForSale[tokenId] = false;\r\n\r\n        emit Transfer(owner,_msgSender(),tokenId);\r\n    }\r\n\r\n    function removeTokenFromSale(uint tokenId)public{\r\n        require(_tokenForSale[tokenId],\"Token is already set to not for sale\");\r\n        require(ownerOf(tokenId) == _msgSender(),\"Only token owner can set value\");\r\n        require(_exists(tokenId),\"Token does not exist\");\r\n        _tokenForSale[tokenId] = false;\r\n    }\r\n\r\n    function isTokenForSale(uint tokenId)public view returns(bool){\r\n        return _tokenForSale[tokenId];\r\n    }\r\n    function getTokenPrice(uint tokenId)public view returns(uint){\r\n        return _tokenPrice[tokenId];\r\n    }\r\n\r\n    function _transferFrom(address to, uint tokenId) internal {\r\n        require(to != msg.sender , 'Can  not transfer to same address');\r\n        require(to != address(0) , 'Can  not be zero address');\r\n        require(_exists(tokenId),\"No token  exists\");\r\n        \r\n        transferFrom(msg.sender,to,tokenId);\r\n\r\n    }\r\n\r\n    function _apProve(address to , uint tokenId) internal {\r\n        require(to != msg.sender , 'Can  not transfer to same address');\r\n        require(to != address(0) , 'Can  not be zero address');\r\n        require(_exists(tokenId),\"No token exist\");\r\n        approve(to , tokenId);\r\n    }\r\n\r\n\r\n  \r\n\r\n    //  function _transferFrom(address from, address to , uint256 tokenid) public payable {\r\n    //     require(etherOf[to] >= costOf[tokenid], 'Low ether in buyers account');\r\n    //     transferFrom(from,to,tokenid);\r\n    //     etherOf[to]-=costOf[tokenid];\r\n    //     etherOf[from]+=costOf[tokenid];\r\n    // }\r\n\r\n}\r\n    // uint256 private tokenCounter;\r\n    // constructor() ERC721(\"Kryptonion\", \"KN\"){\r\n    //     tokenCounter = 0;\r\n    // }\r\n\r\n    // function mint() public {\r\n    //     uint256 newNFTTokenId = tokenCounter;\r\n    //     _mint(msg.sender, newNFTTokenId);\r\n    //     tokenCounter+=1;\r\n    // }\r\n// }",
  "sourcePath": "E:\\Kelltontech\\solidity\\kryptonion\\NFT-MARKETPLACE\\src\\contracts\\OpenMarket.sol",
  "compiler": {
    "name": "solc",
    "version": "0.8.11+commit.d7f03943.Emscripten.clang"
  },
  "schemaVersion": "3.4.4",
  "updatedAt": "2021-12-23T13:25:53.299Z",
  "devdoc": {
    "kind": "dev",
    "methods": {
      "approve(address,uint256)": {
        "details": "See {IERC721-approve}."
      },
      "balanceOf(address)": {
        "details": "See {IERC721-balanceOf}."
      },
      "getApproved(uint256)": {
        "details": "See {IERC721-getApproved}."
      },
      "isApprovedForAll(address,address)": {
        "details": "See {IERC721-isApprovedForAll}."
      },
      "name()": {
        "details": "See {IERC721Metadata-name}."
      },
      "owner()": {
        "details": "Returns the address of the current owner."
      },
      "ownerOf(uint256)": {
        "details": "See {IERC721-ownerOf}."
      },
      "renounceOwnership()": {
        "details": "Leaves the contract without owner. It will not be possible to call `onlyOwner` functions anymore. Can only be called by the current owner. NOTE: Renouncing ownership will leave the contract without an owner, thereby removing any functionality that is only available to the owner."
      },
      "safeTransferFrom(address,address,uint256)": {
        "details": "See {IERC721-safeTransferFrom}."
      },
      "safeTransferFrom(address,address,uint256,bytes)": {
        "details": "See {IERC721-safeTransferFrom}."
      },
      "setApprovalForAll(address,bool)": {
        "details": "See {IERC721-setApprovalForAll}."
      },
      "supportsInterface(bytes4)": {
        "details": "See {IERC165-supportsInterface}."
      },
      "symbol()": {
        "details": "See {IERC721Metadata-symbol}."
      },
      "tokenURI(uint256)": {
        "details": "See {IERC721Metadata-tokenURI}."
      },
      "transferFrom(address,address,uint256)": {
        "details": "See {IERC721-transferFrom}."
      },
      "transferOwnership(address)": {
        "details": "Transfers ownership of the contract to a new account (`newOwner`). Can only be called by the current owner."
      }
    },
    "version": 1
  },
  "userdoc": {
    "kind": "user",
    "methods": {},
    "version": 1
  }
}