{
  "contractName": "OpenMarket",
  "abi": [
    {
      "inputs": [
        {
          "internalType": "string",
          "name": "_initBaseURI",
          "type": "string"
        }
      ],
      "stateMutability": "nonpayable",
      "type": "constructor"
    },
    {
      "anonymous": false,
      "inputs": [
        {
          "indexed": true,
          "internalType": "address",
          "name": "owner",
          "type": "address"
        },
        {
          "indexed": true,
          "internalType": "address",
          "name": "approved",
          "type": "address"
        },
        {
          "indexed": true,
          "internalType": "uint256",
          "name": "tokenId",
          "type": "uint256"
        }
      ],
      "name": "Approval",
      "type": "event"
    },
    {
      "anonymous": false,
      "inputs": [
        {
          "indexed": true,
          "internalType": "address",
          "name": "owner",
          "type": "address"
        },
        {
          "indexed": true,
          "internalType": "address",
          "name": "operator",
          "type": "address"
        },
        {
          "indexed": false,
          "internalType": "bool",
          "name": "approved",
          "type": "bool"
        }
      ],
      "name": "ApprovalForAll",
      "type": "event"
    },
    {
      "anonymous": false,
      "inputs": [
        {
          "indexed": true,
          "internalType": "address",
          "name": "previousOwner",
          "type": "address"
        },
        {
          "indexed": true,
          "internalType": "address",
          "name": "newOwner",
          "type": "address"
        }
      ],
      "name": "OwnershipTransferred",
      "type": "event"
    },
    {
      "anonymous": false,
      "inputs": [
        {
          "indexed": true,
          "internalType": "address",
          "name": "from",
          "type": "address"
        },
        {
          "indexed": true,
          "internalType": "address",
          "name": "to",
          "type": "address"
        },
        {
          "indexed": true,
          "internalType": "uint256",
          "name": "tokenId",
          "type": "uint256"
        }
      ],
      "name": "Transfer",
      "type": "event"
    },
    {
      "inputs": [
        {
          "internalType": "address",
          "name": "owner",
          "type": "address"
        }
      ],
      "name": "balanceOf",
      "outputs": [
        {
          "internalType": "uint256",
          "name": "",
          "type": "uint256"
        }
      ],
      "stateMutability": "view",
      "type": "function",
      "constant": true
    },
    {
      "inputs": [
        {
          "internalType": "uint256",
          "name": "tokenId",
          "type": "uint256"
        }
      ],
      "name": "getApproved",
      "outputs": [
        {
          "internalType": "address",
          "name": "",
          "type": "address"
        }
      ],
      "stateMutability": "view",
      "type": "function",
      "constant": true
    },
    {
      "inputs": [
        {
          "internalType": "address",
          "name": "owner",
          "type": "address"
        },
        {
          "internalType": "address",
          "name": "operator",
          "type": "address"
        }
      ],
      "name": "isApprovedForAll",
      "outputs": [
        {
          "internalType": "bool",
          "name": "",
          "type": "bool"
        }
      ],
      "stateMutability": "view",
      "type": "function",
      "constant": true
    },
    {
      "inputs": [],
      "name": "name",
      "outputs": [
        {
          "internalType": "string",
          "name": "",
          "type": "string"
        }
      ],
      "stateMutability": "view",
      "type": "function",
      "constant": true
    },
    {
      "inputs": [],
      "name": "owner",
      "outputs": [
        {
          "internalType": "address",
          "name": "",
          "type": "address"
        }
      ],
      "stateMutability": "view",
      "type": "function",
      "constant": true
    },
    {
      "inputs": [
        {
          "internalType": "uint256",
          "name": "tokenId",
          "type": "uint256"
        }
      ],
      "name": "ownerOf",
      "outputs": [
        {
          "internalType": "address",
          "name": "",
          "type": "address"
        }
      ],
      "stateMutability": "view",
      "type": "function",
      "constant": true
    },
    {
      "inputs": [],
      "name": "renounceOwnership",
      "outputs": [],
      "stateMutability": "nonpayable",
      "type": "function"
    },
    {
      "inputs": [
        {
          "internalType": "address",
          "name": "from",
          "type": "address"
        },
        {
          "internalType": "address",
          "name": "to",
          "type": "address"
        },
        {
          "internalType": "uint256",
          "name": "tokenId",
          "type": "uint256"
        }
      ],
      "name": "safeTransferFrom",
      "outputs": [],
      "stateMutability": "nonpayable",
      "type": "function"
    },
    {
      "inputs": [
        {
          "internalType": "address",
          "name": "from",
          "type": "address"
        },
        {
          "internalType": "address",
          "name": "to",
          "type": "address"
        },
        {
          "internalType": "uint256",
          "name": "tokenId",
          "type": "uint256"
        },
        {
          "internalType": "bytes",
          "name": "_data",
          "type": "bytes"
        }
      ],
      "name": "safeTransferFrom",
      "outputs": [],
      "stateMutability": "nonpayable",
      "type": "function"
    },
    {
      "inputs": [
        {
          "internalType": "address",
          "name": "operator",
          "type": "address"
        },
        {
          "internalType": "bool",
          "name": "approved",
          "type": "bool"
        }
      ],
      "name": "setApprovalForAll",
      "outputs": [],
      "stateMutability": "nonpayable",
      "type": "function"
    },
    {
      "inputs": [
        {
          "internalType": "bytes4",
          "name": "interfaceId",
          "type": "bytes4"
        }
      ],
      "name": "supportsInterface",
      "outputs": [
        {
          "internalType": "bool",
          "name": "",
          "type": "bool"
        }
      ],
      "stateMutability": "view",
      "type": "function",
      "constant": true
    },
    {
      "inputs": [],
      "name": "symbol",
      "outputs": [
        {
          "internalType": "string",
          "name": "",
          "type": "string"
        }
      ],
      "stateMutability": "view",
      "type": "function",
      "constant": true
    },
    {
      "inputs": [
        {
          "internalType": "address",
          "name": "from",
          "type": "address"
        },
        {
          "internalType": "address",
          "name": "to",
          "type": "address"
        },
        {
          "internalType": "uint256",
          "name": "tokenId",
          "type": "uint256"
        }
      ],
      "name": "transferFrom",
      "outputs": [],
      "stateMutability": "nonpayable",
      "type": "function"
    },
    {
      "inputs": [
        {
          "internalType": "address",
          "name": "newOwner",
          "type": "address"
        }
      ],
      "name": "transferOwnership",
      "outputs": [],
      "stateMutability": "nonpayable",
      "type": "function"
    },
    {
      "inputs": [],
      "name": "mint",
      "outputs": [],
      "stateMutability": "nonpayable",
      "type": "function"
    },
    {
      "inputs": [
        {
          "internalType": "uint256",
          "name": "noOfTokens",
          "type": "uint256"
        }
      ],
      "name": "mintInBatch",
      "outputs": [],
      "stateMutability": "nonpayable",
      "type": "function"
    },
    {
      "inputs": [
        {
          "internalType": "string",
          "name": "_newBaseURI",
          "type": "string"
        }
      ],
      "name": "setBaseURI",
      "outputs": [],
      "stateMutability": "nonpayable",
      "type": "function"
    },
    {
      "inputs": [
        {
          "internalType": "uint256",
          "name": "tokenId",
          "type": "uint256"
        }
      ],
      "name": "tokenURI",
      "outputs": [
        {
          "internalType": "string",
          "name": "",
          "type": "string"
        }
      ],
      "stateMutability": "view",
      "type": "function",
      "constant": true
    },
    {
      "inputs": [
        {
          "internalType": "uint256",
          "name": "tokenId",
          "type": "uint256"
        },
        {
          "internalType": "uint256",
          "name": "price",
          "type": "uint256"
        }
      ],
      "name": "setTokenForSale",
      "outputs": [],
      "stateMutability": "nonpayable",
      "type": "function"
    },
    {
      "inputs": [
        {
          "internalType": "uint256",
          "name": "tokenId",
          "type": "uint256"
        },
        {
          "internalType": "uint256",
          "name": "price",
          "type": "uint256"
        }
      ],
      "name": "changeTokenPrice",
      "outputs": [],
      "stateMutability": "nonpayable",
      "type": "function"
    },
    {
      "inputs": [
        {
          "internalType": "uint256",
          "name": "tokenId",
          "type": "uint256"
        }
      ],
      "name": "buyNFT",
      "outputs": [],
      "stateMutability": "nonpayable",
      "type": "function"
    },
    {
      "inputs": [
        {
          "internalType": "uint256",
          "name": "tokenId",
          "type": "uint256"
        }
      ],
      "name": "removeTokenFromSale",
      "outputs": [],
      "stateMutability": "nonpayable",
      "type": "function"
    },
    {
      "inputs": [
        {
          "internalType": "uint256",
          "name": "tokenId",
          "type": "uint256"
        }
      ],
      "name": "isTokenForSale",
      "outputs": [
        {
          "internalType": "bool",
          "name": "",
          "type": "bool"
        }
      ],
      "stateMutability": "view",
      "type": "function",
      "constant": true
    },
    {
      "inputs": [
        {
          "internalType": "uint256",
          "name": "tokenId",
          "type": "uint256"
        }
      ],
      "name": "getTokenPrice",
      "outputs": [
        {
          "internalType": "uint256",
          "name": "",
          "type": "uint256"
        }
      ],
      "stateMutability": "view",
      "type": "function",
      "constant": true
    },
    {
      "inputs": [
        {
          "internalType": "address",
          "name": "to",
          "type": "address"
        },
        {
          "internalType": "uint256",
          "name": "tokenId",
          "type": "uint256"
        }
      ],
      "name": "TransferFrom",
      "outputs": [],
      "stateMutability": "nonpayable",
      "type": "function"
    },
    {
      "inputs": [
        {
          "internalType": "address",
          "name": "to",
          "type": "address"
        },
        {
          "internalType": "uint256",
          "name": "tokenId",
          "type": "uint256"
        }
      ],
      "name": "approve",
      "outputs": [],
      "stateMutability": "nonpayable",
      "type": "function"
    },
    {
      "inputs": [
        {
          "internalType": "address",
          "name": "spender",
          "type": "address"
        },
        {
          "internalType": "uint256",
          "name": "tokenId",
          "type": "uint256"
        }
      ],
      "name": "checkApproval",
      "outputs": [
        {
          "internalType": "bool",
          "name": "",
          "type": "bool"
        }
      ],
      "stateMutability": "view",
      "type": "function",
      "constant": true
    }
  ],
  "bytecode": "0x60806040526040518060400160405280600581526020017f2e6a736f6e000000000000000000000000000000000000000000000000000000815250600890805190602001906200005192919062000300565b503480156200005f57600080fd5b50604051620044383803806200443883398181016040528101906200008591906200054d565b6040518060400160405280600981526020017f4e465420544f4b454e00000000000000000000000000000000000000000000008152506040518060400160405280600381526020017f54464e000000000000000000000000000000000000000000000000000000000081525081600090805190602001906200010992919062000300565b5080600190805190602001906200012292919062000300565b50505062000145620001396200015d60201b60201c565b6200016560201b60201c565b62000156816200022b60201b60201c565b5062000686565b600033905090565b6000600660009054906101000a900473ffffffffffffffffffffffffffffffffffffffff16905081600660006101000a81548173ffffffffffffffffffffffffffffffffffffffff021916908373ffffffffffffffffffffffffffffffffffffffff1602179055508173ffffffffffffffffffffffffffffffffffffffff168173ffffffffffffffffffffffffffffffffffffffff167f8be0079c531659141344cd1fd0a4f28419497f9722a3daafe3b4186f6b6457e060405160405180910390a35050565b6200023b6200015d60201b60201c565b73ffffffffffffffffffffffffffffffffffffffff1662000261620002d660201b60201c565b73ffffffffffffffffffffffffffffffffffffffff1614620002ba576040517f08c379a0000000000000000000000000000000000000000000000000000000008152600401620002b190620005ff565b60405180910390fd5b8060079080519060200190620002d292919062000300565b5050565b6000600660009054906101000a900473ffffffffffffffffffffffffffffffffffffffff16905090565b8280546200030e9062000650565b90600052602060002090601f0160209004810192826200033257600085556200037e565b82601f106200034d57805160ff19168380011785556200037e565b828001600101855582156200037e579182015b828111156200037d57825182559160200191906001019062000360565b5b5090506200038d919062000391565b5090565b5b80821115620003ac57600081600090555060010162000392565b5090565b6000604051905090565b600080fd5b600080fd5b600080fd5b600080fd5b6000601f19601f8301169050919050565b7f4e487b7100000000000000000000000000000000000000000000000000000000600052604160045260246000fd5b6200041982620003ce565b810181811067ffffffffffffffff821117156200043b576200043a620003df565b5b80604052505050565b600062000450620003b0565b90506200045e82826200040e565b919050565b600067ffffffffffffffff821115620004815762000480620003df565b5b6200048c82620003ce565b9050602081019050919050565b60005b83811015620004b95780820151818401526020810190506200049c565b83811115620004c9576000848401525b50505050565b6000620004e6620004e08462000463565b62000444565b905082815260208101848484011115620005055762000504620003c9565b5b6200051284828562000499565b509392505050565b600082601f830112620005325762000531620003c4565b5b815162000544848260208601620004cf565b91505092915050565b600060208284031215620005665762000565620003ba565b5b600082015167ffffffffffffffff811115620005875762000586620003bf565b5b62000595848285016200051a565b91505092915050565b600082825260208201905092915050565b7f4f776e61626c653a2063616c6c6572206973206e6f7420746865206f776e6572600082015250565b6000620005e76020836200059e565b9150620005f482620005af565b602082019050919050565b600060208201905081810360008301526200061a81620005d8565b9050919050565b7f4e487b7100000000000000000000000000000000000000000000000000000000600052602260045260246000fd5b600060028204905060018216806200066957607f821691505b6020821081141562000680576200067f62000621565b5b50919050565b613da280620006966000396000f3fe608060405234801561001057600080fd5b50600436106101a95760003560e01c806362e8e8ac116100f9578063b88d4fde11610097578063cb233ce211610071578063cb233ce2146104b4578063e8cdea11146104d0578063e985e9c5146104ec578063f2fde38b1461051c576101a9565b8063b88d4fde14610438578063c457fb3714610454578063c87b56dd14610484576101a9565b8063715018a6116100d3578063715018a6146103d65780638da5cb5b146103e057806395d89b41146103fe578063a22cb4651461041c576101a9565b806362e8e8ac1461035a5780636352211e1461037657806370a08231146103a6576101a9565b806323b872dd116101665780634fed1c94116101405780634fed1c94146102d657806351ed82881461030657806355f804b31461032257806358becdf91461033e576101a9565b806323b872dd1461026e57806326ef1e2f1461028a57806342842e0e146102ba576101a9565b806301ffc9a7146101ae57806306fdde03146101de578063081812fc146101fc578063095ea7b31461022c5780631249c58b1461024857806320477b8c14610252575b600080fd5b6101c860048036038101906101c39190612500565b610538565b6040516101d59190612548565b60405180910390f35b6101e661061a565b6040516101f391906125fc565b60405180910390f35b61021660048036038101906102119190612654565b6106ac565b60405161022391906126c2565b60405180910390f35b61024660048036038101906102419190612709565b610731565b005b610250610866565b005b61026c60048036038101906102679190612654565b6108b4565b005b61028860048036038101906102839190612749565b610922565b005b6102a4600480360381019061029f9190612709565b610982565b6040516102b19190612548565b60405180910390f35b6102d460048036038101906102cf9190612749565b610996565b005b6102f060048036038101906102eb9190612654565b6109b6565b6040516102fd9190612548565b60405180910390f35b610320600480360381019061031b9190612654565b6109e0565b005b61033c600480360381019061033791906128d1565b610bde565b005b61035860048036038101906103539190612709565b610c74565b005b610374600480360381019061036f919061291a565b610df3565b005b610390600480360381019061038b9190612654565b610f34565b60405161039d91906126c2565b60405180910390f35b6103c060048036038101906103bb919061295a565b610fe6565b6040516103cd9190612996565b60405180910390f35b6103de61109e565b005b6103e8611126565b6040516103f591906126c2565b60405180910390f35b610406611150565b60405161041391906125fc565b60405180910390f35b610436600480360381019061043191906129dd565b6111e2565b005b610452600480360381019061044d9190612abe565b611363565b005b61046e60048036038101906104699190612654565b6113c5565b60405161047b9190612996565b60405180910390f35b61049e60048036038101906104999190612654565b6113e2565b6040516104ab91906125fc565b60405180910390f35b6104ce60048036038101906104c9919061291a565b61148c565b005b6104ea60048036038101906104e59190612654565b611599565b005b61050660048036038101906105019190612b41565b6116ed565b6040516105139190612548565b60405180910390f35b6105366004803603810190610531919061295a565b611781565b005b60007f80ac58cd000000000000000000000000000000000000000000000000000000007bffffffffffffffffffffffffffffffffffffffffffffffffffffffff1916827bffffffffffffffffffffffffffffffffffffffffffffffffffffffff1916148061060357507f5b5e139f000000000000000000000000000000000000000000000000000000007bffffffffffffffffffffffffffffffffffffffffffffffffffffffff1916827bffffffffffffffffffffffffffffffffffffffffffffffffffffffff1916145b80610613575061061282611879565b5b9050919050565b60606000805461062990612bb0565b80601f016020809104026020016040519081016040528092919081815260200182805461065590612bb0565b80156106a25780601f10610677576101008083540402835291602001916106a2565b820191906000526020600020905b81548152906001019060200180831161068557829003601f168201915b5050505050905090565b60006106b7826118e3565b6106f6576040517f08c379a00000000000000000000000000000000000000000000000000000000081526004016106ed90612c54565b60405180910390fd5b6004600083815260200190815260200160002060009054906101000a900473ffffffffffffffffffffffffffffffffffffffff169050919050565b3373ffffffffffffffffffffffffffffffffffffffff168273ffffffffffffffffffffffffffffffffffffffff1614156107a0576040517f08c379a000000000000000000000000000000000000000000000000000000000815260040161079790612ce6565b60405180910390fd5b600073ffffffffffffffffffffffffffffffffffffffff168273ffffffffffffffffffffffffffffffffffffffff161415610810576040517f08c379a000000000000000000000000000000000000000000000000000000000815260040161080790612d52565b60405180910390fd5b610819816118e3565b610858576040517f08c379a000000000000000000000000000000000000000000000000000000000815260040161084f90612dbe565b60405180910390fd5b610862828261194f565b5050565b6000610872600b611a08565b9050600c8190806001815401808255809150506001900390600052602060002001600090919091909150556108a7600b611a16565b6108b13382611a2c565b50565b60005b8181101561091e5760006108cb600b611a08565b9050600c819080600181540180825580915050600190039060005260206000200160009091909190915055610900600b611a16565b61090a3382611a2c565b50808061091690612e0d565b9150506108b7565b5050565b61093361092d611bfa565b82611c02565b610972576040517f08c379a000000000000000000000000000000000000000000000000000000000815260040161096990612ec8565b60405180910390fd5b61097d838383611ce0565b505050565b600061098e8383611c02565b905092915050565b6109b183838360405180602001604052806000815250611363565b505050565b60006009600083815260200190815260200160002060009054906101000a900460ff169050919050565b6009600082815260200190815260200160002060009054906101000a900460ff16610a40576040517f08c379a0000000000000000000000000000000000000000000000000000000008152600401610a3790612f34565b60405180910390fd5b6000610a4b82610f34565b9050600073ffffffffffffffffffffffffffffffffffffffff16610a6d611bfa565b73ffffffffffffffffffffffffffffffffffffffff161415610ac4576040517f08c379a0000000000000000000000000000000000000000000000000000000008152600401610abb90612fa0565b60405180910390fd5b8073ffffffffffffffffffffffffffffffffffffffff16610ae3611bfa565b73ffffffffffffffffffffffffffffffffffffffff161415610b3a576040517f08c379a0000000000000000000000000000000000000000000000000000000008152600401610b319061300c565b60405180910390fd5b610b4c81610b46611bfa565b84611ce0565b60006009600084815260200190815260200160002060006101000a81548160ff02191690831515021790555081610b81611bfa565b73ffffffffffffffffffffffffffffffffffffffff168273ffffffffffffffffffffffffffffffffffffffff167fddf252ad1be2c89b69c2b068fc378daa952ba7f163c4a11628f55a4df523b3ef60405160405180910390a45050565b610be6611bfa565b73ffffffffffffffffffffffffffffffffffffffff16610c04611126565b73ffffffffffffffffffffffffffffffffffffffff1614610c5a576040517f08c379a0000000000000000000000000000000000000000000000000000000008152600401610c5190613078565b60405180910390fd5b8060079080519060200190610c709291906123f1565b5050565b610c7e3382611c02565b610cbd576040517f08c379a0000000000000000000000000000000000000000000000000000000008152600401610cb490612ec8565b60405180910390fd5b3373ffffffffffffffffffffffffffffffffffffffff168273ffffffffffffffffffffffffffffffffffffffff161415610d2c576040517f08c379a0000000000000000000000000000000000000000000000000000000008152600401610d2390612ce6565b60405180910390fd5b600073ffffffffffffffffffffffffffffffffffffffff168273ffffffffffffffffffffffffffffffffffffffff161415610d9c576040517f08c379a0000000000000000000000000000000000000000000000000000000008152600401610d9390612d52565b60405180910390fd5b610da5816118e3565b610de4576040517f08c379a0000000000000000000000000000000000000000000000000000000008152600401610ddb906130e4565b60405180910390fd5b610def338383611ce0565b5050565b6009600083815260200190815260200160002060009054906101000a900460ff16610e53576040517f08c379a0000000000000000000000000000000000000000000000000000000008152600401610e4a90613176565b60405180910390fd5b610e5b611bfa565b73ffffffffffffffffffffffffffffffffffffffff16610e7a83610f34565b73ffffffffffffffffffffffffffffffffffffffff1614610ed0576040517f08c379a0000000000000000000000000000000000000000000000000000000008152600401610ec7906131e2565b60405180910390fd5b610ed9826118e3565b610f18576040517f08c379a0000000000000000000000000000000000000000000000000000000008152600401610f0f9061324e565b60405180910390fd5b80600a6000848152602001908152602001600020819055505050565b6000806002600084815260200190815260200160002060009054906101000a900473ffffffffffffffffffffffffffffffffffffffff169050600073ffffffffffffffffffffffffffffffffffffffff168173ffffffffffffffffffffffffffffffffffffffff161415610fdd576040517f08c379a0000000000000000000000000000000000000000000000000000000008152600401610fd4906132e0565b60405180910390fd5b80915050919050565b60008073ffffffffffffffffffffffffffffffffffffffff168273ffffffffffffffffffffffffffffffffffffffff161415611057576040517f08c379a000000000000000000000000000000000000000000000000000000000815260040161104e90613372565b60405180910390fd5b600360008373ffffffffffffffffffffffffffffffffffffffff1673ffffffffffffffffffffffffffffffffffffffff168152602001908152602001600020549050919050565b6110a6611bfa565b73ffffffffffffffffffffffffffffffffffffffff166110c4611126565b73ffffffffffffffffffffffffffffffffffffffff161461111a576040517f08c379a000000000000000000000000000000000000000000000000000000000815260040161111190613078565b60405180910390fd5b6111246000611f3c565b565b6000600660009054906101000a900473ffffffffffffffffffffffffffffffffffffffff16905090565b60606001805461115f90612bb0565b80601f016020809104026020016040519081016040528092919081815260200182805461118b90612bb0565b80156111d85780601f106111ad576101008083540402835291602001916111d8565b820191906000526020600020905b8154815290600101906020018083116111bb57829003601f168201915b5050505050905090565b6111ea611bfa565b73ffffffffffffffffffffffffffffffffffffffff168273ffffffffffffffffffffffffffffffffffffffff161415611258576040517f08c379a000000000000000000000000000000000000000000000000000000000815260040161124f906133de565b60405180910390fd5b8060056000611265611bfa565b73ffffffffffffffffffffffffffffffffffffffff1673ffffffffffffffffffffffffffffffffffffffff16815260200190815260200160002060008473ffffffffffffffffffffffffffffffffffffffff1673ffffffffffffffffffffffffffffffffffffffff16815260200190815260200160002060006101000a81548160ff0219169083151502179055508173ffffffffffffffffffffffffffffffffffffffff16611312611bfa565b73ffffffffffffffffffffffffffffffffffffffff167f17307eab39ab6107e8899845ad3d59bd9653f200f220920489ca2b5937696c31836040516113579190612548565b60405180910390a35050565b61137461136e611bfa565b83611c02565b6113b3576040517f08c379a00000000000000000000000000000000000000000000000000000000081526004016113aa90612ec8565b60405180910390fd5b6113bf84848484612002565b50505050565b6000600a6000838152602001908152602001600020549050919050565b60606113ed826118e3565b61142c576040517f08c379a000000000000000000000000000000000000000000000000000000000815260040161142390613470565b60405180910390fd5b600061143661205e565b905060008151116114565760405180602001604052806000815250611484565b80611460846120f0565b600860405160200161147493929190613560565b6040516020818303038152906040525b915050919050565b611494611bfa565b73ffffffffffffffffffffffffffffffffffffffff166114b383610f34565b73ffffffffffffffffffffffffffffffffffffffff1614611509576040517f08c379a000000000000000000000000000000000000000000000000000000000815260040161150090613603565b60405180910390fd5b611512826118e3565b611551576040517f08c379a00000000000000000000000000000000000000000000000000000000081526004016115489061324e565b60405180910390fd5b60016009600084815260200190815260200160002060006101000a81548160ff02191690831515021790555080600a6000848152602001908152602001600020819055505050565b6009600082815260200190815260200160002060009054906101000a900460ff166115f9576040517f08c379a00000000000000000000000000000000000000000000000000000000081526004016115f090613695565b60405180910390fd5b611601611bfa565b73ffffffffffffffffffffffffffffffffffffffff1661162082610f34565b73ffffffffffffffffffffffffffffffffffffffff1614611676576040517f08c379a000000000000000000000000000000000000000000000000000000000815260040161166d90613701565b60405180910390fd5b61167f816118e3565b6116be576040517f08c379a00000000000000000000000000000000000000000000000000000000081526004016116b59061376d565b60405180910390fd5b60006009600083815260200190815260200160002060006101000a81548160ff02191690831515021790555050565b6000600560008473ffffffffffffffffffffffffffffffffffffffff1673ffffffffffffffffffffffffffffffffffffffff16815260200190815260200160002060008373ffffffffffffffffffffffffffffffffffffffff1673ffffffffffffffffffffffffffffffffffffffff16815260200190815260200160002060009054906101000a900460ff16905092915050565b611789611bfa565b73ffffffffffffffffffffffffffffffffffffffff166117a7611126565b73ffffffffffffffffffffffffffffffffffffffff16146117fd576040517f08c379a00000000000000000000000000000000000000000000000000000000081526004016117f490613078565b60405180910390fd5b600073ffffffffffffffffffffffffffffffffffffffff168173ffffffffffffffffffffffffffffffffffffffff16141561186d576040517f08c379a0000000000000000000000000000000000000000000000000000000008152600401611864906137ff565b60405180910390fd5b61187681611f3c565b50565b60007f01ffc9a7000000000000000000000000000000000000000000000000000000007bffffffffffffffffffffffffffffffffffffffffffffffffffffffff1916827bffffffffffffffffffffffffffffffffffffffffffffffffffffffff1916149050919050565b60008073ffffffffffffffffffffffffffffffffffffffff166002600084815260200190815260200160002060009054906101000a900473ffffffffffffffffffffffffffffffffffffffff1673ffffffffffffffffffffffffffffffffffffffff1614159050919050565b816004600083815260200190815260200160002060006101000a81548173ffffffffffffffffffffffffffffffffffffffff021916908373ffffffffffffffffffffffffffffffffffffffff160217905550808273ffffffffffffffffffffffffffffffffffffffff166119c283610f34565b73ffffffffffffffffffffffffffffffffffffffff167f8c5be1e5ebec7d5bd14f71427d1e84f3dd0314c0f7b2291e5b200ac8c7c3b92560405160405180910390a45050565b600081600001549050919050565b6001816000016000828254019250508190555050565b600073ffffffffffffffffffffffffffffffffffffffff168273ffffffffffffffffffffffffffffffffffffffff161415611a9c576040517f08c379a0000000000000000000000000000000000000000000000000000000008152600401611a939061386b565b60405180910390fd5b611aa5816118e3565b15611ae5576040517f08c379a0000000000000000000000000000000000000000000000000000000008152600401611adc906138d7565b60405180910390fd5b611af160008383612251565b6001600360008473ffffffffffffffffffffffffffffffffffffffff1673ffffffffffffffffffffffffffffffffffffffff1681526020019081526020016000206000828254611b4191906138f7565b92505081905550816002600083815260200190815260200160002060006101000a81548173ffffffffffffffffffffffffffffffffffffffff021916908373ffffffffffffffffffffffffffffffffffffffff160217905550808273ffffffffffffffffffffffffffffffffffffffff16600073ffffffffffffffffffffffffffffffffffffffff167fddf252ad1be2c89b69c2b068fc378daa952ba7f163c4a11628f55a4df523b3ef60405160405180910390a45050565b600033905090565b6000611c0d826118e3565b611c4c576040517f08c379a0000000000000000000000000000000000000000000000000000000008152600401611c43906139bf565b60405180910390fd5b6000611c5783610f34565b90508073ffffffffffffffffffffffffffffffffffffffff168473ffffffffffffffffffffffffffffffffffffffff161480611cc657508373ffffffffffffffffffffffffffffffffffffffff16611cae846106ac565b73ffffffffffffffffffffffffffffffffffffffff16145b80611cd75750611cd681856116ed565b5b91505092915050565b8273ffffffffffffffffffffffffffffffffffffffff16611d0082610f34565b73ffffffffffffffffffffffffffffffffffffffff1614611d56576040517f08c379a0000000000000000000000000000000000000000000000000000000008152600401611d4d90613a51565b60405180910390fd5b600073ffffffffffffffffffffffffffffffffffffffff168273ffffffffffffffffffffffffffffffffffffffff161415611dc6576040517f08c379a0000000000000000000000000000000000000000000000000000000008152600401611dbd90613ae3565b60405180910390fd5b611dd1838383612251565b611ddc60008261194f565b6001600360008573ffffffffffffffffffffffffffffffffffffffff1673ffffffffffffffffffffffffffffffffffffffff1681526020019081526020016000206000828254611e2c9190613b03565b925050819055506001600360008473ffffffffffffffffffffffffffffffffffffffff1673ffffffffffffffffffffffffffffffffffffffff1681526020019081526020016000206000828254611e8391906138f7565b92505081905550816002600083815260200190815260200160002060006101000a81548173ffffffffffffffffffffffffffffffffffffffff021916908373ffffffffffffffffffffffffffffffffffffffff160217905550808273ffffffffffffffffffffffffffffffffffffffff168473ffffffffffffffffffffffffffffffffffffffff167fddf252ad1be2c89b69c2b068fc378daa952ba7f163c4a11628f55a4df523b3ef60405160405180910390a4505050565b6000600660009054906101000a900473ffffffffffffffffffffffffffffffffffffffff16905081600660006101000a81548173ffffffffffffffffffffffffffffffffffffffff021916908373ffffffffffffffffffffffffffffffffffffffff1602179055508173ffffffffffffffffffffffffffffffffffffffff168173ffffffffffffffffffffffffffffffffffffffff167f8be0079c531659141344cd1fd0a4f28419497f9722a3daafe3b4186f6b6457e060405160405180910390a35050565b61200d848484611ce0565b61201984848484612256565b612058576040517f08c379a000000000000000000000000000000000000000000000000000000000815260040161204f90613ba9565b60405180910390fd5b50505050565b60606007805461206d90612bb0565b80601f016020809104026020016040519081016040528092919081815260200182805461209990612bb0565b80156120e65780601f106120bb576101008083540402835291602001916120e6565b820191906000526020600020905b8154815290600101906020018083116120c957829003601f168201915b5050505050905090565b60606000821415612138576040518060400160405280600181526020017f3000000000000000000000000000000000000000000000000000000000000000815250905061224c565b600082905060005b6000821461216a57808061215390612e0d565b915050600a826121639190613bf8565b9150612140565b60008167ffffffffffffffff811115612186576121856127a6565b5b6040519080825280601f01601f1916602001820160405280156121b85781602001600182028036833780820191505090505b5090505b60008514612245576001826121d19190613b03565b9150600a856121e09190613c29565b60306121ec91906138f7565b60f81b81838151811061220257612201613c5a565b5b60200101907effffffffffffffffffffffffffffffffffffffffffffffffffffffffffffff1916908160001a905350600a8561223e9190613bf8565b94506121bc565b8093505050505b919050565b505050565b60006122778473ffffffffffffffffffffffffffffffffffffffff166123de565b156123d1578373ffffffffffffffffffffffffffffffffffffffff1663150b7a026122a0611bfa565b8786866040518563ffffffff1660e01b81526004016122c29493929190613cde565b6020604051808303816000875af19250505080156122fe57506040513d601f19601f820116820180604052508101906122fb9190613d3f565b60015b612381573d806000811461232e576040519150601f19603f3d011682016040523d82523d6000602084013e612333565b606091505b50600081511415612379576040517f08c379a000000000000000000000000000000000000000000000000000000000815260040161237090613ba9565b60405180910390fd5b805181602001fd5b63150b7a0260e01b7bffffffffffffffffffffffffffffffffffffffffffffffffffffffff1916817bffffffffffffffffffffffffffffffffffffffffffffffffffffffff1916149150506123d6565b600190505b949350505050565b600080823b905060008111915050919050565b8280546123fd90612bb0565b90600052602060002090601f01602090048101928261241f5760008555612466565b82601f1061243857805160ff1916838001178555612466565b82800160010185558215612466579182015b8281111561246557825182559160200191906001019061244a565b5b5090506124739190612477565b5090565b5b80821115612490576000816000905550600101612478565b5090565b6000604051905090565b600080fd5b600080fd5b60007fffffffff0000000000000000000000000000000000000000000000000000000082169050919050565b6124dd816124a8565b81146124e857600080fd5b50565b6000813590506124fa816124d4565b92915050565b6000602082840312156125165761251561249e565b5b6000612524848285016124eb565b91505092915050565b60008115159050919050565b6125428161252d565b82525050565b600060208201905061255d6000830184612539565b92915050565b600081519050919050565b600082825260208201905092915050565b60005b8381101561259d578082015181840152602081019050612582565b838111156125ac576000848401525b50505050565b6000601f19601f8301169050919050565b60006125ce82612563565b6125d8818561256e565b93506125e881856020860161257f565b6125f1816125b2565b840191505092915050565b6000602082019050818103600083015261261681846125c3565b905092915050565b6000819050919050565b6126318161261e565b811461263c57600080fd5b50565b60008135905061264e81612628565b92915050565b60006020828403121561266a5761266961249e565b5b60006126788482850161263f565b91505092915050565b600073ffffffffffffffffffffffffffffffffffffffff82169050919050565b60006126ac82612681565b9050919050565b6126bc816126a1565b82525050565b60006020820190506126d760008301846126b3565b92915050565b6126e6816126a1565b81146126f157600080fd5b50565b600081359050612703816126dd565b92915050565b600080604083850312156127205761271f61249e565b5b600061272e858286016126f4565b925050602061273f8582860161263f565b9150509250929050565b6000806000606084860312156127625761276161249e565b5b6000612770868287016126f4565b9350506020612781868287016126f4565b92505060406127928682870161263f565b9150509250925092565b600080fd5b600080fd5b7f4e487b7100000000000000000000000000000000000000000000000000000000600052604160045260246000fd5b6127de826125b2565b810181811067ffffffffffffffff821117156127fd576127fc6127a6565b5b80604052505050565b6000612810612494565b905061281c82826127d5565b919050565b600067ffffffffffffffff82111561283c5761283b6127a6565b5b612845826125b2565b9050602081019050919050565b82818337600083830152505050565b600061287461286f84612821565b612806565b9050828152602081018484840111156128905761288f6127a1565b5b61289b848285612852565b509392505050565b600082601f8301126128b8576128b761279c565b5b81356128c8848260208601612861565b91505092915050565b6000602082840312156128e7576128e661249e565b5b600082013567ffffffffffffffff811115612905576129046124a3565b5b612911848285016128a3565b91505092915050565b600080604083850312156129315761293061249e565b5b600061293f8582860161263f565b92505060206129508582860161263f565b9150509250929050565b6000602082840312156129705761296f61249e565b5b600061297e848285016126f4565b91505092915050565b6129908161261e565b82525050565b60006020820190506129ab6000830184612987565b92915050565b6129ba8161252d565b81146129c557600080fd5b50565b6000813590506129d7816129b1565b92915050565b600080604083850312156129f4576129f361249e565b5b6000612a02858286016126f4565b9250506020612a13858286016129c8565b9150509250929050565b600067ffffffffffffffff821115612a3857612a376127a6565b5b612a41826125b2565b9050602081019050919050565b6000612a61612a5c84612a1d565b612806565b905082815260208101848484011115612a7d57612a7c6127a1565b5b612a88848285612852565b509392505050565b600082601f830112612aa557612aa461279c565b5b8135612ab5848260208601612a4e565b91505092915050565b60008060008060808587031215612ad857612ad761249e565b5b6000612ae6878288016126f4565b9450506020612af7878288016126f4565b9350506040612b088782880161263f565b925050606085013567ffffffffffffffff811115612b2957612b286124a3565b5b612b3587828801612a90565b91505092959194509250565b60008060408385031215612b5857612b5761249e565b5b6000612b66858286016126f4565b9250506020612b77858286016126f4565b9150509250929050565b7f4e487b7100000000000000000000000000000000000000000000000000000000600052602260045260246000fd5b60006002820490506001821680612bc857607f821691505b60208210811415612bdc57612bdb612b81565b5b50919050565b7f4552433732313a20617070726f76656420717565727920666f72206e6f6e657860008201527f697374656e7420746f6b656e0000000000000000000000000000000000000000602082015250565b6000612c3e602c8361256e565b9150612c4982612be2565b604082019050919050565b60006020820190508181036000830152612c6d81612c31565b9050919050565b7f43616e20206e6f74207472616e7366657220746f2073616d652061646472657360008201527f7300000000000000000000000000000000000000000000000000000000000000602082015250565b6000612cd060218361256e565b9150612cdb82612c74565b604082019050919050565b60006020820190508181036000830152612cff81612cc3565b9050919050565b7f43616e20206e6f74206265207a65726f20616464726573730000000000000000600082015250565b6000612d3c60188361256e565b9150612d4782612d06565b602082019050919050565b60006020820190508181036000830152612d6b81612d2f565b9050919050565b7f4e6f20746f6b656e206578697374000000000000000000000000000000000000600082015250565b6000612da8600e8361256e565b9150612db382612d72565b602082019050919050565b60006020820190508181036000830152612dd781612d9b565b9050919050565b7f4e487b7100000000000000000000000000000000000000000000000000000000600052601160045260246000fd5b6000612e188261261e565b91507fffffffffffffffffffffffffffffffffffffffffffffffffffffffffffffffff821415612e4b57612e4a612dde565b5b600182019050919050565b7f4552433732313a207472616e736665722063616c6c6572206973206e6f74206f60008201527f776e6572206e6f7220617070726f766564000000000000000000000000000000602082015250565b6000612eb260318361256e565b9150612ebd82612e56565b604082019050919050565b60006020820190508181036000830152612ee181612ea5565b9050919050565b7f546f6b656e2069732063757272656e746c79206e6f7420666f722073616c6521600082015250565b6000612f1e60208361256e565b9150612f2982612ee8565b602082019050919050565b60006020820190508181036000830152612f4d81612f11565b9050919050565b7f427579657220616464726573732063616e6e6f74206265207a65726f00000000600082015250565b6000612f8a601c8361256e565b9150612f9582612f54565b602082019050919050565b60006020820190508181036000830152612fb981612f7d565b9050919050565b7f43616e6e6f7420627579206f776e6564204e4654000000000000000000000000600082015250565b6000612ff660148361256e565b915061300182612fc0565b602082019050919050565b6000602082019050818103600083015261302581612fe9565b9050919050565b7f4f776e61626c653a2063616c6c6572206973206e6f7420746865206f776e6572600082015250565b600061306260208361256e565b915061306d8261302c565b602082019050919050565b6000602082019050818103600083015261309181613055565b9050919050565b7f4e6f20746f6b656e202065786973747300000000000000000000000000000000600082015250565b60006130ce60108361256e565b91506130d982613098565b602082019050919050565b600060208201905081810360008301526130fd816130c1565b9050919050565b7f546f6b656e206973206e6f7420666f722073616c652c2073657420697420736160008201527f6c65206669727374210000000000000000000000000000000000000000000000602082015250565b600061316060298361256e565b915061316b82613104565b604082019050919050565b6000602082019050818103600083015261318f81613153565b9050919050565b7f4f6e6c79206f776e65722063616e20736574207468652076616c756521000000600082015250565b60006131cc601d8361256e565b91506131d782613196565b602082019050919050565b600060208201905081810360008301526131fb816131bf565b9050919050565b7f546f6b656e20646f6573206e6f74206578697374210000000000000000000000600082015250565b600061323860158361256e565b915061324382613202565b602082019050919050565b600060208201905081810360008301526132678161322b565b9050919050565b7f4552433732313a206f776e657220717565727920666f72206e6f6e657869737460008201527f656e7420746f6b656e0000000000000000000000000000000000000000000000602082015250565b60006132ca60298361256e565b91506132d58261326e565b604082019050919050565b600060208201905081810360008301526132f9816132bd565b9050919050565b7f4552433732313a2062616c616e636520717565727920666f7220746865207a6560008201527f726f206164647265737300000000000000000000000000000000000000000000602082015250565b600061335c602a8361256e565b915061336782613300565b604082019050919050565b6000602082019050818103600083015261338b8161334f565b9050919050565b7f4552433732313a20617070726f766520746f2063616c6c657200000000000000600082015250565b60006133c860198361256e565b91506133d382613392565b602082019050919050565b600060208201905081810360008301526133f7816133bb565b9050919050565b7f4552433732314d657461646174613a2055524920717565727920666f72206e6f60008201527f6e6578697374656e7420746f6b656e0000000000000000000000000000000000602082015250565b600061345a602f8361256e565b9150613465826133fe565b604082019050919050565b600060208201905081810360008301526134898161344d565b9050919050565b600081905092915050565b60006134a682612563565b6134b08185613490565b93506134c081856020860161257f565b80840191505092915050565b60008190508160005260206000209050919050565b600081546134ee81612bb0565b6134f88186613490565b94506001821660008114613513576001811461352457613557565b60ff19831686528186019350613557565b61352d856134cc565b60005b8381101561354f57815481890152600182019150602081019050613530565b838801955050505b50505092915050565b600061356c828661349b565b9150613578828561349b565b915061358482846134e1565b9150819050949350505050565b7f4f6e6c79206f776e65722063616e20736574206120746f6b656e20666f72207360008201527f616c652100000000000000000000000000000000000000000000000000000000602082015250565b60006135ed60248361256e565b91506135f882613591565b604082019050919050565b6000602082019050818103600083015261361c816135e0565b9050919050565b7f546f6b656e20697320616c72656164792073657420746f206e6f7420666f722060008201527f73616c6500000000000000000000000000000000000000000000000000000000602082015250565b600061367f60248361256e565b915061368a82613623565b604082019050919050565b600060208201905081810360008301526136ae81613672565b9050919050565b7f4f6e6c7920746f6b656e206f776e65722063616e207365742076616c75650000600082015250565b60006136eb601e8361256e565b91506136f6826136b5565b602082019050919050565b6000602082019050818103600083015261371a816136de565b9050919050565b7f546f6b656e20646f6573206e6f74206578697374000000000000000000000000600082015250565b600061375760148361256e565b915061376282613721565b602082019050919050565b600060208201905081810360008301526137868161374a565b9050919050565b7f4f776e61626c653a206e6577206f776e657220697320746865207a65726f206160008201527f6464726573730000000000000000000000000000000000000000000000000000602082015250565b60006137e960268361256e565b91506137f48261378d565b604082019050919050565b60006020820190508181036000830152613818816137dc565b9050919050565b7f4552433732313a206d696e7420746f20746865207a65726f2061646472657373600082015250565b600061385560208361256e565b91506138608261381f565b602082019050919050565b6000602082019050818103600083015261388481613848565b9050919050565b7f4552433732313a20746f6b656e20616c7265616479206d696e74656400000000600082015250565b60006138c1601c8361256e565b91506138cc8261388b565b602082019050919050565b600060208201905081810360008301526138f0816138b4565b9050919050565b60006139028261261e565b915061390d8361261e565b9250827fffffffffffffffffffffffffffffffffffffffffffffffffffffffffffffffff0382111561394257613941612dde565b5b828201905092915050565b7f4552433732313a206f70657261746f7220717565727920666f72206e6f6e657860008201527f697374656e7420746f6b656e0000000000000000000000000000000000000000602082015250565b60006139a9602c8361256e565b91506139b48261394d565b604082019050919050565b600060208201905081810360008301526139d88161399c565b9050919050565b7f4552433732313a207472616e73666572206f6620746f6b656e2074686174206960008201527f73206e6f74206f776e0000000000000000000000000000000000000000000000602082015250565b6000613a3b60298361256e565b9150613a46826139df565b604082019050919050565b60006020820190508181036000830152613a6a81613a2e565b9050919050565b7f4552433732313a207472616e7366657220746f20746865207a65726f2061646460008201527f7265737300000000000000000000000000000000000000000000000000000000602082015250565b6000613acd60248361256e565b9150613ad882613a71565b604082019050919050565b60006020820190508181036000830152613afc81613ac0565b9050919050565b6000613b0e8261261e565b9150613b198361261e565b925082821015613b2c57613b2b612dde565b5b828203905092915050565b7f4552433732313a207472616e7366657220746f206e6f6e20455243373231526560008201527f63656976657220696d706c656d656e7465720000000000000000000000000000602082015250565b6000613b9360328361256e565b9150613b9e82613b37565b604082019050919050565b60006020820190508181036000830152613bc281613b86565b9050919050565b7f4e487b7100000000000000000000000000000000000000000000000000000000600052601260045260246000fd5b6000613c038261261e565b9150613c0e8361261e565b925082613c1e57613c1d613bc9565b5b828204905092915050565b6000613c348261261e565b9150613c3f8361261e565b925082613c4f57613c4e613bc9565b5b828206905092915050565b7f4e487b7100000000000000000000000000000000000000000000000000000000600052603260045260246000fd5b600081519050919050565b600082825260208201905092915050565b6000613cb082613c89565b613cba8185613c94565b9350613cca81856020860161257f565b613cd3816125b2565b840191505092915050565b6000608082019050613cf360008301876126b3565b613d0060208301866126b3565b613d0d6040830185612987565b8181036060830152613d1f8184613ca5565b905095945050505050565b600081519050613d39816124d4565b92915050565b600060208284031215613d5557613d5461249e565b5b6000613d6384828501613d2a565b9150509291505056fea2646970667358221220b2735f396b050c3845ea3251d8adee745c970ca17cc6ccb6b02048ca013c336464736f6c634300080b0033",
  "immutableReferences": {},
  "source": "// SPDX-License-Identifier: MIT\r\npragma solidity ^0.8.0;\r\n\r\nimport \"@openzeppelin/contracts/token/ERC721/ERC721.sol\";\r\nimport \"@openzeppelin/contracts/utils/Counters.sol\";\r\nimport \"@openzeppelin/contracts/access/Ownable.sol\";\r\n\r\ncontract OpenMarket is ERC721, Ownable {\r\n    using Counters for Counters.Counter;\r\n    using Strings for uint256;\r\n\r\n    string private baseURI;\r\n    string private baseExtension = \".json\";\r\n    //   uint256[] tokenid;\r\n    //   uint256[] costOftoken;\r\n    //   mapping(uint256 => uint256) private costOf;\r\n    //   mapping(address => uint256) private etherOf;\r\n\r\n    mapping(uint =>bool ) private _tokenForSale;\r\n    mapping(uint =>uint ) private _tokenPrice;\r\n\r\n    Counters.Counter private _tokenIds;\r\n\r\n    uint[] private totalTokens;\r\n\r\n    constructor(string memory _initBaseURI) ERC721(\"NFT TOKEN\", \"TFN\") {\r\n        setBaseURI(_initBaseURI);\r\n    }\r\n\r\n    function mint() public\r\n    {\r\n        uint256 newItemId = _tokenIds.current();\r\n        totalTokens.push(newItemId);\r\n        _tokenIds.increment();\r\n        _mint(msg.sender, newItemId);\r\n    }\r\n    function mintInBatch(uint256 noOfTokens) public {\r\n        for(uint i=0;i<noOfTokens;i++) {\r\n            uint256 newItemId = _tokenIds.current();\r\n            totalTokens.push(newItemId);\r\n            _tokenIds.increment();\r\n            _mint(msg.sender, newItemId);\r\n        }\r\n    }\r\n    \r\n    function setBaseURI(string memory _newBaseURI) public onlyOwner {\r\n        baseURI = _newBaseURI;\r\n    }\r\n    \r\n    function _baseURI() internal view virtual override returns (string memory) {\r\n        return baseURI;\r\n    }\r\n\r\n    function tokenURI(uint256 tokenId)\r\n        public\r\n        view\r\n        virtual\r\n        override\r\n        returns (string memory)\r\n    {\r\n        require(\r\n            _exists(tokenId),\r\n            \"ERC721Metadata: URI query for nonexistent token\"\r\n        );\r\n\r\n        string memory currentBaseURI = _baseURI();\r\n        return\r\n            bytes(currentBaseURI).length > 0\r\n                ? string(\r\n                    abi.encodePacked(\r\n                        currentBaseURI,\r\n                        tokenId.toString(),\r\n                        baseExtension\r\n                    )\r\n                )\r\n                : \"\";\r\n    }\r\n\r\n    function setTokenForSale(uint tokenId, uint price) public {\r\n        require(ownerOf(tokenId) == _msgSender(),\"Only owner can set a token for sale!\");\r\n        require(_exists(tokenId),\"Token does not exist!\");\r\n        _tokenForSale[tokenId] = true;\r\n        _tokenPrice[tokenId] = price;\r\n    }\r\n\r\n    function changeTokenPrice( uint tokenId,uint price) public {\r\n        require(_tokenForSale[tokenId],\"Token is not for sale, set it sale first!\");\r\n        require(ownerOf(tokenId) == _msgSender(),\"Only owner can set the value!\");\r\n        require(_exists(tokenId),\"Token does not exist!\");\r\n        _tokenPrice[tokenId] = price;\r\n    }\r\n\r\n    function buyNFT(uint tokenId)public {\r\n        require(_tokenForSale[tokenId],\"Token is currently not for sale!\");\r\n        address owner = ownerOf(tokenId);\r\n        require(_msgSender() != address(0),\"Buyer address cannot be zero\");\r\n        require(_msgSender() != owner , \"Cannot buy owned NFT\");\r\n        _transfer(owner,_msgSender(),tokenId);\r\n        _tokenForSale[tokenId] = false;\r\n\r\n        emit Transfer(owner,_msgSender(),tokenId);\r\n    }\r\n\r\n    function removeTokenFromSale(uint tokenId)public{\r\n        require(_tokenForSale[tokenId],\"Token is already set to not for sale\");\r\n        require(ownerOf(tokenId) == _msgSender(),\"Only token owner can set value\");\r\n        require(_exists(tokenId),\"Token does not exist\");\r\n        _tokenForSale[tokenId] = false;\r\n    }\r\n\r\n    function isTokenForSale(uint tokenId)public view returns(bool){\r\n        return _tokenForSale[tokenId];\r\n    }\r\n    function getTokenPrice(uint tokenId)public view returns(uint){\r\n        return _tokenPrice[tokenId];\r\n    }\r\n\r\n    function TransferFrom(address to, uint tokenId) public {\r\n        require(_isApprovedOrOwner(msg.sender, tokenId), \"ERC721: transfer caller is not owner nor approved\");\r\n        require(to != msg.sender , 'Can  not transfer to same address');\r\n        require(to != address(0) , 'Can  not be zero address');\r\n        require(_exists(tokenId),\"No token  exists\");\r\n        _transfer(msg.sender,to,tokenId);\r\n    }\r\n\r\n    function approve(address to , uint256 tokenId) public override {\r\n        require(to != msg.sender , 'Can  not transfer to same address');\r\n        require(to != address(0) , 'Can  not be zero address');\r\n        require(_exists(tokenId),\"No token exist\");\r\n        _approve(to , tokenId);\r\n    }\r\n\r\n    function checkApproval(address spender, uint256 tokenId) public view returns(bool) {\r\n        return _isApprovedOrOwner(spender,tokenId);\r\n    }\r\n  \r\n\r\n    //  function _transferFrom(address from, address to , uint256 tokenid) public payable {\r\n    //     require(etherOf[to] >= costOf[tokenid], 'Low ether in buyers account');\r\n    //     transferFrom(from,to,tokenid);\r\n    //     etherOf[to]-=costOf[tokenid];\r\n    //     etherOf[from]+=costOf[tokenid];\r\n    // }\r\n\r\n}\r\n    // uint256 private tokenCounter;\r\n    // constructor() ERC721(\"Kryptonion\", \"KN\"){\r\n    //     tokenCounter = 0;\r\n    // }\r\n\r\n    // function mint() public {\r\n    //     uint256 newNFTTokenId = tokenCounter;\r\n    //     _mint(msg.sender, newNFTTokenId);\r\n    //     tokenCounter+=1;\r\n    // }\r\n// }",
  "sourcePath": "C:\\Users\\Jay\\Desktop\\NFT-MARKETPLACE\\src\\contracts\\OpenMarket.sol",
  "compiler": {
    "name": "solc",
    "version": "0.8.11+commit.d7f03943.Emscripten.clang"
  },
  "schemaVersion": "3.4.3",
  "updatedAt": "2021-12-26T14:48:34.686Z",
  "networkType": "ethereum",
  "devdoc": {
    "kind": "dev",
    "methods": {
      "approve(address,uint256)": {
        "details": "See {IERC721-approve}."
      },
      "balanceOf(address)": {
        "details": "See {IERC721-balanceOf}."
      },
      "getApproved(uint256)": {
        "details": "See {IERC721-getApproved}."
      },
      "isApprovedForAll(address,address)": {
        "details": "See {IERC721-isApprovedForAll}."
      },
      "name()": {
        "details": "See {IERC721Metadata-name}."
      },
      "owner()": {
        "details": "Returns the address of the current owner."
      },
      "ownerOf(uint256)": {
        "details": "See {IERC721-ownerOf}."
      },
      "renounceOwnership()": {
        "details": "Leaves the contract without owner. It will not be possible to call `onlyOwner` functions anymore. Can only be called by the current owner. NOTE: Renouncing ownership will leave the contract without an owner, thereby removing any functionality that is only available to the owner."
      },
      "safeTransferFrom(address,address,uint256)": {
        "details": "See {IERC721-safeTransferFrom}."
      },
      "safeTransferFrom(address,address,uint256,bytes)": {
        "details": "See {IERC721-safeTransferFrom}."
      },
      "setApprovalForAll(address,bool)": {
        "details": "See {IERC721-setApprovalForAll}."
      },
      "supportsInterface(bytes4)": {
        "details": "See {IERC165-supportsInterface}."
      },
      "symbol()": {
        "details": "See {IERC721Metadata-symbol}."
      },
      "tokenURI(uint256)": {
        "details": "See {IERC721Metadata-tokenURI}."
      },
      "transferFrom(address,address,uint256)": {
        "details": "See {IERC721-transferFrom}."
      },
      "transferOwnership(address)": {
        "details": "Transfers ownership of the contract to a new account (`newOwner`). Can only be called by the current owner."
      }
    },
    "version": 1
  },
  "userdoc": {
    "kind": "user",
    "methods": {},
    "version": 1
  }
}