{
  "contractName": "OpenMarket",
  "abi": [
    {
      "inputs": [
        {
          "internalType": "string",
          "name": "_initBaseURI",
          "type": "string"
        }
      ],
      "stateMutability": "nonpayable",
      "type": "constructor"
    },
    {
      "anonymous": false,
      "inputs": [
        {
          "indexed": true,
          "internalType": "address",
          "name": "owner",
          "type": "address"
        },
        {
          "indexed": true,
          "internalType": "address",
          "name": "approved",
          "type": "address"
        },
        {
          "indexed": true,
          "internalType": "uint256",
          "name": "tokenId",
          "type": "uint256"
        }
      ],
      "name": "Approval",
      "type": "event"
    },
    {
      "anonymous": false,
      "inputs": [
        {
          "indexed": true,
          "internalType": "address",
          "name": "owner",
          "type": "address"
        },
        {
          "indexed": true,
          "internalType": "address",
          "name": "operator",
          "type": "address"
        },
        {
          "indexed": false,
          "internalType": "bool",
          "name": "approved",
          "type": "bool"
        }
      ],
      "name": "ApprovalForAll",
      "type": "event"
    },
    {
      "anonymous": false,
      "inputs": [
        {
          "indexed": true,
          "internalType": "address",
          "name": "previousOwner",
          "type": "address"
        },
        {
          "indexed": true,
          "internalType": "address",
          "name": "newOwner",
          "type": "address"
        }
      ],
      "name": "OwnershipTransferred",
      "type": "event"
    },
    {
      "anonymous": false,
      "inputs": [
        {
          "indexed": true,
          "internalType": "address",
          "name": "from",
          "type": "address"
        },
        {
          "indexed": true,
          "internalType": "address",
          "name": "to",
          "type": "address"
        },
        {
          "indexed": true,
          "internalType": "uint256",
          "name": "tokenId",
          "type": "uint256"
        }
      ],
      "name": "Transfer",
      "type": "event"
    },
    {
      "inputs": [
        {
          "internalType": "address",
          "name": "owner",
          "type": "address"
        }
      ],
      "name": "balanceOf",
      "outputs": [
        {
          "internalType": "uint256",
          "name": "",
          "type": "uint256"
        }
      ],
      "stateMutability": "view",
      "type": "function",
      "constant": true
    },
    {
      "inputs": [
        {
          "internalType": "uint256",
          "name": "",
          "type": "uint256"
        }
      ],
      "name": "colors",
      "outputs": [
        {
          "internalType": "string",
          "name": "",
          "type": "string"
        }
      ],
      "stateMutability": "view",
      "type": "function",
      "constant": true
    },
    {
      "inputs": [
        {
          "internalType": "uint256",
          "name": "tokenId",
          "type": "uint256"
        }
      ],
      "name": "getApproved",
      "outputs": [
        {
          "internalType": "address",
          "name": "",
          "type": "address"
        }
      ],
      "stateMutability": "view",
      "type": "function",
      "constant": true
    },
    {
      "inputs": [
        {
          "internalType": "address",
          "name": "owner",
          "type": "address"
        },
        {
          "internalType": "address",
          "name": "operator",
          "type": "address"
        }
      ],
      "name": "isApprovedForAll",
      "outputs": [
        {
          "internalType": "bool",
          "name": "",
          "type": "bool"
        }
      ],
      "stateMutability": "view",
      "type": "function",
      "constant": true
    },
    {
      "inputs": [],
      "name": "name",
      "outputs": [
        {
          "internalType": "string",
          "name": "",
          "type": "string"
        }
      ],
      "stateMutability": "view",
      "type": "function",
      "constant": true
    },
    {
      "inputs": [],
      "name": "owner",
      "outputs": [
        {
          "internalType": "address",
          "name": "",
          "type": "address"
        }
      ],
      "stateMutability": "view",
      "type": "function",
      "constant": true
    },
    {
      "inputs": [
        {
          "internalType": "uint256",
          "name": "tokenId",
          "type": "uint256"
        }
      ],
      "name": "ownerOf",
      "outputs": [
        {
          "internalType": "address",
          "name": "",
          "type": "address"
        }
      ],
      "stateMutability": "view",
      "type": "function",
      "constant": true
    },
    {
      "inputs": [],
      "name": "renounceOwnership",
      "outputs": [],
      "stateMutability": "nonpayable",
      "type": "function"
    },
    {
      "inputs": [
        {
          "internalType": "address",
          "name": "from",
          "type": "address"
        },
        {
          "internalType": "address",
          "name": "to",
          "type": "address"
        },
        {
          "internalType": "uint256",
          "name": "tokenId",
          "type": "uint256"
        }
      ],
      "name": "safeTransferFrom",
      "outputs": [],
      "stateMutability": "nonpayable",
      "type": "function"
    },
    {
      "inputs": [
        {
          "internalType": "address",
          "name": "from",
          "type": "address"
        },
        {
          "internalType": "address",
          "name": "to",
          "type": "address"
        },
        {
          "internalType": "uint256",
          "name": "tokenId",
          "type": "uint256"
        },
        {
          "internalType": "bytes",
          "name": "_data",
          "type": "bytes"
        }
      ],
      "name": "safeTransferFrom",
      "outputs": [],
      "stateMutability": "nonpayable",
      "type": "function"
    },
    {
      "inputs": [
        {
          "internalType": "address",
          "name": "operator",
          "type": "address"
        },
        {
          "internalType": "bool",
          "name": "approved",
          "type": "bool"
        }
      ],
      "name": "setApprovalForAll",
      "outputs": [],
      "stateMutability": "nonpayable",
      "type": "function"
    },
    {
      "inputs": [
        {
          "internalType": "bytes4",
          "name": "interfaceId",
          "type": "bytes4"
        }
      ],
      "name": "supportsInterface",
      "outputs": [
        {
          "internalType": "bool",
          "name": "",
          "type": "bool"
        }
      ],
      "stateMutability": "view",
      "type": "function",
      "constant": true
    },
    {
      "inputs": [],
      "name": "symbol",
      "outputs": [
        {
          "internalType": "string",
          "name": "",
          "type": "string"
        }
      ],
      "stateMutability": "view",
      "type": "function",
      "constant": true
    },
    {
      "inputs": [
        {
          "internalType": "address",
          "name": "from",
          "type": "address"
        },
        {
          "internalType": "address",
          "name": "to",
          "type": "address"
        },
        {
          "internalType": "uint256",
          "name": "tokenId",
          "type": "uint256"
        }
      ],
      "name": "transferFrom",
      "outputs": [],
      "stateMutability": "nonpayable",
      "type": "function"
    },
    {
      "inputs": [
        {
          "internalType": "address",
          "name": "newOwner",
          "type": "address"
        }
      ],
      "name": "transferOwnership",
      "outputs": [],
      "stateMutability": "nonpayable",
      "type": "function"
    },
    {
      "inputs": [],
      "name": "mint",
      "outputs": [
        {
          "internalType": "uint256",
          "name": "",
          "type": "uint256"
        }
      ],
      "stateMutability": "nonpayable",
      "type": "function"
    },
    {
      "inputs": [],
      "name": "totalSupply",
      "outputs": [
        {
          "internalType": "uint256",
          "name": "",
          "type": "uint256"
        }
      ],
      "stateMutability": "view",
      "type": "function",
      "constant": true
    },
    {
      "inputs": [
        {
          "internalType": "uint256",
          "name": "noOfTokens",
          "type": "uint256"
        }
      ],
      "name": "mintInBatch",
      "outputs": [],
      "stateMutability": "nonpayable",
      "type": "function"
    },
    {
      "inputs": [
        {
          "internalType": "string",
          "name": "_newBaseURI",
          "type": "string"
        }
      ],
      "name": "setBaseURI",
      "outputs": [],
      "stateMutability": "nonpayable",
      "type": "function"
    },
    {
      "inputs": [
        {
          "internalType": "uint256",
          "name": "tokenId",
          "type": "uint256"
        }
      ],
      "name": "tokenURI",
      "outputs": [
        {
          "internalType": "string",
          "name": "",
          "type": "string"
        }
      ],
      "stateMutability": "view",
      "type": "function",
      "constant": true
    },
    {
      "inputs": [
        {
          "internalType": "uint256",
          "name": "tokenId",
          "type": "uint256"
        },
        {
          "internalType": "uint256",
          "name": "price",
          "type": "uint256"
        }
      ],
      "name": "setTokenForSale",
      "outputs": [],
      "stateMutability": "nonpayable",
      "type": "function"
    },
    {
      "inputs": [
        {
          "internalType": "uint256",
          "name": "tokenId",
          "type": "uint256"
        },
        {
          "internalType": "uint256",
          "name": "price",
          "type": "uint256"
        }
      ],
      "name": "changeTokenPrice",
      "outputs": [],
      "stateMutability": "nonpayable",
      "type": "function"
    },
    {
      "inputs": [
        {
          "internalType": "uint256",
          "name": "tokenId",
          "type": "uint256"
        }
      ],
      "name": "buyNFT",
      "outputs": [],
      "stateMutability": "nonpayable",
      "type": "function"
    },
    {
      "inputs": [
        {
          "internalType": "uint256",
          "name": "tokenId",
          "type": "uint256"
        }
      ],
      "name": "removeTokenFromSale",
      "outputs": [],
      "stateMutability": "nonpayable",
      "type": "function"
    },
    {
      "inputs": [
        {
          "internalType": "uint256",
          "name": "tokenId",
          "type": "uint256"
        }
      ],
      "name": "isTokenForSale",
      "outputs": [
        {
          "internalType": "bool",
          "name": "",
          "type": "bool"
        }
      ],
      "stateMutability": "view",
      "type": "function",
      "constant": true
    },
    {
      "inputs": [
        {
          "internalType": "uint256",
          "name": "tokenId",
          "type": "uint256"
        }
      ],
      "name": "getTokenPrice",
      "outputs": [
        {
          "internalType": "uint256",
          "name": "",
          "type": "uint256"
        }
      ],
      "stateMutability": "view",
      "type": "function",
      "constant": true
    },
    {
      "inputs": [
        {
          "internalType": "address",
          "name": "to",
          "type": "address"
        },
        {
          "internalType": "uint256",
          "name": "tokenId",
          "type": "uint256"
        }
      ],
      "name": "TransferFrom",
      "outputs": [],
      "stateMutability": "nonpayable",
      "type": "function"
    },
    {
      "inputs": [
        {
          "internalType": "address",
          "name": "to",
          "type": "address"
        },
        {
          "internalType": "uint256",
          "name": "tokenId",
          "type": "uint256"
        }
      ],
      "name": "approve",
      "outputs": [],
      "stateMutability": "nonpayable",
      "type": "function"
    }
  ],
  "bytecode": "0x60806040526040518060400160405280600581526020017f2e6a736f6e000000000000000000000000000000000000000000000000000000815250600890805190602001906200005192919062000300565b503480156200005f57600080fd5b506040516200456b3803806200456b83398181016040528101906200008591906200054d565b6040518060400160405280600981526020017f4e465420544f4b454e00000000000000000000000000000000000000000000008152506040518060400160405280600381526020017f54464e000000000000000000000000000000000000000000000000000000000081525081600090805190602001906200010992919062000300565b5080600190805190602001906200012292919062000300565b50505062000145620001396200015d60201b60201c565b6200016560201b60201c565b62000156816200022b60201b60201c565b5062000686565b600033905090565b6000600660009054906101000a900473ffffffffffffffffffffffffffffffffffffffff16905081600660006101000a81548173ffffffffffffffffffffffffffffffffffffffff021916908373ffffffffffffffffffffffffffffffffffffffff1602179055508173ffffffffffffffffffffffffffffffffffffffff168173ffffffffffffffffffffffffffffffffffffffff167f8be0079c531659141344cd1fd0a4f28419497f9722a3daafe3b4186f6b6457e060405160405180910390a35050565b6200023b6200015d60201b60201c565b73ffffffffffffffffffffffffffffffffffffffff1662000261620002d660201b60201c565b73ffffffffffffffffffffffffffffffffffffffff1614620002ba576040517f08c379a0000000000000000000000000000000000000000000000000000000008152600401620002b190620005ff565b60405180910390fd5b8060079080519060200190620002d292919062000300565b5050565b6000600660009054906101000a900473ffffffffffffffffffffffffffffffffffffffff16905090565b8280546200030e9062000650565b90600052602060002090601f0160209004810192826200033257600085556200037e565b82601f106200034d57805160ff19168380011785556200037e565b828001600101855582156200037e579182015b828111156200037d57825182559160200191906001019062000360565b5b5090506200038d919062000391565b5090565b5b80821115620003ac57600081600090555060010162000392565b5090565b6000604051905090565b600080fd5b600080fd5b600080fd5b600080fd5b6000601f19601f8301169050919050565b7f4e487b7100000000000000000000000000000000000000000000000000000000600052604160045260246000fd5b6200041982620003ce565b810181811067ffffffffffffffff821117156200043b576200043a620003df565b5b80604052505050565b600062000450620003b0565b90506200045e82826200040e565b919050565b600067ffffffffffffffff821115620004815762000480620003df565b5b6200048c82620003ce565b9050602081019050919050565b60005b83811015620004b95780820151818401526020810190506200049c565b83811115620004c9576000848401525b50505050565b6000620004e6620004e08462000463565b62000444565b905082815260208101848484011115620005055762000504620003c9565b5b6200051284828562000499565b509392505050565b600082601f830112620005325762000531620003c4565b5b815162000544848260208601620004cf565b91505092915050565b600060208284031215620005665762000565620003ba565b5b600082015167ffffffffffffffff811115620005875762000586620003bf565b5b62000595848285016200051a565b91505092915050565b600082825260208201905092915050565b7f4f776e61626c653a2063616c6c6572206973206e6f7420746865206f776e6572600082015250565b6000620005e76020836200059e565b9150620005f482620005af565b602082019050919050565b600060208201905081810360008301526200061a81620005d8565b9050919050565b7f4e487b7100000000000000000000000000000000000000000000000000000000600052602260045260246000fd5b600060028204905060018216806200066957607f821691505b6020821081141562000680576200067f62000621565b5b50919050565b613ed580620006966000396000f3fe608060405234801561001057600080fd5b50600436106101c45760003560e01c80636352211e116100f9578063bd11f69d11610097578063cb233ce211610071578063cb233ce214610501578063e8cdea111461051d578063e985e9c514610539578063f2fde38b14610569576101c4565b8063bd11f69d14610471578063c457fb37146104a1578063c87b56dd146104d1576101c4565b80638da5cb5b116100d35780638da5cb5b146103fd57806395d89b411461041b578063a22cb46514610439578063b88d4fde14610455576101c4565b80636352211e1461039357806370a08231146103c3578063715018a6146103f3576101c4565b806323b872dd1161016657806351ed82881161014057806351ed82881461032357806355f804b31461033f57806358becdf91461035b57806362e8e8ac14610377576101c4565b806323b872dd146102bb57806342842e0e146102d75780634fed1c94146102f3576101c4565b8063095ea7b3116101a2578063095ea7b3146102475780631249c58b1461026357806318160ddd1461028157806320477b8c1461029f576101c4565b806301ffc9a7146101c957806306fdde03146101f9578063081812fc14610217575b600080fd5b6101e360048036038101906101de9190612633565b610585565b6040516101f0919061267b565b60405180910390f35b610201610667565b60405161020e919061272f565b60405180910390f35b610231600480360381019061022c9190612787565b6106f9565b60405161023e91906127f5565b60405180910390f35b610261600480360381019061025c919061283c565b61077e565b005b61026b6108b3565b604051610278919061288b565b60405180910390f35b610289610932565b604051610296919061288b565b60405180910390f35b6102b960048036038101906102b49190612787565b61093f565b005b6102d560048036038101906102d091906128a6565b6109ad565b005b6102f160048036038101906102ec91906128a6565b610a0d565b005b61030d60048036038101906103089190612787565b610a2d565b60405161031a919061267b565b60405180910390f35b61033d60048036038101906103389190612787565b610a57565b005b61035960048036038101906103549190612a2e565b610c55565b005b6103756004803603810190610370919061283c565b610ceb565b005b610391600480360381019061038c9190612a77565b610e78565b005b6103ad60048036038101906103a89190612787565b610fb9565b6040516103ba91906127f5565b60405180910390f35b6103dd60048036038101906103d89190612ab7565b61106b565b6040516103ea919061288b565b60405180910390f35b6103fb611123565b005b6104056111ab565b60405161041291906127f5565b60405180910390f35b6104236111d5565b604051610430919061272f565b60405180910390f35b610453600480360381019061044e9190612b10565b611267565b005b61046f600480360381019061046a9190612bf1565b61127d565b005b61048b60048036038101906104869190612787565b6112df565b604051610498919061272f565b60405180910390f35b6104bb60048036038101906104b69190612787565b61138b565b6040516104c8919061288b565b60405180910390f35b6104eb60048036038101906104e69190612787565b6113a8565b6040516104f8919061272f565b60405180910390f35b61051b60048036038101906105169190612a77565b611452565b005b61053760048036038101906105329190612787565b61155f565b005b610553600480360381019061054e9190612c74565b6116b3565b604051610560919061267b565b60405180910390f35b610583600480360381019061057e9190612ab7565b611747565b005b60007f80ac58cd000000000000000000000000000000000000000000000000000000007bffffffffffffffffffffffffffffffffffffffffffffffffffffffff1916827bffffffffffffffffffffffffffffffffffffffffffffffffffffffff1916148061065057507f5b5e139f000000000000000000000000000000000000000000000000000000007bffffffffffffffffffffffffffffffffffffffffffffffffffffffff1916827bffffffffffffffffffffffffffffffffffffffffffffffffffffffff1916145b80610660575061065f8261183f565b5b9050919050565b60606000805461067690612ce3565b80601f01602080910402602001604051908101604052809291908181526020018280546106a290612ce3565b80156106ef5780601f106106c4576101008083540402835291602001916106ef565b820191906000526020600020905b8154815290600101906020018083116106d257829003601f168201915b5050505050905090565b6000610704826118a9565b610743576040517f08c379a000000000000000000000000000000000000000000000000000000000815260040161073a90612d87565b60405180910390fd5b6004600083815260200190815260200160002060009054906101000a900473ffffffffffffffffffffffffffffffffffffffff169050919050565b3373ffffffffffffffffffffffffffffffffffffffff168273ffffffffffffffffffffffffffffffffffffffff1614156107ed576040517f08c379a00000000000000000000000000000000000000000000000000000000081526004016107e490612e19565b60405180910390fd5b600073ffffffffffffffffffffffffffffffffffffffff168273ffffffffffffffffffffffffffffffffffffffff16141561085d576040517f08c379a000000000000000000000000000000000000000000000000000000000815260040161085490612e85565b60405180910390fd5b610866816118a9565b6108a5576040517f08c379a000000000000000000000000000000000000000000000000000000000815260040161089c90612ef1565b60405180910390fd5b6108af8282611915565b5050565b6000806108c0600b6119ce565b9050600e8190806001815401808255809150506001900390600052602060002001600090919091909150556108f5600b6119dc565b6108ff33826119f2565b60006009600083815260200190815260200160002060006101000a81548160ff0219169083151502179055508091505090565b6000600e80549050905090565b60005b818110156109a9576000610956600b6119ce565b9050600e81908060018154018082558091505060019003906000526020600020016000909190919091505561098b600b6119dc565b61099533826119f2565b5080806109a190612f40565b915050610942565b5050565b6109be6109b8611bc0565b82611bc8565b6109fd576040517f08c379a00000000000000000000000000000000000000000000000000000000081526004016109f490612ffb565b60405180910390fd5b610a08838383611ca6565b505050565b610a288383836040518060200160405280600081525061127d565b505050565b60006009600083815260200190815260200160002060009054906101000a900460ff169050919050565b6009600082815260200190815260200160002060009054906101000a900460ff16610ab7576040517f08c379a0000000000000000000000000000000000000000000000000000000008152600401610aae90613067565b60405180910390fd5b6000610ac282610fb9565b9050600073ffffffffffffffffffffffffffffffffffffffff16610ae4611bc0565b73ffffffffffffffffffffffffffffffffffffffff161415610b3b576040517f08c379a0000000000000000000000000000000000000000000000000000000008152600401610b32906130d3565b60405180910390fd5b8073ffffffffffffffffffffffffffffffffffffffff16610b5a611bc0565b73ffffffffffffffffffffffffffffffffffffffff161415610bb1576040517f08c379a0000000000000000000000000000000000000000000000000000000008152600401610ba89061313f565b60405180910390fd5b610bc381610bbd611bc0565b84611ca6565b60006009600084815260200190815260200160002060006101000a81548160ff02191690831515021790555081610bf8611bc0565b73ffffffffffffffffffffffffffffffffffffffff168273ffffffffffffffffffffffffffffffffffffffff167fddf252ad1be2c89b69c2b068fc378daa952ba7f163c4a11628f55a4df523b3ef60405160405180910390a45050565b610c5d611bc0565b73ffffffffffffffffffffffffffffffffffffffff16610c7b6111ab565b73ffffffffffffffffffffffffffffffffffffffff1614610cd1576040517f08c379a0000000000000000000000000000000000000000000000000000000008152600401610cc8906131ab565b60405180910390fd5b8060079080519060200190610ce7929190612524565b5050565b6000610cf682610fb9565b9050610d023383611bc8565b610d41576040517f08c379a0000000000000000000000000000000000000000000000000000000008152600401610d3890612ffb565b60405180910390fd5b3373ffffffffffffffffffffffffffffffffffffffff168373ffffffffffffffffffffffffffffffffffffffff161415610db0576040517f08c379a0000000000000000000000000000000000000000000000000000000008152600401610da790612e19565b60405180910390fd5b600073ffffffffffffffffffffffffffffffffffffffff168373ffffffffffffffffffffffffffffffffffffffff161415610e20576040517f08c379a0000000000000000000000000000000000000000000000000000000008152600401610e1790612e85565b60405180910390fd5b610e29826118a9565b610e68576040517f08c379a0000000000000000000000000000000000000000000000000000000008152600401610e5f90613217565b60405180910390fd5b610e73818484611ca6565b505050565b6009600083815260200190815260200160002060009054906101000a900460ff16610ed8576040517f08c379a0000000000000000000000000000000000000000000000000000000008152600401610ecf906132a9565b60405180910390fd5b610ee0611bc0565b73ffffffffffffffffffffffffffffffffffffffff16610eff83610fb9565b73ffffffffffffffffffffffffffffffffffffffff1614610f55576040517f08c379a0000000000000000000000000000000000000000000000000000000008152600401610f4c90613315565b60405180910390fd5b610f5e826118a9565b610f9d576040517f08c379a0000000000000000000000000000000000000000000000000000000008152600401610f9490613381565b60405180910390fd5b80600a6000848152602001908152602001600020819055505050565b6000806002600084815260200190815260200160002060009054906101000a900473ffffffffffffffffffffffffffffffffffffffff169050600073ffffffffffffffffffffffffffffffffffffffff168173ffffffffffffffffffffffffffffffffffffffff161415611062576040517f08c379a000000000000000000000000000000000000000000000000000000000815260040161105990613413565b60405180910390fd5b80915050919050565b60008073ffffffffffffffffffffffffffffffffffffffff168273ffffffffffffffffffffffffffffffffffffffff1614156110dc576040517f08c379a00000000000000000000000000000000000000000000000000000000081526004016110d3906134a5565b60405180910390fd5b600360008373ffffffffffffffffffffffffffffffffffffffff1673ffffffffffffffffffffffffffffffffffffffff168152602001908152602001600020549050919050565b61112b611bc0565b73ffffffffffffffffffffffffffffffffffffffff166111496111ab565b73ffffffffffffffffffffffffffffffffffffffff161461119f576040517f08c379a0000000000000000000000000000000000000000000000000000000008152600401611196906131ab565b60405180910390fd5b6111a96000611f02565b565b6000600660009054906101000a900473ffffffffffffffffffffffffffffffffffffffff16905090565b6060600180546111e490612ce3565b80601f016020809104026020016040519081016040528092919081815260200182805461121090612ce3565b801561125d5780601f106112325761010080835404028352916020019161125d565b820191906000526020600020905b81548152906001019060200180831161124057829003601f168201915b5050505050905090565b611279611272611bc0565b8383611fc8565b5050565b61128e611288611bc0565b83611bc8565b6112cd576040517f08c379a00000000000000000000000000000000000000000000000000000000081526004016112c490612ffb565b60405180910390fd5b6112d984848484612135565b50505050565b600c81815481106112ef57600080fd5b90600052602060002001600091509050805461130a90612ce3565b80601f016020809104026020016040519081016040528092919081815260200182805461133690612ce3565b80156113835780601f1061135857610100808354040283529160200191611383565b820191906000526020600020905b81548152906001019060200180831161136657829003601f168201915b505050505081565b6000600a6000838152602001908152602001600020549050919050565b60606113b3826118a9565b6113f2576040517f08c379a00000000000000000000000000000000000000000000000000000000081526004016113e990613537565b60405180910390fd5b60006113fc612191565b9050600081511161141c576040518060200160405280600081525061144a565b8061142684612223565b600860405160200161143a93929190613627565b6040516020818303038152906040525b915050919050565b61145a611bc0565b73ffffffffffffffffffffffffffffffffffffffff1661147983610fb9565b73ffffffffffffffffffffffffffffffffffffffff16146114cf576040517f08c379a00000000000000000000000000000000000000000000000000000000081526004016114c6906136ca565b60405180910390fd5b6114d8826118a9565b611517576040517f08c379a000000000000000000000000000000000000000000000000000000000815260040161150e90613381565b60405180910390fd5b60016009600084815260200190815260200160002060006101000a81548160ff02191690831515021790555080600a6000848152602001908152602001600020819055505050565b6009600082815260200190815260200160002060009054906101000a900460ff166115bf576040517f08c379a00000000000000000000000000000000000000000000000000000000081526004016115b69061375c565b60405180910390fd5b6115c7611bc0565b73ffffffffffffffffffffffffffffffffffffffff166115e682610fb9565b73ffffffffffffffffffffffffffffffffffffffff161461163c576040517f08c379a0000000000000000000000000000000000000000000000000000000008152600401611633906137c8565b60405180910390fd5b611645816118a9565b611684576040517f08c379a000000000000000000000000000000000000000000000000000000000815260040161167b90613834565b60405180910390fd5b60006009600083815260200190815260200160002060006101000a81548160ff02191690831515021790555050565b6000600560008473ffffffffffffffffffffffffffffffffffffffff1673ffffffffffffffffffffffffffffffffffffffff16815260200190815260200160002060008373ffffffffffffffffffffffffffffffffffffffff1673ffffffffffffffffffffffffffffffffffffffff16815260200190815260200160002060009054906101000a900460ff16905092915050565b61174f611bc0565b73ffffffffffffffffffffffffffffffffffffffff1661176d6111ab565b73ffffffffffffffffffffffffffffffffffffffff16146117c3576040517f08c379a00000000000000000000000000000000000000000000000000000000081526004016117ba906131ab565b60405180910390fd5b600073ffffffffffffffffffffffffffffffffffffffff168173ffffffffffffffffffffffffffffffffffffffff161415611833576040517f08c379a000000000000000000000000000000000000000000000000000000000815260040161182a906138c6565b60405180910390fd5b61183c81611f02565b50565b60007f01ffc9a7000000000000000000000000000000000000000000000000000000007bffffffffffffffffffffffffffffffffffffffffffffffffffffffff1916827bffffffffffffffffffffffffffffffffffffffffffffffffffffffff1916149050919050565b60008073ffffffffffffffffffffffffffffffffffffffff166002600084815260200190815260200160002060009054906101000a900473ffffffffffffffffffffffffffffffffffffffff1673ffffffffffffffffffffffffffffffffffffffff1614159050919050565b816004600083815260200190815260200160002060006101000a81548173ffffffffffffffffffffffffffffffffffffffff021916908373ffffffffffffffffffffffffffffffffffffffff160217905550808273ffffffffffffffffffffffffffffffffffffffff1661198883610fb9565b73ffffffffffffffffffffffffffffffffffffffff167f8c5be1e5ebec7d5bd14f71427d1e84f3dd0314c0f7b2291e5b200ac8c7c3b92560405160405180910390a45050565b600081600001549050919050565b6001816000016000828254019250508190555050565b600073ffffffffffffffffffffffffffffffffffffffff168273ffffffffffffffffffffffffffffffffffffffff161415611a62576040517f08c379a0000000000000000000000000000000000000000000000000000000008152600401611a5990613932565b60405180910390fd5b611a6b816118a9565b15611aab576040517f08c379a0000000000000000000000000000000000000000000000000000000008152600401611aa29061399e565b60405180910390fd5b611ab760008383612384565b6001600360008473ffffffffffffffffffffffffffffffffffffffff1673ffffffffffffffffffffffffffffffffffffffff1681526020019081526020016000206000828254611b0791906139be565b92505081905550816002600083815260200190815260200160002060006101000a81548173ffffffffffffffffffffffffffffffffffffffff021916908373ffffffffffffffffffffffffffffffffffffffff160217905550808273ffffffffffffffffffffffffffffffffffffffff16600073ffffffffffffffffffffffffffffffffffffffff167fddf252ad1be2c89b69c2b068fc378daa952ba7f163c4a11628f55a4df523b3ef60405160405180910390a45050565b600033905090565b6000611bd3826118a9565b611c12576040517f08c379a0000000000000000000000000000000000000000000000000000000008152600401611c0990613a86565b60405180910390fd5b6000611c1d83610fb9565b90508073ffffffffffffffffffffffffffffffffffffffff168473ffffffffffffffffffffffffffffffffffffffff161480611c8c57508373ffffffffffffffffffffffffffffffffffffffff16611c74846106f9565b73ffffffffffffffffffffffffffffffffffffffff16145b80611c9d5750611c9c81856116b3565b5b91505092915050565b8273ffffffffffffffffffffffffffffffffffffffff16611cc682610fb9565b73ffffffffffffffffffffffffffffffffffffffff1614611d1c576040517f08c379a0000000000000000000000000000000000000000000000000000000008152600401611d1390613b18565b60405180910390fd5b600073ffffffffffffffffffffffffffffffffffffffff168273ffffffffffffffffffffffffffffffffffffffff161415611d8c576040517f08c379a0000000000000000000000000000000000000000000000000000000008152600401611d8390613baa565b60405180910390fd5b611d97838383612384565b611da2600082611915565b6001600360008573ffffffffffffffffffffffffffffffffffffffff1673ffffffffffffffffffffffffffffffffffffffff1681526020019081526020016000206000828254611df29190613bca565b925050819055506001600360008473ffffffffffffffffffffffffffffffffffffffff1673ffffffffffffffffffffffffffffffffffffffff1681526020019081526020016000206000828254611e4991906139be565b92505081905550816002600083815260200190815260200160002060006101000a81548173ffffffffffffffffffffffffffffffffffffffff021916908373ffffffffffffffffffffffffffffffffffffffff160217905550808273ffffffffffffffffffffffffffffffffffffffff168473ffffffffffffffffffffffffffffffffffffffff167fddf252ad1be2c89b69c2b068fc378daa952ba7f163c4a11628f55a4df523b3ef60405160405180910390a4505050565b6000600660009054906101000a900473ffffffffffffffffffffffffffffffffffffffff16905081600660006101000a81548173ffffffffffffffffffffffffffffffffffffffff021916908373ffffffffffffffffffffffffffffffffffffffff1602179055508173ffffffffffffffffffffffffffffffffffffffff168173ffffffffffffffffffffffffffffffffffffffff167f8be0079c531659141344cd1fd0a4f28419497f9722a3daafe3b4186f6b6457e060405160405180910390a35050565b8173ffffffffffffffffffffffffffffffffffffffff168373ffffffffffffffffffffffffffffffffffffffff161415612037576040517f08c379a000000000000000000000000000000000000000000000000000000000815260040161202e90613c4a565b60405180910390fd5b80600560008573ffffffffffffffffffffffffffffffffffffffff1673ffffffffffffffffffffffffffffffffffffffff16815260200190815260200160002060008473ffffffffffffffffffffffffffffffffffffffff1673ffffffffffffffffffffffffffffffffffffffff16815260200190815260200160002060006101000a81548160ff0219169083151502179055508173ffffffffffffffffffffffffffffffffffffffff168373ffffffffffffffffffffffffffffffffffffffff167f17307eab39ab6107e8899845ad3d59bd9653f200f220920489ca2b5937696c3183604051612128919061267b565b60405180910390a3505050565b612140848484611ca6565b61214c84848484612389565b61218b576040517f08c379a000000000000000000000000000000000000000000000000000000000815260040161218290613cdc565b60405180910390fd5b50505050565b6060600780546121a090612ce3565b80601f01602080910402602001604051908101604052809291908181526020018280546121cc90612ce3565b80156122195780601f106121ee57610100808354040283529160200191612219565b820191906000526020600020905b8154815290600101906020018083116121fc57829003601f168201915b5050505050905090565b6060600082141561226b576040518060400160405280600181526020017f3000000000000000000000000000000000000000000000000000000000000000815250905061237f565b600082905060005b6000821461229d57808061228690612f40565b915050600a826122969190613d2b565b9150612273565b60008167ffffffffffffffff8111156122b9576122b8612903565b5b6040519080825280601f01601f1916602001820160405280156122eb5781602001600182028036833780820191505090505b5090505b60008514612378576001826123049190613bca565b9150600a856123139190613d5c565b603061231f91906139be565b60f81b81838151811061233557612334613d8d565b5b60200101907effffffffffffffffffffffffffffffffffffffffffffffffffffffffffffff1916908160001a905350600a856123719190613d2b565b94506122ef565b8093505050505b919050565b505050565b60006123aa8473ffffffffffffffffffffffffffffffffffffffff16612511565b15612504578373ffffffffffffffffffffffffffffffffffffffff1663150b7a026123d3611bc0565b8786866040518563ffffffff1660e01b81526004016123f59493929190613e11565b6020604051808303816000875af192505050801561243157506040513d601f19601f8201168201806040525081019061242e9190613e72565b60015b6124b4573d8060008114612461576040519150601f19603f3d011682016040523d82523d6000602084013e612466565b606091505b506000815114156124ac576040517f08c379a00000000000000000000000000000000000000000000000000000000081526004016124a390613cdc565b60405180910390fd5b805181602001fd5b63150b7a0260e01b7bffffffffffffffffffffffffffffffffffffffffffffffffffffffff1916817bffffffffffffffffffffffffffffffffffffffffffffffffffffffff191614915050612509565b600190505b949350505050565b600080823b905060008111915050919050565b82805461253090612ce3565b90600052602060002090601f0160209004810192826125525760008555612599565b82601f1061256b57805160ff1916838001178555612599565b82800160010185558215612599579182015b8281111561259857825182559160200191906001019061257d565b5b5090506125a691906125aa565b5090565b5b808211156125c35760008160009055506001016125ab565b5090565b6000604051905090565b600080fd5b600080fd5b60007fffffffff0000000000000000000000000000000000000000000000000000000082169050919050565b612610816125db565b811461261b57600080fd5b50565b60008135905061262d81612607565b92915050565b600060208284031215612649576126486125d1565b5b60006126578482850161261e565b91505092915050565b60008115159050919050565b61267581612660565b82525050565b6000602082019050612690600083018461266c565b92915050565b600081519050919050565b600082825260208201905092915050565b60005b838110156126d05780820151818401526020810190506126b5565b838111156126df576000848401525b50505050565b6000601f19601f8301169050919050565b600061270182612696565b61270b81856126a1565b935061271b8185602086016126b2565b612724816126e5565b840191505092915050565b6000602082019050818103600083015261274981846126f6565b905092915050565b6000819050919050565b61276481612751565b811461276f57600080fd5b50565b6000813590506127818161275b565b92915050565b60006020828403121561279d5761279c6125d1565b5b60006127ab84828501612772565b91505092915050565b600073ffffffffffffffffffffffffffffffffffffffff82169050919050565b60006127df826127b4565b9050919050565b6127ef816127d4565b82525050565b600060208201905061280a60008301846127e6565b92915050565b612819816127d4565b811461282457600080fd5b50565b60008135905061283681612810565b92915050565b60008060408385031215612853576128526125d1565b5b600061286185828601612827565b925050602061287285828601612772565b9150509250929050565b61288581612751565b82525050565b60006020820190506128a0600083018461287c565b92915050565b6000806000606084860312156128bf576128be6125d1565b5b60006128cd86828701612827565b93505060206128de86828701612827565b92505060406128ef86828701612772565b9150509250925092565b600080fd5b600080fd5b7f4e487b7100000000000000000000000000000000000000000000000000000000600052604160045260246000fd5b61293b826126e5565b810181811067ffffffffffffffff8211171561295a57612959612903565b5b80604052505050565b600061296d6125c7565b90506129798282612932565b919050565b600067ffffffffffffffff82111561299957612998612903565b5b6129a2826126e5565b9050602081019050919050565b82818337600083830152505050565b60006129d16129cc8461297e565b612963565b9050828152602081018484840111156129ed576129ec6128fe565b5b6129f88482856129af565b509392505050565b600082601f830112612a1557612a146128f9565b5b8135612a258482602086016129be565b91505092915050565b600060208284031215612a4457612a436125d1565b5b600082013567ffffffffffffffff811115612a6257612a616125d6565b5b612a6e84828501612a00565b91505092915050565b60008060408385031215612a8e57612a8d6125d1565b5b6000612a9c85828601612772565b9250506020612aad85828601612772565b9150509250929050565b600060208284031215612acd57612acc6125d1565b5b6000612adb84828501612827565b91505092915050565b612aed81612660565b8114612af857600080fd5b50565b600081359050612b0a81612ae4565b92915050565b60008060408385031215612b2757612b266125d1565b5b6000612b3585828601612827565b9250506020612b4685828601612afb565b9150509250929050565b600067ffffffffffffffff821115612b6b57612b6a612903565b5b612b74826126e5565b9050602081019050919050565b6000612b94612b8f84612b50565b612963565b905082815260208101848484011115612bb057612baf6128fe565b5b612bbb8482856129af565b509392505050565b600082601f830112612bd857612bd76128f9565b5b8135612be8848260208601612b81565b91505092915050565b60008060008060808587031215612c0b57612c0a6125d1565b5b6000612c1987828801612827565b9450506020612c2a87828801612827565b9350506040612c3b87828801612772565b925050606085013567ffffffffffffffff811115612c5c57612c5b6125d6565b5b612c6887828801612bc3565b91505092959194509250565b60008060408385031215612c8b57612c8a6125d1565b5b6000612c9985828601612827565b9250506020612caa85828601612827565b9150509250929050565b7f4e487b7100000000000000000000000000000000000000000000000000000000600052602260045260246000fd5b60006002820490506001821680612cfb57607f821691505b60208210811415612d0f57612d0e612cb4565b5b50919050565b7f4552433732313a20617070726f76656420717565727920666f72206e6f6e657860008201527f697374656e7420746f6b656e0000000000000000000000000000000000000000602082015250565b6000612d71602c836126a1565b9150612d7c82612d15565b604082019050919050565b60006020820190508181036000830152612da081612d64565b9050919050565b7f43616e20206e6f74207472616e7366657220746f2073616d652061646472657360008201527f7300000000000000000000000000000000000000000000000000000000000000602082015250565b6000612e036021836126a1565b9150612e0e82612da7565b604082019050919050565b60006020820190508181036000830152612e3281612df6565b9050919050565b7f43616e20206e6f74206265207a65726f20616464726573730000000000000000600082015250565b6000612e6f6018836126a1565b9150612e7a82612e39565b602082019050919050565b60006020820190508181036000830152612e9e81612e62565b9050919050565b7f4e6f20746f6b656e206578697374000000000000000000000000000000000000600082015250565b6000612edb600e836126a1565b9150612ee682612ea5565b602082019050919050565b60006020820190508181036000830152612f0a81612ece565b9050919050565b7f4e487b7100000000000000000000000000000000000000000000000000000000600052601160045260246000fd5b6000612f4b82612751565b91507fffffffffffffffffffffffffffffffffffffffffffffffffffffffffffffffff821415612f7e57612f7d612f11565b5b600182019050919050565b7f4552433732313a207472616e736665722063616c6c6572206973206e6f74206f60008201527f776e6572206e6f7220617070726f766564000000000000000000000000000000602082015250565b6000612fe56031836126a1565b9150612ff082612f89565b604082019050919050565b6000602082019050818103600083015261301481612fd8565b9050919050565b7f546f6b656e2069732063757272656e746c79206e6f7420666f722073616c6521600082015250565b60006130516020836126a1565b915061305c8261301b565b602082019050919050565b6000602082019050818103600083015261308081613044565b9050919050565b7f427579657220616464726573732063616e6e6f74206265207a65726f00000000600082015250565b60006130bd601c836126a1565b91506130c882613087565b602082019050919050565b600060208201905081810360008301526130ec816130b0565b9050919050565b7f43616e6e6f7420627579206f776e6564204e4654000000000000000000000000600082015250565b60006131296014836126a1565b9150613134826130f3565b602082019050919050565b600060208201905081810360008301526131588161311c565b9050919050565b7f4f776e61626c653a2063616c6c6572206973206e6f7420746865206f776e6572600082015250565b60006131956020836126a1565b91506131a08261315f565b602082019050919050565b600060208201905081810360008301526131c481613188565b9050919050565b7f4e6f20746f6b656e202065786973747300000000000000000000000000000000600082015250565b60006132016010836126a1565b915061320c826131cb565b602082019050919050565b60006020820190508181036000830152613230816131f4565b9050919050565b7f546f6b656e206973206e6f7420666f722073616c652c2073657420697420736160008201527f6c65206669727374210000000000000000000000000000000000000000000000602082015250565b60006132936029836126a1565b915061329e82613237565b604082019050919050565b600060208201905081810360008301526132c281613286565b9050919050565b7f4f6e6c79206f776e65722063616e20736574207468652076616c756521000000600082015250565b60006132ff601d836126a1565b915061330a826132c9565b602082019050919050565b6000602082019050818103600083015261332e816132f2565b9050919050565b7f546f6b656e20646f6573206e6f74206578697374210000000000000000000000600082015250565b600061336b6015836126a1565b915061337682613335565b602082019050919050565b6000602082019050818103600083015261339a8161335e565b9050919050565b7f4552433732313a206f776e657220717565727920666f72206e6f6e657869737460008201527f656e7420746f6b656e0000000000000000000000000000000000000000000000602082015250565b60006133fd6029836126a1565b9150613408826133a1565b604082019050919050565b6000602082019050818103600083015261342c816133f0565b9050919050565b7f4552433732313a2062616c616e636520717565727920666f7220746865207a6560008201527f726f206164647265737300000000000000000000000000000000000000000000602082015250565b600061348f602a836126a1565b915061349a82613433565b604082019050919050565b600060208201905081810360008301526134be81613482565b9050919050565b7f4552433732314d657461646174613a2055524920717565727920666f72206e6f60008201527f6e6578697374656e7420746f6b656e0000000000000000000000000000000000602082015250565b6000613521602f836126a1565b915061352c826134c5565b604082019050919050565b6000602082019050818103600083015261355081613514565b9050919050565b600081905092915050565b600061356d82612696565b6135778185613557565b93506135878185602086016126b2565b80840191505092915050565b60008190508160005260206000209050919050565b600081546135b581612ce3565b6135bf8186613557565b945060018216600081146135da57600181146135eb5761361e565b60ff1983168652818601935061361e565b6135f485613593565b60005b83811015613616578154818901526001820191506020810190506135f7565b838801955050505b50505092915050565b60006136338286613562565b915061363f8285613562565b915061364b82846135a8565b9150819050949350505050565b7f4f6e6c79206f776e65722063616e20736574206120746f6b656e20666f72207360008201527f616c652100000000000000000000000000000000000000000000000000000000602082015250565b60006136b46024836126a1565b91506136bf82613658565b604082019050919050565b600060208201905081810360008301526136e3816136a7565b9050919050565b7f546f6b656e20697320616c72656164792073657420746f206e6f7420666f722060008201527f73616c6500000000000000000000000000000000000000000000000000000000602082015250565b60006137466024836126a1565b9150613751826136ea565b604082019050919050565b6000602082019050818103600083015261377581613739565b9050919050565b7f4f6e6c7920746f6b656e206f776e65722063616e207365742076616c75650000600082015250565b60006137b2601e836126a1565b91506137bd8261377c565b602082019050919050565b600060208201905081810360008301526137e1816137a5565b9050919050565b7f546f6b656e20646f6573206e6f74206578697374000000000000000000000000600082015250565b600061381e6014836126a1565b9150613829826137e8565b602082019050919050565b6000602082019050818103600083015261384d81613811565b9050919050565b7f4f776e61626c653a206e6577206f776e657220697320746865207a65726f206160008201527f6464726573730000000000000000000000000000000000000000000000000000602082015250565b60006138b06026836126a1565b91506138bb82613854565b604082019050919050565b600060208201905081810360008301526138df816138a3565b9050919050565b7f4552433732313a206d696e7420746f20746865207a65726f2061646472657373600082015250565b600061391c6020836126a1565b9150613927826138e6565b602082019050919050565b6000602082019050818103600083015261394b8161390f565b9050919050565b7f4552433732313a20746f6b656e20616c7265616479206d696e74656400000000600082015250565b6000613988601c836126a1565b915061399382613952565b602082019050919050565b600060208201905081810360008301526139b78161397b565b9050919050565b60006139c982612751565b91506139d483612751565b9250827fffffffffffffffffffffffffffffffffffffffffffffffffffffffffffffffff03821115613a0957613a08612f11565b5b828201905092915050565b7f4552433732313a206f70657261746f7220717565727920666f72206e6f6e657860008201527f697374656e7420746f6b656e0000000000000000000000000000000000000000602082015250565b6000613a70602c836126a1565b9150613a7b82613a14565b604082019050919050565b60006020820190508181036000830152613a9f81613a63565b9050919050565b7f4552433732313a207472616e73666572206f6620746f6b656e2074686174206960008201527f73206e6f74206f776e0000000000000000000000000000000000000000000000602082015250565b6000613b026029836126a1565b9150613b0d82613aa6565b604082019050919050565b60006020820190508181036000830152613b3181613af5565b9050919050565b7f4552433732313a207472616e7366657220746f20746865207a65726f2061646460008201527f7265737300000000000000000000000000000000000000000000000000000000602082015250565b6000613b946024836126a1565b9150613b9f82613b38565b604082019050919050565b60006020820190508181036000830152613bc381613b87565b9050919050565b6000613bd582612751565b9150613be083612751565b925082821015613bf357613bf2612f11565b5b828203905092915050565b7f4552433732313a20617070726f766520746f2063616c6c657200000000000000600082015250565b6000613c346019836126a1565b9150613c3f82613bfe565b602082019050919050565b60006020820190508181036000830152613c6381613c27565b9050919050565b7f4552433732313a207472616e7366657220746f206e6f6e20455243373231526560008201527f63656976657220696d706c656d656e7465720000000000000000000000000000602082015250565b6000613cc66032836126a1565b9150613cd182613c6a565b604082019050919050565b60006020820190508181036000830152613cf581613cb9565b9050919050565b7f4e487b7100000000000000000000000000000000000000000000000000000000600052601260045260246000fd5b6000613d3682612751565b9150613d4183612751565b925082613d5157613d50613cfc565b5b828204905092915050565b6000613d6782612751565b9150613d7283612751565b925082613d8257613d81613cfc565b5b828206905092915050565b7f4e487b7100000000000000000000000000000000000000000000000000000000600052603260045260246000fd5b600081519050919050565b600082825260208201905092915050565b6000613de382613dbc565b613ded8185613dc7565b9350613dfd8185602086016126b2565b613e06816126e5565b840191505092915050565b6000608082019050613e2660008301876127e6565b613e3360208301866127e6565b613e40604083018561287c565b8181036060830152613e528184613dd8565b905095945050505050565b600081519050613e6c81612607565b92915050565b600060208284031215613e8857613e876125d1565b5b6000613e9684828501613e5d565b9150509291505056fea2646970667358221220bbbbeb281c2d4abcae01b3fca8e0a379f1a4df61982acfe962b9e8d4ae09037464736f6c634300080b0033",
  "immutableReferences": {},
  "source": "// SPDX-License-Identifier: MIT\r\npragma solidity ^0.8.0;\r\n\r\nimport \"@openzeppelin/contracts/token/ERC721/ERC721.sol\";\r\nimport \"@openzeppelin/contracts/utils/Counters.sol\";\r\nimport \"@openzeppelin/contracts/access/Ownable.sol\";\r\n\r\ncontract OpenMarket is ERC721, Ownable {\r\n    using Counters for Counters.Counter;\r\n    using Strings for uint256;\r\n\r\n    string private baseURI;\r\n    string private baseExtension = \".json\";\r\n    //   uint256[] tokenid;\r\n    //   uint256[] costOftoken;\r\n    //   mapping(uint256 => uint256) private costOf;\r\n    //   mapping(address => uint256) private etherOf;\r\n\r\n    mapping(uint =>bool ) private _tokenForSale;\r\n    mapping(uint =>uint ) private _tokenPrice;\r\n\r\n    Counters.Counter private _tokenIds;\r\n\r\n    string[] public colors ;\r\n\r\n    mapping(string => bool) private _tokenExists ;\r\n\r\n    uint[] private totalTokens;\r\n\r\n    constructor(string memory _initBaseURI) ERC721(\"NFT TOKEN\", \"TFN\") {\r\n        setBaseURI(_initBaseURI);\r\n    }\r\n\r\n    function mint() public returns(uint)\r\n    {\r\n        uint256 newItemId = _tokenIds.current();\r\n        totalTokens.push(newItemId);\r\n        _tokenIds.increment();\r\n        _mint(msg.sender, newItemId);\r\n        _tokenForSale[newItemId] = false ;\r\n        return newItemId ;\r\n    }\r\n\r\n    function totalSupply() public view returns(uint256){\r\n        return totalTokens.length;\r\n    }\r\n\r\n\r\n\r\n\r\n    function mintInBatch(uint256 noOfTokens) public {\r\n        for(uint i=0;i<noOfTokens;i++) {\r\n            uint256 _id = _tokenIds.current();\r\n            totalTokens.push(_id);\r\n            _tokenIds.increment();\r\n            _mint(msg.sender, _id);\r\n        }\r\n    }\r\n    \r\n    function setBaseURI(string memory _newBaseURI) public onlyOwner {\r\n        baseURI = _newBaseURI;\r\n    }\r\n    \r\n    function _baseURI() internal view virtual override returns (string memory) {\r\n        return baseURI;\r\n    }\r\n\r\n    function tokenURI(uint256 tokenId)\r\n        public\r\n        view\r\n        virtual\r\n        override\r\n        returns (string memory)\r\n    {\r\n        require(\r\n            _exists(tokenId),\r\n            \"ERC721Metadata: URI query for nonexistent token\"\r\n        );\r\n\r\n        string memory currentBaseURI = _baseURI();\r\n        return\r\n            bytes(currentBaseURI).length > 0\r\n                ? string(\r\n                    abi.encodePacked(\r\n                        currentBaseURI,\r\n                        tokenId.toString(),\r\n                        baseExtension\r\n                    )\r\n                )\r\n                : \"\";\r\n    }\r\n\r\n    function setTokenForSale(uint tokenId, uint price) public {\r\n        require(ownerOf(tokenId) == _msgSender(),\"Only owner can set a token for sale!\");\r\n        require(_exists(tokenId),\"Token does not exist!\");\r\n        _tokenForSale[tokenId] = true;\r\n        _tokenPrice[tokenId] = price;\r\n    }\r\n\r\n    function changeTokenPrice( uint tokenId,uint price) public {\r\n        require(_tokenForSale[tokenId],\"Token is not for sale, set it sale first!\");\r\n        require(ownerOf(tokenId) == _msgSender(),\"Only owner can set the value!\");\r\n        require(_exists(tokenId),\"Token does not exist!\");\r\n        _tokenPrice[tokenId] = price;\r\n    }\r\n\r\n    function buyNFT(uint tokenId)public {\r\n        require(_tokenForSale[tokenId],\"Token is currently not for sale!\");\r\n        address owner = ownerOf(tokenId);\r\n        require(_msgSender() != address(0),\"Buyer address cannot be zero\");\r\n        require(_msgSender() != owner , \"Cannot buy owned NFT\");\r\n        _transfer(owner,_msgSender(),tokenId);\r\n        _tokenForSale[tokenId] = false;\r\n\r\n        emit Transfer(owner,_msgSender(),tokenId);\r\n    }\r\n\r\n    function removeTokenFromSale(uint tokenId)public{\r\n        require(_tokenForSale[tokenId],\"Token is already set to not for sale\");\r\n        require(ownerOf(tokenId) == _msgSender(),\"Only token owner can set value\");\r\n        require(_exists(tokenId),\"Token does not exist\");\r\n        _tokenForSale[tokenId] = false;\r\n    }\r\n\r\n    function isTokenForSale(uint tokenId)public view returns(bool){\r\n        return _tokenForSale[tokenId];\r\n    }\r\n    function getTokenPrice(uint tokenId)public view returns(uint){\r\n        return _tokenPrice[tokenId];\r\n    }\r\n\r\n    function TransferFrom(address to, uint tokenId) public {\r\n        address owner = ownerOf(tokenId);\r\n        require(_isApprovedOrOwner(msg.sender, tokenId), \"ERC721: transfer caller is not owner nor approved\");\r\n        require(to != msg.sender , 'Can  not transfer to same address');\r\n        require(to != address(0) , 'Can  not be zero address');\r\n        require(_exists(tokenId),\"No token  exists\");\r\n        _transfer(owner,to,tokenId);\r\n    }\r\n\r\n    function approve(address to , uint256 tokenId) public override {\r\n        require(to != msg.sender , 'Can  not transfer to same address');\r\n        require(to != address(0) , 'Can  not be zero address');\r\n        require(_exists(tokenId),\"No token exist\");\r\n        _approve(to , tokenId);\r\n    }\r\n    \r\n  \r\n\r\n    //  function _transferFrom(address from, address to , uint256 tokenid) public payable {\r\n    //     require(etherOf[to] >= costOf[tokenid], 'Low ether in buyers account');\r\n    //     transferFrom(from,to,tokenid);\r\n    //     etherOf[to]-=costOf[tokenid];\r\n    //     etherOf[from]+=costOf[tokenid];\r\n    // }\r\n\r\n}\r\n    // uint256 private tokenCounter;\r\n    // constructor() ERC721(\"Kryptonion\", \"KN\"){\r\n    //     tokenCounter = 0;\r\n    // }\r\n\r\n    // function mint() public {\r\n    //     uint256 newNFTTokenId = tokenCounter;\r\n    //     _mint(msg.sender, newNFTTokenId);\r\n    //     tokenCounter+=1;\r\n    // }\r\n// }",
  "sourcePath": "C:\\Users\\HP\\Desktop\\Market_place\\NFT-MARKETPLACE\\src\\contracts\\OpenMarket.sol",
  "compiler": {
    "name": "solc",
    "version": "0.8.11+commit.d7f03943.Emscripten.clang"
  },
  "schemaVersion": "3.4.4",
  "updatedAt": "2021-12-23T19:40:44.457Z",
  "networkType": "ethereum",
  "devdoc": {
    "kind": "dev",
    "methods": {
      "approve(address,uint256)": {
        "details": "See {IERC721-approve}."
      },
      "balanceOf(address)": {
        "details": "See {IERC721-balanceOf}."
      },
      "getApproved(uint256)": {
        "details": "See {IERC721-getApproved}."
      },
      "isApprovedForAll(address,address)": {
        "details": "See {IERC721-isApprovedForAll}."
      },
      "name()": {
        "details": "See {IERC721Metadata-name}."
      },
      "owner()": {
        "details": "Returns the address of the current owner."
      },
      "ownerOf(uint256)": {
        "details": "See {IERC721-ownerOf}."
      },
      "renounceOwnership()": {
        "details": "Leaves the contract without owner. It will not be possible to call `onlyOwner` functions anymore. Can only be called by the current owner. NOTE: Renouncing ownership will leave the contract without an owner, thereby removing any functionality that is only available to the owner."
      },
      "safeTransferFrom(address,address,uint256)": {
        "details": "See {IERC721-safeTransferFrom}."
      },
      "safeTransferFrom(address,address,uint256,bytes)": {
        "details": "See {IERC721-safeTransferFrom}."
      },
      "setApprovalForAll(address,bool)": {
        "details": "See {IERC721-setApprovalForAll}."
      },
      "supportsInterface(bytes4)": {
        "details": "See {IERC165-supportsInterface}."
      },
      "symbol()": {
        "details": "See {IERC721Metadata-symbol}."
      },
      "tokenURI(uint256)": {
        "details": "See {IERC721Metadata-tokenURI}."
      },
      "transferFrom(address,address,uint256)": {
        "details": "See {IERC721-transferFrom}."
      },
      "transferOwnership(address)": {
        "details": "Transfers ownership of the contract to a new account (`newOwner`). Can only be called by the current owner."
      }
    },
    "version": 1
  },
  "userdoc": {
    "kind": "user",
    "methods": {},
    "version": 1
  }
}